:100000000C9421030C943E030C943E030C943E0389
:100010000C943E030C943E030C943E030C943E035C
:100020000C943E030C943E030C94A3310C94753253
:100030000C94DB270C943E030C943E030C943E037B
:100040000C943E030C943E030C943E030C943E032C
:100050000C943E030C9443280C943E030C943E03F2
:100060000C943E030C943E030C943E030C943E030C
:100070000C943E030C943E030C943E030C943E03FC
:100080000C943E030C943E030C943E030C943E03EC
:100090000C943E030C943E030C943E030C943E03DC
:1000A0000C943E030C943E030C943E039603990378
:1000B0009C039F03A203A403A703DB06DD06E80657
:1000C000DF06E106E306E506E706EA06EC06EE06CD
:1000D000F906F006F206F406F606F806FB063015F9
:1000E0003315361539153C153F154215451548157C
:1000F0004B154E1551155415441D441D761D761D86
:10010000AD1DCD1D361F941F0F1E941FBC1EBC1E9F
:100110002D1F941F941F8E1FC91EC91EC91EC91EE4
:10012000C91EC91EC91EC91EC91EC91EC91EC91E97
:10013000C91EC91EC91EC91EDA1EE71EEE1EF51E07
:10014000FF1E1F201F203120312028203120312088
:1001500031201F201F202D20312031202D20E23280
:100160000933FB330933FB3355337833FB33CE3359
:10017000DD3305A84CCDB2D44EB93836A9020C50A7
:10018000B9918688083CA6AAAA2ABE000000803F32
:100190000000F0A12E00240221023962E0000000DC
:1001A0001E00140004001D6134004C001F001A00E2
:1001B00015001B0035642A00200009001600060007
:1001C00050002C0021001300170019004F004D00B3
:1001D00022000A000700050000006561006F02535D
:1001E0000000015300004A00006702530000015361
:1001F0000000E30023000D000B000E000000296248
:1002000024000F001100100052004B0025001800C0
:10021000080036005100286426001C000C0037003E
:100220002F002B00270033001200380030004E0052
:100230002D0031003400E500E4000000C55CC65C20
:10024000C75CC85CC25C00003A001E0220022202A9
:10025000010001003B001F022102230201000601F0
:100260003C002F0226022F00010019013D00300240
:1002700027023000010001003E0031023500350246
:1002800000001B010100010000000100000001004E
:100290000100010000000100000001003F005200C9
:1002A00051002402000016014000240021001E001D
:1002B000010001004100250022001F0037001C0141
:1002C000420026002300200027001D0143002502D4
:1002D0002E0231002E00010044004500C95CCA5CBA
:1002E000C35C0000010001000100010001000000EA
:1002F00001000100010001000100010001000100F6
:10030000F2000100010001000100F000F100010015
:10031000F400010001000100F3000100F5000100FC
:1003200001000100010001000000010001000100C6
:1003300000000100000001000100010000000100B8
:1003400000000100010001000100010000000100A7
:100350000100010001000100A900010001000100ED
:100360000100AC00AA00B600010001000100AB00D2
:10037000A8000100010001000100010001000100CE
:1003800001000100AE0001000100000000000000BB
:100390000001010101010101010102020202020248
:1003A000020202030303030303030304040404041B
:1003B00004050505050506060606060707070708DE
:1003C0000808080909090A0A0A0A0B0B0B0C0C0C8D
:1003D0000D0D0D0E0E0F0F0F101011111112121323
:1003E000131414151516161717181819191A1A1B9D
:1003F0001C1C1D1D1E1F1F202021222223242525F9
:1004000026272728292A2B2B2C2D2E2F2F3031322F
:1004100033343536363738393A3B3C3D3E3F404140
:10042000424344464748494A4B4C4D4F5051525322
:10043000555657585A5B5C5E5F60626364666769D5
:100440006A6C6D6E707173747678797B7C7E808156
:10045000838486888A8B8D8F91929496989A9B9D9F
:100460009FA1A3A5A7A9ABADAFB1B3B5B7B9BBBDAC
:10047000BFC1C4C6C8CACCCFD1D3D6D8DADCDFE17D
:10048000E4E6E8EBEDF0F2F5F7FAFCFF04033000E8
:10049000000016034500720067006F0044006F0003
:1004A0007800200045005A00000016034500720045
:1004B00067006F0044006F007800200045005A007C
:1004C00000000403090409026D00040100A0FA09F8
:1004D0000400000103010100092111010001224073
:1004E000000705810308000A090401000103010255
:1004F00000092111010001224D00070582030800B7
:100500000A09040200010300000009211101000191
:100510002236000705830308000A090403000103CB
:1005200000000009211101000122390007058403A0
:100530002000011201100100000008EDFE07130168
:10054000000102030105010906A101050719E029BF
:10055000E715002501950875018102050819012993
:10056000059505750191029501750391010507191E
:100570000029F71500250195F875018102C00501D4
:100580000980A10185021601002603001A81002AB4
:100590008300751095018100C0050C0901A101853A
:1005A00003160100269C021A01002A9C0275109570
:1005B000018100C005010902A1010901A10005098D
:1005C000190129051500250195057501810295017F
:1005D000750381010501093009311581257F9502D7
:1005E0007508810609381581257F950175088106F2
:1005F000050C0A38021581257F950175088106C012
:10060000C005010906A101050719E029E715002524
:100610000195087501810295017508810105081988
:100620000129059505750191029501750391010553
:1006300007190029FF150026FF009506750881009F
:10064000C00011241FBECFEFDAE0DEBFCDBF13E044
:10065000A0E0B1E0E6E1F0E702C005900D92A83617
:10066000B107D9F726E0A8E6B3E001C01D92AD3C82
:10067000B207E1F70E94CA2E0C9409380C940000CE
:1006800080B38C7080BB81B3836F81BB089584B1CC
:10069000807F84B985B1807F85B98AB1837F8AB92B
:1006A0008BB1837F8BB93E9846980895CF93E82FFE
:1006B000873090F58091040190910501892B09F014
:1006C00048C0CE2F64E670E080E40E94E318909367
:1006D000050180930401892BD1F464E670E082E186
:1006E0000E943A199093050180930401892B79F4B3
:1006F00081E090E001C0880FCA95EAF764E670E0F7
:1007000080950E943A19909305018093040184E634
:1007100090E0CF910C948F1990E0FC013797E7306F
:10072000F105B8F4EA5AFF4F0C94FC36209A289849
:1007300010C0219A29980DC0229A2A980AC0239A9B
:100740002B9807C0529A01C0539A5B9802C03E9AF8
:100750004698CF910895CF93873008F041C080919B
:10076000040190910501892B09F043C064E670E013
:1007700080E40E94E3189093050180930401892B83
:1007800011F0C0E027C064E670E083E10E943A19EE
:100790009093050180930401892B99F764E670E03A
:1007A00081E40E94E3189093050180930401892B52
:1007B00041F784E690E00E946A1997FF05C0909384
:1007C000050180930401DDCFC82FC095109205016B
:1007D0001092040184E690E00E948F198C2F0AC0C9
:1007E0009FB18FB1807F869586959370892B809578
:1007F00001C080E0CF9108950C94DF050E9453055D
:1008000090E090930501809304010E9447030E94A9
:10081000400329E633E0EDEBF3E04EE04E0F11929A
:1008200080E090E0D901A80FB91F1C920196863094
:100830009105C1F72A5F3F4F4E13F1CF0C9402068A
:100840000E94530590E090930501809304010E945B
:1008500047030E944003EDEBF3E08EE08E0F119210
:100860008E13FDCF089526E0829FC0011124FC0164
:10087000E759FC4F20E030E080E041E050E090811B
:10088000992319F09150908307C0BA01022E01C03C
:10089000660F0A94EAF7862B2F5F3F4F319626307A
:1008A000310569F7089596E0699FB001112420E0B1
:1008B00030E090E04FE0FC01022E02C0F595E79594
:1008C0000A94E2F7E0FF06C0F901E60FF71FE759C7
:1008D000FC4F40832F5F3F4F2630310561F708956D
:1008E000CF92DF92EF92FF920F931F93CF93DF93FC
:1008F0008091040190910501892B91F0809168030A
:100900008F5F8093680381110BC00E94530590E0B4
:100910009093050180930401892B11F40E94E50452
:100920008DEBC82E83E0D82E94ECE92E93E0F92EBF
:10093000C0E08C2F0E94560307E00C0F802F0E940E
:1009400056038C2F0E943304182F8C2F0E94AB0368
:10095000F6019081D12FD095D9238123D82B6C2FEC
:100960008D2F89270E945304F601D1936F01802FA8
:100970000E943304182F802F0E94AB03F70190814F
:10098000D12FD095D9238123D82B602F8D2F892764
:100990000E945304F701D1937F010E944703CF5F68
:1009A000C73039F60E940C0681E0DF91CF911F918C
:1009B0000F91FF90EF90DF90CF900895E82FF0E037
:1009C000E354FC4F80810895089556985E982598C9
:1009D0002D9826982E9827982F988FEF90E0909337
:1009E00089008093880090938B0080938A00909375
:1009F0008D0080938C00259A2D9A2FEF80E792E04E
:100A0000215080409040E1F700C00000269A2E9AC5
:100A10002FEF80E792E0215080409040E1F700C046
:100A20000000279A2F9A2FEF80E792E02150804014
:100A30009040E1F700C0000025982D982FEF80E747
:100A400092E0215080409040E1F700C000002698DD
:100A50002E982FEF80E792E0215080409040E1F700
:100A600000C0000027982F9856985E9825982D98DA
:100A700026982E9827982F98089589EA80938000C9
:100A800089E08093810024982C983F988AB18F7CCC
:100A90008AB96E98479A8BB180638BB9769A0E9417
:100AA000E5040C94DE0580E290E0909305018093CC
:100AB00004018091CB0381110EC00E94DD1881E0FA
:100AC0008093CB032FEF83ED90E321508040904043
:100AD000E1F700C0000064E670E080E40E94E318E3
:100AE0009093050180930401892B09F050C064E6BE
:100AF00070E080E00E943A19909305018093040110
:100B0000892B09F044C064E670E080E00E943A1945
:100B10009093050180930401892BC9F564E670E088
:100B20008FE30E943A199093050180930401892B69
:100B300071F584E690E00E948F1964E670E080E42D
:100B40000E94E3189093050180930401892BF9F426
:100B500064E670E08CE00E943A199093050180935E
:100B60000401892BA1F464E670E080E00E943A1948
:100B70009093050180930401892B49F464E670E0A9
:100B80008FE30E943A19909305018093040184E653
:100B900090E00E948F1980910401089561110BC0AB
:100BA000FC018281882321F085EE0E94811B03C015
:100BB00085EE0E949A1C80E090E00895089560916F
:100BC000F0047091F1048091F2049091F3040E947A
:100BD0004E2656985E9825982D9826982E982798F8
:100BE0002F98813019F0823021F00895259A2D9A9E
:100BF0000895269A2E9A089581E0089581E0089537
:100C00000C94FE050E949E26811102C00E940C27B2
:100C10000E9458150C943D050E94B4148091CC0399
:100C2000811102C00E944F0D8091CC0390E001968B
:100C30006BE070E00E94E8368093CC030C94FC03D8
:100C4000282F2F7041F0822F90E02A3010F44D961B
:100C500008950697089587E290E0089508950C940A
:100C60002E060C942F0608950E940D200E94330634
:100C70002FEF84E39CE0215080409040E1F700C0DA
:100C800000000C946928FF920F931F93CF93DF937A
:100C90008C01FC01C081D18180917E04811113C03F
:100CA0008281882349F0CE010E944125F82E682FC9
:100CB000CE010E94E42404C0CE010E941425F82E27
:100CC000BE018F2D04C0CE010E944125BE010E94AD
:100CD0000209EC01B8010E940006882309F48AC2C7
:100CE000B801CE010E946B0B882309F483C2CC3C6F
:100CF000FCE5DF0741F4F8018281882309F47AC218
:100D00000E94991677C2CD3C8CE5D80708F01EC129
:100D1000C43C9CE5D90761F4F8018281882309F479
:100D200069C20E9412268272E1F40E94AE1562C26C
:100D3000C53CECE5DE0708F0C7C0C531FCE5DF07C0
:100D400098F0C23CFCE5DF0709F48CC008F492C0BF
:100D5000F8018281882309F44DC20E941226827212
:100D600021F70E94941546C2C2308CE5D80708F4DA
:100D700052C0F8018281882309F459C00E949E263E
:100D8000811102C00E940C270E94B12690E090932E
:100D9000BF068093BE06FE01E350FC45E231F1053B
:100DA00030F4E35AFF4F8091BE060C94FC368091DC
:100DB000BE06816027C0826025C0846023C0806138
:100DC00021C080621FC080641DC080681BC0846019
:100DD000886018C08E7F16C08D7F14C08B7F12C0B4
:100DE0008F7E10C08F7D0EC08F7B0CC08F770AC0A6
:100DF0008B7F877F07C087FB222720F991E092270E
:100E000090FB87F98093BE068091BE060E94B526AE
:100E10000E940D20EFC1C1159CE5D90781F0C130BA
:100E2000DC45A9F081E08093D2038093D303C8010D
:100E3000DF91CF911F910F91FF900C94FC05F80169
:100E40008281882309F4D6C10E943406D3C1F801F7
:100E50008281882309F4CEC180911D058160809331
:100E60001D05C8C1F8018281882309F4C3C10E940D
:100E70008615C0C1C631DC45A9F60E941226282F6E
:100E8000F80182814091080150910901882379F08D
:100E90002A7A91E009F490E09093CD03911102C079
:100EA00069E201C065E3CA010E946A270AC0809115
:100EB000CD03811102C069E201C065E3CA010E944D
:100EC00075270E94DF2596C1F8018281C83CFCE5A8
:100ED000DF0731F4882309F48DC10E943A168AC1D4
:100EE000C93C9CE5D907C8F4C63CECE5DE0731F403
:100EF000882309F47FC10E94F4157CC1C73CDC45FE
:100F000030F4882309F476C10E94C81573C1882380
:100F100009F470C10E9424166DC1CA3C9CE5D90732
:100F200031F4882309F466C10E946A1663C1CB3C80
:100F3000DC4530F4882309F45DC10E9454165AC17F
:100F4000882309F457C10E94841654C1C43DFCE5AE
:100F5000DF07C1F4F8018281882309F44BC10E94A4
:100F6000C116693171058105910540F00E94C116D5
:100F7000623271058105910508F4F3CE89E10E9482
:100F8000B21638C1C53D8CE5D80708F086C0F80117
:100F90008281C03DFCE5DF07A1F4882309F42AC162
:100FA0000E94C116693071058105910540F00E94CB
:100FB000C1166E3071058105910508F4D2CE89E025
:100FC000DECFC13D9CE5D907A0F5CE3CECE5DE07C0
:100FD000A1F4882309F40EC10E94C1166230710584
:100FE0008105910540F00E94C116653071058105AB
:100FF000910508F4B6CE82E0C2CFCF3CDC4528F4A0
:10100000882309F4F7C081E0BACF882309F4F2C03D
:101010000E94C116663071058105910540F00E945D
:10102000C116683071058105910508F49ACE86E0F5
:10103000A6CFC23D9CE5D907A1F4882309F4DAC004
:101040000E94C116653171058105910540F00E942D
:10105000C116673171058105910508F482CE85E1DD
:101060008ECFC33DDC45A0F4882309F4C3C00E94A1
:10107000C1166F3071058105910540F00E94C116BF
:10108000643171058105910508F46BCE8FE077CF4F
:10109000882309F4AFC088E172CFC83DFCE5DF07C3
:1010A00059F5F8018281882361F01092D3030E94E0
:1010B0000D289093D1038093D00380E20E94021DFB
:1010C00099C08091D303882321F080E20E94091DFA
:1010D00091C08091D0039091D1030E941928883C3F
:1010E000910598F780E20E94091D88E20E94811B09
:1010F00088E20E949A1C7EC0C93D8CE5D80708F0A2
:1011000058C0F8018281C63DFCE5DF0751F5882310
:1011100051F01092D2030E940D289093CF03809338
:10112000CE0382E0CBCF0E94122685FF05C081E06E
:101130008093D2038093D3038091D20381110FC097
:101140008091CE039091CF030E941928883C91058D
:1011500030F486E20E94811B86E20E949A1C82E0A3
:10116000B5CFC73DDC4528F4882309F443C083E2AA
:1011700006CF81119ACF0E94122681FF05C081E01F
:101180008093D2038093D3038091D30381119DCFA9
:101190008091D0039091D1030E941928883C910539
:1011A00008F093CF87E20E94811B87E20E949A1C7D
:1011B0008CCFCC3DECE5DE0741F4F8018281882339
:1011C000C9F082E00E94662F15C0CD3DFCE5DF0727
:1011D00039F4F8018281882369F00E940C270AC043
:1011E000CB3DDC4509F01ECEF8018281882311F049
:1011F00080E0E8CF80E0DF91CF911F910F91FF90C9
:101200000895089596E0799FF001112494E5899F4F
:10121000E00DF11D1124E60FF11DEE0FFF1FEC563E
:10122000FE4F859194910895880F991FFC01E05716
:10123000FE4F859194910895CF93DF930E94020908
:101240000E94CB0AEC01811520E59207F0F581158B
:1012500030E4930708F021C1883E910500F5803EF7
:10126000910508F094C1883A910570F4853A91058A
:1012700008F0A3C08130910509F489C108F440C188
:10128000049708F084C13CC18D3B910508F4A0C0CF
:10129000803C910508F434C1805C9109F0C081154F
:1012A000904258F4C11581E0D80708F070C1C03FE2
:1012B000D10508F425C1D0656AC1C11590E3D907ED
:1012C00008F0E1C0CE019F70DAC0811525E59207D4
:1012D00008F043C0811534E5930708F0F5C0811587
:1012E00042E5940708F5C11581E5D80708F0D8C094
:1012F0002C2F237081E090E002C0880F991F2A955F
:10130000E2F79C689E0174E0369527957A95E1F79F
:101310002370922BCF70C695C69540E2C49FE00122
:101320001124C82BD92B33C1869586959E01237035
:101330003327C115D34508F0B8C040E2849FC001EF
:101340001124C1E0D0E002C0CC0FDD1F2A95E2F7E6
:101350008C2B9D2BEC01DC681AC181152AE59207C4
:1013600098F4811539E5930708F0B9C081159645C1
:1013700008F4AFC0C11588E5D80708F4C1C0DC2F58
:10138000CC27C06FD06A03C1C1159BE5D90708F40B
:10139000B7C0C1152CE5D20708F4AFC0CE019056F6
:1013A0008115904208F0ACC08D2F8F710E94480BC0
:1013B000DD27D0628F71D82BEAC0853A910509F4F8
:1013C000A2C0863A910509F0A1C0C2E8D0E4DFC00E
:1013D000883A910509F49DC0893A910509F49CC0A9
:1013E0008A3A910509F49BC08B3A910509F49AC099
:1013F0008C3A910509F499C08B3B910509F498C08A
:101400008C3B910509F497C08D3A910509F496C07B
:10141000803B910509F495C08E3A910509F494C07A
:101420008F3A910509F493C0813B910509F492C06C
:10143000823B910509F491C0833B910509F490C06A
:10144000843B910509F48FC0853B910509F48EC05A
:10145000863B910509F48DC0873B910509F48CC04A
:10146000883B910509F48BC0893B910509F48AC03A
:101470008A3B910509F489C0C0E0D4E488C00E9489
:101480001409EC0184C0CE019927D3FF03C0EC01FD
:10149000D86C7DC0EC01D06C7AC0DF70D06A77C0A8
:1014A000DC2FCC27C16FD06A72C040E2849FC0019C
:1014B0001124C1E0D0E002C0CC0FDD1F2A95E2F775
:1014C000C82BD92BDA6863C0D82FCC27C46FD06A59
:1014D0005EC0CF71DD27DC2FCC27D06258C08F7063
:1014E000806E90E0906A24E0D695C7952A95E1F742
:1014F000CF709C013C2BE9014AC0DD27D06647C074
:10150000C0E0D0E044C0C1E8D0E441C0C3E8D0E4CA
:101510003EC0C2EED4E43BC0C9EED4E438C0CAEE4B
:10152000D4E435C0C5EBD4E432C0C6EBD4E42FC05C
:10153000C3EBD4E42CC0C4EBD4E429C0C7EBD4E49F
:1015400026C0CCECD4E423C0CDECD4E420C0C3E866
:10155000D5E41DC0CAE8D5E41AC0C2E9D5E417C075
:10156000C4E9D5E414C0C1E2D6E411C0C3E2D6E4B4
:101570000EC0C4E2D6E40BC0C5E2D6E408C0C6E2A1
:10158000D6E405C0C7E2D6E402C0CAE2D6E4CE0182
:10159000DF91CF9108958238910549F1B0F48133FC
:1015A000910509F458C048F48932910509F44EC0F8
:1015B0008A32910509F454C008958533910509F4E0
:1015C00040C08933910599F00895833E910529F132
:1015D00038F4803E910591F0823E9105A1F0089586
:1015E000863E9105F9F0873E910531F108952091ED
:1015F000BE0620FD3AC021FD38C008958091BE0688
:1016000080FD35C032C08091BE0682FF32C080911D
:10161000BE0684FD30C083EE39C08091BE0682FDD7
:1016200028C0F5CF8091BE0683FF27C08091BE06FB
:1016300084FD21C087EE2AC08091BE0683FD1DC0B7
:10164000F5CF8091BE0685FD1AC01BC08091BE06F5
:1016500085FD17C014C08091BE0686FD14C015C05C
:101660008091BE0686FD11C00EC080EE0FC089E3DA
:101670000DC082EE0BC080E009C086EE07C089E293
:1016800005C085E303C08AE201C081E390E00895CC
:101690009091BE0692FF0DC0282F2871283019F4B2
:1016A000877F846006C0282F2471243011F48B7F3B
:1016B000886093FF0DC0282F2871283119F4877E88
:1016C000846106C0282F2471243111F48B7E886137
:1016D00094FD877E0895CF93DF93813020E89207B1
:1016E00078F0FB012281222359F0EC010E94840B47
:1016F0000E94920BCE019F770E945A0C0E940E0C02
:1017000081E0DF91CF9108958091D403811109C0C8
:101710008CE090E00E945E378093D50381E0809357
:10172000D4030895E0910801F0910901808180932C
:101730004E0581FF03C081EE0E949A1C80914E05E8
:1017400085FF03C085EE0E949A1C80914E0580FFA4
:1017500003C080EE0E949A1C80914E0584FF03C056
:1017600084EE0E949A1C80914E0582FF03C082EE97
:101770000E949A1C80914E0586FF03C086EE0E944F
:101780009A1C80914E0583FF03C083EE0E949A1C31
:1017900080914E0587FF03C087EE0E949A1C8091BE
:1017A000D503823001F1A8F48823C9F0813079F59E
:1017B00080EE0E94811B81EE0E94811B88E10E94C5
:1017C000811B88E10E949A1C81EE0E949A1C80EE87
:1017D0001CC0843081F08530D1F486EE01C082EEE9
:1017E0000E94811B14C082EE0E94811B87E50E942B
:1017F000811B87E50AC086EE0E94811B86EE0E944F
:101800009A1C88E10E94811B88E10E949A1C8FE348
:101810009CE90197F1F700C0000008958091D5037D
:10182000813049F030F0823021F0853051F486EE7D
:1018300006C082EE04C08CE20E94811B8CE20E94F2
:101840009A1C80914E0581FF03C081EE0E94811B8E
:1018500080914E0585FF03C085EE0E94811B80911B
:101860004E0580FF03C080EE0E94811B80914E05D3
:1018700084FF03C084EE0E94811B80914E0582FF8D
:1018800003C082EE0E94811B80914E0586FF03C03B
:1018900086EE0E94811B80914E0583FF03C083EE7C
:1018A0000E94811B80914E0587FF03C087EE0C9438
:1018B000811B0895EF92FF921F93CF93DF937C01DA
:1018C000CCE0D0E097010C2E02C0369527950A9403
:1018D000E2F7122F1F70812F0E9420060E94811BA9
:1018E000812F0E9420060E949A1C2497CC3F8FEFE4
:1018F000D80741F7DF91CF911F91FF90EF900895A6
:10190000CF92DF92EF92FF920F931F93CF93DF93CB
:10191000E82FF82F711103C0682F782F7EC0062F93
:1019200010E0C72FD0E0E82EF12CC8016BE270E088
:101930000E94D4369B0145ED4203B001439F700DD8
:101940001124060F171F86E0809FB001819F700D44
:1019500011244FEF50E0CA018C1B9D0B8E9DD001CE
:101960008F9DB00D9E9DB00D11248B2F6C9F80011B
:101970006D9F100D7C9F100D1124012F11276A01FE
:10198000C01AD10ACE9C8001CF9C100DDE9C100D98
:1019900011246A01C61AD70ACC9EB001CD9E700DE3
:1019A000DC9E700D1124672F7727461B570B4E9D29
:1019B000E0014F9DD00D5E9DD00D11247D2F223072
:1019C000310599F04CF421153105C9F0213031056C
:1019D000A1F47E2FE12F13C02330310551F02430C4
:1019E000310559F4ED2F7B2F06C0EB2F8D2F7F2F64
:1019F00006C0712FEB2F8F2F02C07B2F812FF0E0BD
:101A0000E457FC4F6491E72FF0E0E457FC4F7491EA
:101A1000E82FF0E0E457FC4F8491DF91CF911F91C4
:101A20000F91FF90EF90DF90CF90089588E090E0C5
:101A30000C946637AB01BC0188E090E00C948437CD
:101A4000EFE4F5E08FE08083109250058FEF828302
:101A50008383148260817181828193810C941A0D39
:101A6000CF93DF93F9011082AAE1B1E090E02C91CD
:101A7000322F32953F702F7082130AC0631308C053
:101A80002081EA01C20FD11D988320812F5F20831E
:101A90009F5F1496903359F7DF91CF910895E091AD
:101AA0004803F09149030994E0914403F091450300
:101AB0000994E0914603F0914703099440E060E007
:101AC00080E00C94590DEFE4F5E06081862F881FCB
:101AD0008827881F60915005660F682B728183816B
:101AE0000E94800C962F672F482F892F0C94590D38
:101AF000AF92BF92CF92DF92EF92FF920F931F931C
:101B0000CF93DF9360914F05862F881F8827881F0A
:101B100060915005660F682B7091510580915205B8
:101B20000E94800CF62EE72ED82E90914F05991F1B
:101B30009927991F30915005832F880FE82FE92BA3
:101B400037FBFF27F0F9CF018C549F4F68E671E017
:101B50000E94E83670915105682F809152050E94CD
:101B6000800CC62EB72EA82E0AE111E0C0E0D0E00E
:101B7000F801838190819F3F61F080FF04C02A2D8E
:101B80004B2D6C2D03C02D2D4E2D6F2DCE010E949F
:101B9000540D21960C5F1F4FC033D10549F7DF91DB
:101BA000CF911F910F91FF90EF90DF90CF90BF905A
:101BB000AF900895DF92EF92FF920F931F93CF9310
:101BC000DF9380914F05881F8827881F90915005CB
:101BD000492F440F242F282B97FB332730F9C901B5
:101BE0008C549F4F68E671E00E94E836821B930B8D
:101BF0008038910514F09A9505C081384FEF94070D
:101C00000CF4939597FD03969595879595958795F3
:101C1000C82F80915105281B310937FF02C02D5F65
:101C20003F4F3595279535952795D22FD090520562
:101C30009CE1E92E91E0F92E00E010E0F70120810F
:101C400022952F7060914F05962F991F9927991F04
:101C500060915005660F692B2C9F600D11247091C7
:101C600051052D9F700D11248D2D0E94800C472F42
:101C7000282FC8010E94540D0F5F1F4FF4E0EF0E94
:101C8000F11C00331105D1F6DF91CF911F910F9117
:101C9000FF90EF90DF900895AF92BF92CF92DF92C6
:101CA000EF92FF920F931F93CF93DF931F92CDB7C5
:101CB000DEB7D82E20914F05221F2227221F8091A8
:101CC0005005982F990FB22EB92A87FB882780F9E3
:101CD000EB2DF82FCF018C549F4F68E671E00E94E6
:101CE000E8369C012E1B3F0B37FF02C02D5F3F4F94
:101CF0003595279535952795A22EC09051050091D1
:101D000031041091320420913304309134049091C5
:101D10005305992359F0692F70E08AE090E00E9402
:101D2000E836CB01770FAA0BBB0B04C08AE090E02A
:101D3000A0E0B0E080239123A223B323892B8A2B38
:101D40008B2B41F40E944E3760E370E00E94E8362E
:101D5000082F01C00FEFE12CF12C10E0D11003C0CF
:101D6000E016F106A9F40E944E3783706B2D8A9D10
:101D7000600D112469830E944E3769817C2D80910A
:101D800052050E94800C472F282FC7010E94540D36
:101D90008FEFE81AF80A80E3E816F104F9F60F90DD
:101DA000DF91CF911F910F91FF90EF90DF90CF9037
:101DB000BF90AF900895CF92DF92EF92FF921F9362
:101DC000CF93DF938091310490913204A09133043A
:101DD000B09134040090530504C0880F991FAA1FC6
:101DE000BB1F0A94D2F7182F8AE1C82E81E0D82EA3
:101DF000C0E0D0E09FE3E92EF12CF60180818F3F17
:101E0000E1F0FE01EC5AFA4F8081F4E08F9FC001AF
:101E100011248034910524F4B701681B790B02C0AA
:101E200060E070E0610F7FEF809152050E94800CAE
:101E3000472F282FCE010E94540D219624E0C20E78
:101E4000D11CC033D105C9F6DF91CF911F91FF900E
:101E5000EF90DF90CF900895CF92DF92EF92FF92B4
:101E60000F931F93CF93DF938091310490913204AD
:101E7000A0913304B09134040090530504C0880F3E
:101E8000991FAA1FBB1F0A94D2F7D82EC0905205E3
:101E90000AE111E0C0E0D0E08FE3E82EF12CF80178
:101EA00080818F3FF9F0FE01EC5AFA4F2081F4E077
:101EB0002F9F90011124203431052CF4C701821B7F
:101EC000930B9C0102C020E030E0F80161816D0DB0
:101ED000620F7FEF8C2D0E94800C472F282FCE01A0
:101EE0000E94540D21960C5F1F4FC033D105B9F6E7
:101EF000DF91CF911F910F91FF90EF90DF90CF90E6
:101F00000895CF92DF92EF92FF920F931F93CF939A
:101F1000DF938091310490913204A0913304B09109
:101F200034040090530504C0880F991FAA1FBB1FDB
:101F30000A94D2F7D82EC09052050AE111E0C0E011
:101F4000D0E08FE3E82EF12CF80180818F3FF9F08B
:101F5000FE01EC5AFA4F2081F4E02F9F90011124EA
:101F6000203431052CF4C701821B930B9C0102C065
:101F700020E030E0F80162816D0D620F7FEF8C2D63
:101F80000E94800C472F282FCE010E94540D2196CD
:101F90000C5F1F4FC033D105B9F6DF91CF911F9170
:101FA0000F91FF90EF90DF90CF9008952F923F9286
:101FB0004F925F926F927F928F929F92AF92BF9259
:101FC000CF92DF92EF92FF920F931F93CF93DF9305
:101FD0003090510520905205609131047091320487
:101FE00080913304909134040E9449352BED3FE0F9
:101FF00049E450E40E94163620E030E040E05CE323
:102000000E9416366B017C010E949C3420E030E077
:1020100040E05DE30E9416362B013C01C701B6018A
:102020000E94833620E030E040EE52E40E94A1346A
:102030004B015C01CCE1D1E000E010E0688170E090
:1020400080E090E00E944B3520E030E040E052E438
:102050000E942F34A30192010E9416366B017C016D
:10206000FE013197608170E080E090E00E944B3586
:1020700020E030E040EE52E40E942F34A5019401AC
:102080000E9416369B01AC01C701B6010E94303494
:1020900020E030E044E353E40E9416366B017C01FB
:1020A00080914F05881F8827881F90915005292F00
:1020B000220F622F682B97FB772770F9072E000CF1
:1020C000880B990B0E944B359B01AC01C701B601EF
:1020D0000E9430340E941A35732D822D0E94800C8C
:1020E000472F282FC8010E94540D0F5F1F4F2496C1
:1020F0000033110509F0A2CFDF91CF911F910F910D
:10210000FF90EF90DF90CF90BF90AF909F908F9017
:102110007F906F905F904F903F902F9008952F92F7
:102120003F924F925F926F927F928F929F92AF9267
:10213000BF92CF92DF92EF92FF920F931F93CF93B4
:10214000DF93CDB7DEB728970FB6F894DEBF0FBE8A
:10215000CDBF809151058D83909152059E836091F2
:1021600031047091320480913304909134040E94C0
:1021700049352BED3FE049E450E40E94163620E05B
:1021800030E040E05CE30E9416366B017C010E9467
:102190009C342B013C01C701B6010E948336698340
:1021A0007A838B839C83ECE1F1E0F887EF8300E096
:1021B00010E0EF81F88531972080EF81F885B080BD
:1021C00030905305332079F0632D70E080E090E08B
:1021D0000E944B3520E030E040EC5FE30E94163671
:1021E0006B017C0106C0C12CD12C90ECE92E9FE341
:1021F000F92E6B2D70E080E090E00E944B3520E0DE
:1022000030E040E052E40E942F349B01AC01C70152
:10221000B6010E941636A30192010E9416364B01A8
:102220005C01332079F0632D70E080E090E00E9443
:102230004B3520E030E040EC5FE30E9416366B0146
:102240007C0106C0C12CD12C80ECE82E8FE3F82E47
:10225000622D70E080E090E00E944B3520E030E09D
:1022600040EE52E40E942F349B01AC01C701B6013D
:102270000E94163629813A814B815C810E94163674
:102280009B01AC01C501B4010E9430346B017C019B
:1022900080914F05881F8827881F90915005292F0E
:1022A000220F622F682B97FB772770F9072E000CFF
:1022B000880B990B0E944B359B01AC01C701B601FD
:1022C0000E9430340E941A357D818E810E94800CDC
:1022D000472F282FC8010E94540D0F5F1F4F8F8179
:1022E0009885049698878F830033110509F061CF94
:1022F00028960FB6F894DEBF0FBECDBFDF91CF9109
:102300001F910F91FF90EF90DF90CF90BF90AF9013
:102310009F908F907F906F905F904F903F902F9005
:1023200008952F923F924F925F926F927F928F9279
:102330009F92AF92BF92CF92DF92EF92FF920F9354
:102340001F93CF93DF9300D000D01F92CDB7DEB79D
:10235000209151052A83809152058B83609131042D
:102360007091320480913304909134040E94493575
:102370002BED3FE049E450E40E94163620E030E0C7
:1023800040E05CE30E9416366B017C010E949C34A5
:102390002B013C01C701B6010E9483364B015C0151
:1023A000ACE1B1E0BD83AC8300E010E0EC81FD81E5
:1023B0003197B081B983EC81FD8130802090530545
:1023C000222069F0622D70E0660F771F072E000C47
:1023D000880B990B0E944B356B017C0105C0C12C09
:1023E000D12CE12C20E4F22E632D70E080E090E00F
:1023F0000E944B3520E030E040E052E40E942F3450
:102400009B01AC01C701B6010E941636A3019201DF
:102410000E9416366B017C01222021F0312C220C07
:10242000331C03C082E0282E312CF9816F2F70E01D
:1024300080E090E00E944B3520E030E040EE52E436
:102440000E942F340E9413359B0177FF04C022277E
:102450003327261B370B82E490E0821B930B289EC8
:10246000B001299E700D389E700D1124072E000CAE
:10247000880B990B0E944B35A50194010E941636DA
:102480009B01AC01C701B6010E9430346B017C0195
:1024900080914F05881F8827881F90915005292F0C
:1024A000220F622F682B97FB772770F9072E000CFD
:1024B000880B990B0E944B359B01AC01C701B601FB
:1024C0000E9430340E941A357A818B810E94800CE0
:1024D000472F282FC8010E94540D0F5F1F4F8C817A
:1024E0009D8104969D838C830033110509F05ECF96
:1024F0000F900F900F900F900F90DF91CF911F9141
:102500000F91FF90EF90DF90CF90BF90AF909F9092
:102510008F907F906F905F904F903F902F90089595
:102520002F923F924F925F926F927F928F929F92E3
:10253000AF92BF92CF92DF92EF92FF920F931F93D1
:10254000CF93DF9300D01F92CDB7DEB72090510517
:102550008091520589836091310470913204809199
:102560003304909134040E94493520E030E040E883
:102570005BE30E94163620E030E040E653E40E9420
:1025800016362B013C01ECE1F1E0FB83EA8300E02D
:1025900010E0EA81FB8131973080EA81FB81E080A5
:1025A000F0905305FF2079F06F2D70E080E090E00F
:1025B0000E944B3520E030E040EC5FE30E9416368D
:1025C0004B015C0106C0812C912C90ECA92E9FE35D
:1025D000B92E6E2D70E080E090E00E944B3520E037
:1025E00030E040E052E40E942F340E9413359B01FA
:1025F00077FF04C022273327261B370BB901330F7F
:10260000880B990B0E944B359B01AC01C501B401AD
:102610000E9416362EE23DEB4BEB53EB0E94163632
:102620004B015C01FF2079F06F2D70E080E090E0BD
:102630000E944B3520E030E040EC5FE30E9416360C
:102640006B017C0106C0C12CD12C80ECE82E8FE3FD
:10265000F82E632D70E080E090E00E944B35A301DE
:1026600092010E942F349B01AC01C701B6010E9468
:1026700016369B01AC01C501B4010E942F346B01D9
:102680007C0180914F05881F8827881F90915005F5
:10269000292F220F622F682B97FB772770F9072EBF
:1026A000000C880B990B0E944B359B01AC01C701B4
:1026B000B6010E9430340E941A35722D89810E9421
:1026C000800C472F282FC8010E94540D0F5F1F4F09
:1026D0008A819B8104969B838A830033110509F0CC
:1026E00058CF0F900F900F90DF91CF911F910F91C6
:1026F000FF90EF90DF90CF90BF90AF909F908F9022
:102700007F906F905F904F903F902F900895CF9261
:10271000DF92FF920F931F93CF93DF931F92CDB75A
:10272000DEB7F82E00913104109132042091330469
:102730003091340490915305992359F0692F70E03A
:102740008AE090E00E94E836AB01770F660B770BCA
:1027500004C04AE050E060E070E04023512362236F
:102760007323452B462B472B39F40E944E3760E3E9
:1027700070E00E94E83601C08FEF00E010E0C82E44
:10278000D12CF11003C00C151D0581F40E944E37A9
:1027900089830E944E37782F6981809152050E946B
:1027A000800C472F282FC8010E94540D0F5F1F4F28
:1027B0000033110531F70F90DF91CF911F910F91E9
:1027C000FF90DF90CF9008954F925F926F927F922B
:1027D0008F929F92AF92BF92CF92DF92EF92FF9231
:1027E0000F931F93CF93DF9300D0CDB7DEB788232D
:1027F00071F040E060E080E00E94590D84E5E8ED72
:10280000F3E0DF011D928A95E9F71092D70388ED76
:10281000C82E83E0D82EF12CEE24EA9490EDA92E58
:10282000B12C20EC522E3FE2832E912C00E010E0E0
:10283000402E3601600E711E0115110561F4809164
:10284000D703811108C00E944E37853595401CF48E
:10285000F601E08206C0D3019C9191509E3F08F49E
:102860009C939E012F5F3F4FAE014E5F5F4F6F2DD8
:10287000842D0E94300DF3012081EA81213D70F00A
:1028800030E0205D3109529EC001539E900D11240D
:10289000B4010E94D436262F4FEF0AC0FFEF2F9FBE
:1028A000C0011124B5010E94D436462F20E060E01B
:1028B0008E2F90E00E94540D0F5F1F4F0E301105B8
:1028C00009F0B6CFF3942EE0C20ED11C36E0F3121D
:1028D000ADCF8091D7038F5F8D3158F11092D70320
:1028E00080E090E00DE010E04EEFF801E81BF90BFE
:1028F000DF01A852BC4F7D01A5EEB3E0682F611146
:1029000004C02C912F3F09F44C93F70152915F3F83
:1029100019F44083F7015083FEE0EF0EF11C1E9680
:1029200024E0A933B20759F701968D309105E9F6F5
:1029300002C08093D7030F900F90DF91CF911F912A
:102940000F91FF90EF90DF90CF90BF90AF909F904E
:102950008F907F906F905F904F90089508950895A5
:102960000E94AE140C94AF1440914F0540FD0AC074
:102970000E945E0D0E94B01480914F05817080937B
:10298000070108958091D603843120F48F5F8093EE
:10299000D60308958091310490913204A0913304BC
:1029A000B09134040196A11DB11D80933104909320
:1029B0003204A0933304B093340480912D04909199
:1029C0002E04A0912F04B09130048F3F2FEF920777
:1029D000A207B20759F00196A11DB11D80932D04E5
:1029E00090932E04A0932F04B093300480912C0474
:1029F000E4E5F5E090819F3F61F09E3F41F4282F90
:102A000030E02230310514F0815001C080E09F5F3A
:102A10009083319695E0E438F90761F780932C04B0
:102A2000E42FE695EF7380910601E81307C081E07B
:102A300090910701913019F480E001C081E081702C
:102A4000E093060191E0909307014E2F50E0FA01C8
:102A50003197ED30F10550F5E159FF4F0C94FC36FC
:102A60000E94630D23C00E94780D20C00E94D60FE3
:102A70001DC00E94DA0D1AC00E944C0E17C00E94A1
:102A8000DB0E14C00E942C0F11C00E94810F0EC0DB
:102A90000E948F100BC00E94911108C00E949012DA
:102AA00005C00E94871302C00E94E4130C94B01466
:102AB000E0914203F09143030995E4E5F5E08FEFDF
:102AC000819395E0E438F907D9F70E949E26811199
:102AD00004C00E940C270E94200D0E94160D6093D6
:102AE0004F057093500580935105909352056E7772
:102AF00061F40E94200D0E94160D60934F057093A3
:102B0000500580935105909352050895EFE4F5E048
:102B10008081982F909590FB80F9808360817181EE
:102B2000828193810C941A0D90914F05892F86957F
:102B30008F5F8F7391788E3018F4880F892B02C0C5
:102B4000892F826080934F0560914F0570915005E9
:102B500080915105909152050C941A0D90914F055A
:102B6000892F8695815C8F739178882319F0880F5F
:102B7000892B02C0892F8A6180934F0560914F0590
:102B80007091500580915105909152050C941A0D49
:102B900080914F05982F991F9927991F8091500573
:102BA000880F892B90E008968F3F910519F014F05B
:102BB0008FEF90E020914F0580FB27F920934F0580
:102BC000282F2695809150058078822B90FB87F9DD
:102BD0008093500560914F0570915005809151058B
:102BE000909152050C941A0D80914F05982F991FC2
:102BF0009927991F80915005880F892B90E008979D
:102C000097FF02C080E090E08F3F910519F014F02B
:102C10008FEF90E020914F0580FB27F920934F051F
:102C2000282F2695809150058078822B90FB87F97C
:102C30008093500560914F0570915005809151052A
:102C4000909152050C941A0D8091510590E00896D0
:102C50008F3F910519F014F08FEF90E080935105AC
:102C600060914F05709150058091510590915205EA
:102C70000C941A0D8091510590E0089797FF02C0BF
:102C800080E090E08F3F910519F014F08FEF90E015
:102C90008093510560914F057091500580915105C9
:102CA000909152050C941A0D8091520590E008966F
:102CB0008F3F910519F014F08FEF90E0809352054B
:102CC00060914F057091500580915105909152058A
:102CD0000C941A0D8091520590E0089797FF02C05E
:102CE00080E090E08F3F910519F014F08FEF90E0B5
:102CF0008093520560914F05709150058091510568
:102D0000909152050C941A0D8091530590E0019614
:102D10008430910514F083E090E080935305609136
:102D20004F057091500580915105909152050C947A
:102D30001A0D8091530590E0019797FF02C080E043
:102D400090E08430910514F083E090E08093530587
:102D500060914F05709150058091510590915205F9
:102D60000C941A0DEFE4F5E08F73982F990F808182
:102D70008178892B808360817181828193810C9419
:102D80001A0D60914F0566956F7370E080E090E0DA
:102D9000089567E784E70C949E18CF930E94DD188E
:102DA00084E70E94231787E70E942317C0E021E0F1
:102DB00041E061E08C2F0E94B517CF5FC033B9F7B7
:102DC00067E784E7CF910C94B118E4EAF6E06083FA
:102DD000418324E630E042E050E0BF01880F0C94CC
:102DE000B319EF92FF921F93CF93DF937B01182FBC
:102DF000110FC0E0D0E08C2F8C5D8093A40620E002
:102E000030E0F901EC0FFD1FEE0DFF1D8081F9018F
:102E1000EC55F94F81832F5F3F4F2031310589F702
:102E200024E630E041E150E064EA76E0812F0E9440
:102E3000B3196096C039D105F1F6DF91CF911F919A
:102E4000FF90EF900895CF93DF93C82F4BE06DEF85
:102E50000E94E51640E06AE08C2F0E94E5168FE3A1
:102E60009CE90197F1F700C0000040E060E08C2F82
:102E70000E94E51640E061E08C2F0E94E51640E0DC
:102E800066E08C2F0E94E51640E06DEF8C2F0E94CB
:102E9000E516D0E040E06D2F8C2F0E94E516DF5F35
:102EA000D231C1F740E06D2F8C2F0E94E516DF5F15
:102EB000D432C1F740E06D2F8C2F0E94E516DF5F02
:102EC000D43BC1F74BE06DEF8C2F0E94E51641E03B
:102ED0006AE08C2F0E94E51640E06DEF8C2FDF91A9
:102EE000CF910C94E5168033910520F5880F991F3A
:102EF000880F991FFC01E652FE4F52813381808179
:102F000083707181E0E98E9FC00111248C579A4F24
:102F1000FC01E70FF11DB4976083FC01E50FF11D83
:102F2000B4974083830F911DFC01B497208381E007
:102F300080935A040895FF920F931F93CF93DF93CA
:102F4000182F062FF42EC0E0D0E02F2D402F612F38
:102F5000CE010E9473172196C033D105B1F7DF91DE
:102F6000CF911F910F91FF9008954F925F927F92A2
:102F70008F929F92AF92BF92CF92DF92EF92FF9289
:102F80000F931F93CF93DF93362F54E0859FC0019B
:102F90001124FC01E652FE4FA081A3707A2E6181BC
:102FA00070E0CB0184978C0197FF02C0095F1F4F2F
:102FB000A3E015950795AA95E1F7628170E07B0182
:102FC00054E2E51AF108E701F7FC279673E0D5957E
:102FD000C7957A95E1F7638170E04B01E4E28E1AC0
:102FE0009108F40197FC37962F0153E055944794CC
:102FF0005A95E1F768E0A62EB12CB5010E94E8369B
:103000006C01C701B5010E94E8367C01C401B5011D
:103010000E94E836A72DB0E01127DD243323A1F06C
:1030200032E13A9FB0013B9F700D1124060F171F2C
:103030000A5C1B4F61E070E001C0660FCA94EAF7BA
:10304000F8013081632B14C032E13A9FB0013B9FFD
:10305000700D1124060F171F0A5C1B4F61E070E012
:1030600001C0660FCA94EAF76095F80130816323C6
:103070006083DD27FF2432E1442391F03A9FA001D1
:103080003B9F500D1124C40FD51FCA5CDB4F41E09C
:1030900050E001C0440FEA94EAF73881432B12C094
:1030A0003A9FA0013B9F500D1124C40FD51FCA5C4D
:1030B000DB4F41E050E001C0440FEA94EAF740954D
:1030C000388143234883A2015527992792E19A9F8B
:1030D000F0019B9FF00D1124E40FF51FEA5CFB4FFC
:1030E000222361F021E030E0A90102C0440F551F06
:1030F0008A95E2F7CA019081892B0CC021E030E06B
:10310000A90102C0440F551F8A95E2F7CA018095B4
:1031100090818923808381E080933504DF91CF9172
:103120001F910F91FF90EF90DF90CF90BF90AF90E5
:103130009F908F907F905F904F900895CF93909144
:103140005A04992351F0C62F64E875E00E94F116E5
:1031500064E176E08C2F0E94F11610925A04CF9110
:103160000895EF92FF920F931F93CF93DF93909167
:1031700035049923D9F0162F082F86E3E82E84E032
:10318000F82EC0E0D0E0F70141917F016C2F802F35
:103190000E94E516FE01EA5CFB4F42896C2F812FED
:1031A0000E94E5162196C231D10569F7DF91CF91D2
:1031B0001F910F91FF90EF9008951092B9008CE04D
:1031C0008093B8000895EF92FF920F931F93CF93CF
:1031D000DF93182FEB011092BC0084EA8093BC00AF
:1031E0000E940D287C019091BC0097FD0EC0CF3F3E
:1031F0008FEFD807C1F30E940D288E199F098C17F5
:103200009D0788F38EEF9FEF2EC09091B900987FB5
:10321000983041F09091B900987F903119F08FEF7C
:103220009FEF21C01093BB0084E88093BC000E94F4
:103230000D288C019091BC0097FD0CC0CF3F8FEF03
:10324000D807C1F30E940D28801B910B8C179D0796
:1032500088F3D8CF8091B900887F883111F080340D
:10326000F1F680E090E0DF91CF911F910F91FF90F8
:10327000EF9008950F931F93CF93DF93EB0180930B
:10328000BB0084E88093BC000E940D288C019091C3
:10329000BC0097FD0EC0CF3F8FEFD807C1F30E944F
:1032A0000D28801B910B8C179D0788F38EEF9FEFE5
:1032B0000CC02091B900287F81E090E0283211F401
:1032C00080E090E0919581959109DF91CF911F91D8
:1032D0000F9108950F931F93CF93DF93EC0184E830
:1032E0008093BC000E940D288C019091BC0097FD3A
:1032F0000EC0CF3F8FEFD807C1F30E940D28801B6F
:10330000910B8C179D0788F38EEF9FEF03C0809180
:10331000BB0090E0DF91CF911F910F9108950F9323
:103320001F93CF93DF93EC0184E98093BC000E944C
:103330000D288C019091BC0094FF0EC0CF3F8FEF01
:10334000D807C1F30E940D28801B910B8C179D0795
:1033500088F38EEF9FEF02C080E090E0DF91CF9185
:103360001F910F910895CF92DF92EF92FF920F93EA
:103370001F93CF93DF936B017A018901B9010E94FA
:10338000E318FC01892BC9F4E601EC0CFD1CCE15F9
:10339000DF0541F0B80189910E943A19FC01892B9F
:1033A000B1F30BC0C801DF91CF911F910F91FF9036
:1033B000EF90DF90CF900C948F19CF01DF91CF91D8
:1033C0001F910F91FF90EF90DF90CF900895909311
:1033D000600480935F040895E0915F04F0916004BD
:1033E000309721F00190F081E02D099480E008955C
:1033F000E0915F04F0916004309721F00280F38146
:10340000E02D09940895E0915F04F09160043097F5
:1034100021F00480F581E02D0994089520915D0448
:1034200030915E048217930771F090935E0480934D
:103430005D04E0915F04F0916004309721F0068014
:10344000F781E02D0994089520915B0430915C048C
:103450008217930771F090935C0480935B04E09172
:103460005F04F0916004309721F00084F185E02D35
:103470000994089585B7806885BF85B7806885BF42
:10348000089508950E943A1A0C94411A81E0089513
:103490000E9404280E94FE030C949B28CF92DF9286
:1034A000EF92FF920F931F93CF93DF93CDB7DEB7C9
:1034B0002B970FB6F894DEBF0FBECDBF0E947004ED
:1034C0000E94461A811111C08FEF89838A831B8263
:1034D0000E940D288160782F9D838C8349815A81B9
:1034E0006B818D810E94321B56C082E6C82E84E01B
:1034F000D82E00E010E0E02E802F0E94DE04F601BE
:1035000041916F01F42EF82631F40F5F1F4F0E30FA
:10351000110589F7D9CF90911D0591FF04C08B87C4
:103520000E94E4048B8520E030E04F2D50E0922F84
:10353000BA01022E02C0759567950A94E2F760FF02
:1035400024C02E83EF8221E030E0690102C0CC0C60
:10355000DD1C9A95E2F790E08C219D21892B09F4DE
:1035600020E028870E940D288160782F9A8789871C
:103570004E815F8168858A850E94321BF801EE5971
:10358000FB4F8081C826C08206C02F5F3F4F263088
:10359000310569F6BACF0E942E2A109161040E946B
:1035A000EC191817A1F00E94EC19809361042B9676
:1035B0000FB6F894DEBF0FBECDBFDF91CF911F9144
:1035C0000F91FF90EF90DF90CF900C9431062B96E7
:1035D0000FB6F894DEBF0FBECDBFDF91CF911F9124
:1035E0000F91FF90EF90DF90CF900895DC0111963E
:1035F0002C9111978C91682F70E041E050E001C050
:10360000440F8A95EAF712968C91129730E088233E
:1036100029F0809180048823E9F006C0F901E0597F
:10362000FB4F90819423B1F086E0829FF001839F4D
:10363000F00D1124E60FF71FEE0FFF1FE656FD4FAA
:10364000808191818D939C93F901E059FB4F80819A
:10365000482B06C0F901E059FB4F40958081482373
:1036600040830895CF93DF93CDB7DEB72B970FB686
:10367000F894DEBF0FBECDBF942F4F83252F588700
:1036800069877A878B874A855B85452B21F02F3F99
:1036900009F59F3FF9F4DE01119686E0FD011192D4
:1036A0008A95E9F785E0FE01379601900D928A959B
:1036B000E1F749815A816B817C818D819E810E94D5
:1036C000B4222B960FB6F894DEBF0FBECDBFDF91AC
:1036D000CF910895CE0107960E94F61ADCCFFC0127
:1036E000808191810E94802592959F70963041F44F
:1036F0008091800491E089278093800490937F04D7
:103700000895CF93DF931F92CDB7DEB7882309F4D6
:103710000DC1682F8238C1F40E94EC1981FD06C1E9
:1037200069E380910801909109010E946A270E9433
:10373000DF252FEF81EE94E0215080409040E1F7AB
:1037400000C0000069E319C0833811F50E94EC192C
:1037500080FDECC063E580910801909109010E9411
:103760006A270E94DF252FEF81EE94E021508040F0
:103770009040E1F700C0000063E58091080190915E
:1037800009010E9475270F90DF91CF910C94DF25DE
:103790008438C1F40E94EC1982FDC8C067E48091AE
:1037A0000801909109010E946A270E94DF252FEFEE
:1037B00081EE94E0215080409040E1F700C000008D
:1037C00067E4DBCF8CEF860F813A70F4862F698334
:1037D0000E94642C69818111A9C080910801909197
:1037E00009010E946A27CFCF80E2860F883048F413
:1037F000677081E001C0880F6A95EAF70E9415267C
:10380000C2CF8BE5860F833088F4653A29F0663A9B
:1038100031F083E890E005C081E890E002C082E8E2
:1038200090E00F90DF91CF910C940E1A88E5860FEF
:10383000853108F071C0683A61F1693A69F16A3A14
:1038400071F16B3A79F16C3A81F16B3B89F16C3B28
:1038500091F16D3A99F1603BA1F16E3AA9F16F3A9D
:10386000B1F1613BB9F1623BC1F1633BC9F1643B2A
:10387000D1F1653BD9F1663BE1F1673BE9F1683B8A
:10388000F1F1693BF9F16A3B09F43FC080E090E057
:103890003EC082EE90E03BC089EE90E038C08AEEF8
:1038A00090E035C085EB90E032C086EB90E02FC011
:1038B00083EB90E02CC084EB90E029C087EB90E094
:1038C00026C08CEC90E023C08DEC90E020C083E813
:1038D00091E01DC08AE891E01AC082E991E017C02A
:1038E00084E991E014C081E292E011C083E292E0A9
:1038F0000EC084E292E00BC085E292E008C086E24E
:1039000092E005C087E292E002C08AE292E00F9066
:10391000DF91CF910C94241A603F40F0862F0E94D3
:1039200036290F90DF91CF910C94232A0F90DF91CD
:10393000CF910895882309F464C0823879F40E94F5
:10394000EC1981FF5EC069E3809108019091090143
:103950000E946A270E94DF2569E310C08338B1F412
:103960000E94EC1980FF4DC063E5809108019091A1
:1039700009010E946A270E94DF2563E58091080102
:10398000909109010E9475270C94DF25843879F401
:103990000E94EC1982FF35C067E480910801909184
:1039A00009010E946A270E94DF2567E4E7CF9CEFA8
:1039B000980F913A10F4682FE1CF90E2980F983069
:1039C00050F4877091E001C0990F8A95EAF7892F2A
:1039D0000E941B26D9CF9BE5980F933020F480E0FE
:1039E00090E00C940E1A98E5980F953120F480E041
:1039F00090E00C94241A803F20F00E949E290C94A1
:103A0000232A0895882321F00E9415260C94DF258F
:103A10000895882321F00E941B260C94DF25089529
:103A20008F929F92AF92BF92DF92EF92FF920F938D
:103A30001F93CF93DF937C01D62FC72FFC01058105
:103A400002950F70128111110E9432260E94D82512
:103A5000882379F0112369F080E28D0F883048F0D7
:103A600082E00E94C1250E94D82591E0D82ED92657
:103A700001C0D12CAC2EA2948FE0A822B12CF5016C
:103A8000E458FF4F0C94FC368C2F807FCF70882336
:103A900011F0C295C07F112399F0CC2309F4C8C15D
:103AA00080E28D0F883010F0D11104C08C2F0E945D
:103AB000152603C08C2F0E9425260E94DF25B8C141
:103AC0008D2F0E949A1CCC2309F42EC280E28D0F08
:103AD000883010F0D11104C08C2F0E941B2603C027
:103AE0008C2F0E942B260E94DF251EC28C2F807FE8
:103AF000CF70803211F0C295C07FDD2319F0D13034
:103B0000C9F021C0112371F0002341F0013031F4DC
:103B10000E944B268C2B0E94452606C20E944B26F3
:103B20008C2B3FC1002319F0013009F4FDC10E9424
:103B3000482611C0112321F0023008F0F5C107C05A
:103B40000111F2C108C0112321F0011171C18C2FA4
:103B500028C101117EC18C2F2AC18C2F8695869594
:103B6000837090E0009719F0019761F0DDC1112397
:103B700021F08D2F9C2F937002C080E090E00E9476
:103B80000E1AE2C1112321F08D2F9C2F937002C0D9
:103B900080E090E00E94241AD7C11123F9F0D53FAC
:103BA00051F0D63F71F0D43FA9F48091B8069091BE
:103BB000B90681600BC08091B8069091B906826009
:103BC00005C08091B8069091B90684609093B906BB
:103BD0008093B8068D2F0E9436291EC0D53F51F024
:103BE000D63F71F0D43FA9F48091B8069091B90600
:103BF0008E7F0BC08091B8069091B9068D7F05C06D
:103C00008091B8069091B9068B7F9093B906809306
:103C1000B8068D2F0E949E290E94232A95C18C2FC1
:103C2000837009F050C011118BC18D2F829586953C
:103C30008770880F880F9D2F9F70892E912CA12C43
:103C4000B12C082E04C0880C991CAA1CBB1C0A9419
:103C5000D2F7D4FF14C00FE010E020E030E0B9014B
:103C6000A80104C0440F551F661F771F8A95D2F71D
:103C7000CB01BA01609570958095909503C060E086
:103C800070E0CB01C695C695C370D0E0C230D105B7
:103C900061F0C330D10581F0682979298A299B29EF
:103CA000219771F00E94F9234BC1682979298A294B
:103CB0009B290E940B2444C10E94F923C501B40131
:103CC0000E94E7233DC1112319F08C2F817001C0A0
:103CD0008695882309F434C18D2F82958695877047
:103CE000880F880F9D2F9F70892E912CA12CB12CAD
:103CF000082E04C0880C991CAA1CBB1C0A94D2F77D
:103D0000D4FF14C00FE010E020E030E0B901A801BA
:103D100004C0440F551F661F771F8A95D2F7CB0149
:103D2000BA01609570958095909503C060E070E051
:103D3000CB01C695C695C3704C2F50E0423051055B
:103D400069F04330510589F0682979298A299B292E
:103D50004130510571F00E94BF24F2C068297929D1
:103D60008A299B290E94D124EBC00E94BF24C5014F
:103D7000B4010E94AD24E4C08D2F90E0FC01E05E10
:103D8000F109E531F10508F04FC0E457FF4F0C94FD
:103D9000FC36DF708C2F8F71112331F00E94462486
:103DA0008D2F0E94021DC0C00E9467248D2F0E948B
:103DB000091DBAC0112339F00111B6C08C2F8F71C3
:103DC0000E948C24B1C0023008F0AEC0F7CF11239E
:103DD00039F08C2F8F710E944624A6C01123C9F39D
:103DE0008C2F8F710E9467249FC0112329F08C2F84
:103DF0008F710E94312498C00E942C2495C01123F9
:103E000049F0CF718C2F0E94462463E08C2F0E94D2
:103E1000B8258AC081E00E94C125023008F484C020
:103E200082E00E94C12580C0112331F0002389F275
:103E30008D2F0E94811B78C0002391F2D93349F461
:103E40005FEF67EE73E0515060407040E1F700C0F3
:103E500000008D2F0E949A1C67C04C2F4F706D2F51
:103E6000C7010E94CE050E9458236EC0D23FB1F018
:103E700028F4D03F49F0D13FF9F028C0D43FB9F041
:103E800058F0D53F71F022C0112309F447C090913A
:103E9000800481E0892708C081E0182710938004FE
:103EA0003DC011113BC081E08093800437C01111E7
:103EB00035C01092800432C0112329F080917F0414
:103EC000882329F329C0002311F328C080917F049F
:103ED0000023C1F0882341F09091800481E089277C
:103EE0008093800410927F048D2F112319F00E947B
:103EF000811B14C00E949A1C86E0F70111928A95DA
:103F0000E9F70CC0882351F0111108C0909180048A
:103F100081E089278093800410927F044C2F4F709A
:103F20006D2FC7010E940109F8E0AF16B10441F0FE
:103F30005CF04AE0A41AB10852E0A516B10420F4DE
:103F40000E94EC190E943106DD20E1F00E94B425A8
:103F500080FD18C0F70112820E94AE250E944624FF
:103F6000C7010E94CE1F0E94AE25DF91CF911F9105
:103F70000F91FF90EF90DF90BF90AF909F908F9048
:103F80000C946724DF91CF911F910F91FF90EF90D8
:103F9000DF90BF90AF909F908F9008950F931F93E5
:103FA000CF93DF93EC01888199812B813C81232B76
:103FB000B9F09F3F11F48F3F99F0CE010E94430664
:103FC000882371F0688179818A810E948B258C0118
:103FD0000E94E3240E94E423B801CE010E94101D38
:103FE000DF91CF911F910F9108950E9432260E9478
:103FF000422680910801909109010E9480270E9429
:10400000DF250E94C92A0E94232A80E090E00E94B6
:104010000E1A80E090E00C94241A0E9422260C9440
:10402000F51F0E948025E92FE295EF70F0E03297AE
:10403000EE30F105B0F4EF55FF4F0C94FC36803FA5
:1040400091F018F4803E68F40EC0843F51F40BC028
:10405000803E48F0813F29F406C093FB882780F911
:10406000089580E0089581E00895CF93DF9300D014
:1040700000D01F92CDB7DEB70F900F900F900F902A
:104080000F90DF91CF910895CF93DF9300D000D0B0
:1040900000D0CDB7DEB726960FB6F894DEBF0FBEC0
:1040A000CDBFDF91CF9108951F93CF93DF93C09140
:1040B000810416E080918204C81799F0D0E01C9F1B
:1040C000F0011D9FF00D1124ED57FB4F40815181F0
:1040D00062817381848195810E9444202196C770FA
:1040E000E9CFDF91CF911F9108954091B304509192
:1040F000B4046091B5047091B6048091B7049091B6
:10410000B8040C9444208091B80482958F7009F013
:1041100054C08091B504882309F44FC08091810474
:10412000A09182046091B3047091B4044091B604EC
:104130005091B704B6E08A1709F43FC090E04115EA
:104140005105C1F17F3F11F46F3FA1F1B89FF0011C
:10415000B99FF00D1124ED57FB4F218172132AC036
:104160002081621327C02281211124C02381348140
:104170002417350710F421503109241B350B283C36
:104180003105C0F42091B8042F7020612093B80449
:1041900026E0289FF001299FF00D1124E857FB4FDE
:1041A00080818F708061808383EB94E00E94CE1FBA
:1041B0000C94542001968770BECF0895CF92DF9261
:1041C000EF92FF920F931F93CF93DF93CDB7DEB79C
:1041D00062970FB6F894DEBF0FBECDBF8C0185E0AD
:1041E000F801DE011D9601900D928A95E1F7D80144
:1041F0004C9111965C91119712966C9112971396AF
:10420000CD90DC9014973091B3047091B4048091F8
:10421000B6049091B704009709F46BC17F3F19F47D
:104220003F3F09F466C1E090B504EE2009F4C0C038
:104230002091B804C816D90628F0F601E81BF90B3E
:10424000CF0104C0809590958C0D9D1DFF24F394A3
:10425000883C910578F0F12C207F09F0C6C07C2DB8
:10426000D98AC88A89890E94352083EB94E00E940C
:10427000CE1FB1C0822F807F09F046C0751314C0D5
:10428000341312C0611110C02F7020612093B80444
:104290000E94752083EB94E00E94CE1F8091B804A9
:1042A000D80115968C932EC0CD2819F15F3F11F4DB
:1042B0004F3FF9F0F62E61111CC0809181042091CE
:1042C000820436E0821709F45AC090E0389FF0016A
:1042D000399FF00D1124ED57FB4F7181571306C024
:1042E0007081471303C07281711103C001968770FA
:1042F000E9CFF62E662309F427C18091B8048160C6
:104300008093B804F12C20C1751308C0341306C083
:10431000611104C08091B804D801C3C04D875E8785
:104320008D859E856A8B0E9411206A898823E1F120
:104330006623D1F12091B804822F82958F7090E08E
:10434000029774F08091B3049091B40498878F839E
:104350001986DB86CA862C87CE0107960E94CE1F5F
:1043600086E0F801A3EBB4E001900D928A95E1F7A5
:104370000E9483200E947520FF24F394E5C04D879E
:104380005E878D859E850E948025292F22952F701E
:1043900030E0223031050CF0CBC09F7009F0C5C071
:1043A000805E883008F4D0C0C8010E94CE1FE4CFE0
:1043B000C816D90608F453C0F601E81BF90BCF0163
:1043C000883C910508F450C0F12C7C2DD98AC88A0C
:1043D00089890E943520E3EBF4E086E0DF011D923D
:1043E0008A95E9F70E947520AFC0751314C0341385
:1043F00012C0611110C08091B804F8018583C80112
:104400000E94CE1F86E0E3EBF4E0DF011D928A9567
:10441000E9F7FE2C99C04D875E878D859E856A8B56
:104420000E9411206A89882309F4BECF662309F40B
:10443000BBCF2091B804822F82958F7090E00297B5
:104440000CF48ECF8091B3049091B4049A83898345
:104450001B82DD82CC822E83CE0101967FCF809598
:1044600090958C0D9D1DACCFF62E662309F49CCF44
:1044700075132EC034132CC02091B80420FD1FC02A
:10448000822F82958F70D9F0D80115962C931597AD
:104490008F3049F08F5F982F9295907F822F8F7089
:1044A000892B15968C93C8010E94CE1F86E0F801D7
:1044B000A3EBB4E001900D928A95E1F793CF86E0EB
:1044C000F801A3EBB4E001900D928A95E1F73CC0AE
:1044D0004D875E878D859E850E941120811140CF7A
:1044E0008091B80481608093B804C8010E94CE1FF7
:1044F0002BC0662309F458CF4D875E878D859E8536
:104500000E941120F82E882309F44ECF86E0F8018E
:10451000A3EBB4E001900D928A95E1F783EB94E070
:104520000E946F1B0E9483205DCF811139CF0CC088
:10453000243031050CF038CF9F7009F431CFF801E9
:104540009581907F09F02CCF8F2D62960FB6F8944D
:10455000DEBF0FBECDBFDF91CF911F910F91FF90B6
:10456000EF90DF90CF9008951F93CF93DF93CDB757
:10457000DEB72C970FB6F894DEBF0FBECDBF4F83CA
:10458000588769877A878B879C87CE0107960E9418
:10459000DE20882369F08F8198852A853B85232B2F
:1045A000F1F19F3F09F063C08F3F09F060C037C051
:1045B00086E0FE013796DE01119601900D928A95F4
:1045C000E1F76F817885EA85FB85309741F17F3F80
:1045D00011F46F3F21F12091820430E0C90101966E
:1045E000877099274091810450E08417950709F45A
:1045F00047C069837A83FD83EC8396E0929FD00164
:10460000939FB00D1124AD57BB4FFE013196019021
:104610000D929A95E1F7809382040E94542016E04F
:1046200080918104909182048917C1F1189FC00183
:1046300011248D579B4F0E94DE20882379F1E09151
:1046400081041E9FF0011124ED57FB4F40815181E1
:1046500062817381848195810E94442080918104CC
:1046600090E001968770992780938104D9CF4F817C
:10467000588569857A858B859C850E944420CFCF9B
:104680000E940D201092820410928104E3EBF4E06A
:1046900086E0DF011D928A95E9F7C1CF2C960FB60F
:1046A000F894DEBF0FBECDBFDF91CF911F9108956B
:1046B000EF92FF920F931F93CF93DF938C01892B7F
:1046C00009F46CC0F12CEE24E394E8012196F80182
:1046D0008491843740F4843008F051C0813081F0F7
:1046E000823019F15BC0853709F444C0A8F19CE71A
:1046F000980F903708F052C08F770E949A1C41C0E3
:104700000E5F1F4FFE01C49180E28C0F883048F489
:10471000C7708E2D01C0880FCA95EAF70E94352612
:1047200014C08C2F0E94811B2DC00E5F1F4FFE01F5
:10473000C49180E28C0F883058F4C7708E2D01C070
:10474000880FCA95EAF70E943B260E94DF251AC00F
:104750008C2F0E949A1C16C00E5F1F4FFE01C49141
:10476000CC2381F08FE99FE00197F1F700C00000B2
:10477000C150F6CF0E5F1F4FFE01F49003C00E94A0
:10478000811B8E018F2D882309F49FCFEFE9FFE075
:104790003197F1F700C000008150F5CFDF91CF9144
:1047A0001F910F91FF90EF90089508950C94D523D9
:1047B0000E94D6236093F4047093F5048093F6046A
:1047C0009093F7040C94F51F08950C94D8230F933D
:1047D0001F930091F4041091F5042091F604309198
:1047E000F704602B712B822B932B1F910F910C944C
:1047F000D8230F931F930091F4041091F504209196
:10480000F6043091F70460237123822393231F91D0
:104810000F910C94D8230F931F930091F4041091DF
:10482000F5042091F6043091F70460277127822760
:1048300093271F910F910C94D82308950C941D2455
:104840000E941E246093F0047093F1048093F2049C
:104850009093F3040C94F51F60E070E0CB010C948E
:1048600020240F931F9341E050E060E070E08A0144
:104870009B0104C0000F111F221F331F8A95D2F71E
:10488000C901B8011F910F910C9420240F931F931D
:1048900041E050E060E070E004C0440F551F661F27
:1048A000771F8A95D2F78091F0049091F104A0913E
:1048B000F204B091F3048A019B01082B192B2A2BD7
:1048C0003B2BC901B8011F910F910C9420240F9329
:1048D0001F9341E050E060E070E004C0440F551FBA
:1048E000661F771F8A95D2F7409550956095709511
:1048F0008091F0049091F104A091F204B091F3043E
:104900008A019B01082319232A233B23C901B801EB
:104910001F910F910C9420240F931F9341E050E0BE
:1049200060E070E004C0440F551F661F771F8A9532
:10493000D2F78091F0049091F104A091F204B0912B
:10494000F3048A019B01082719272A273B27C9015D
:10495000B8011F910F910C9420240F931F93009185
:10496000F0041091F1042091F2043091F304602BD3
:10497000712B822B932B1F910F910C9420240F935A
:104980001F930091F0041091F1042091F2043091F2
:10499000F30460237123822393231F910F910C94BE
:1049A00020240F931F930091F0041091F1042091A3
:1049B000F2043091F30460277127822793271F9117
:1049C0000F910C9420240895292F220F920F990FF4
:1049D000890FA82FA695A695A695877051E001C0CE
:1049E000550F8A95EAF785E0A89FD001112420E0B1
:1049F00030E070E0F901EA0FFB1FE754FB4F408104
:104A0000CB01022E02C0969587950A94E2F7817039
:104A10009927819584278523842780832F5F3F4FA3
:104A20002530310539F70895292F220F920F990F5C
:104A3000890F682F669566956695982F977085E023
:104A4000689FB001112440E050E080E0FA01E60FD9
:104A5000F71FE754FB4F208130E0092E02C0369546
:104A600027950A94E2F721703327042E01C0220F04
:104A70000A94EAF7822B4F5F5F4F4530510531F7BB
:104A80000895CF92DF92EF92FF920F931F93CF93EF
:104A9000DF938C01C090F404D090F504E090F6040C
:104AA000F090F7048091F0049091F104A091F20449
:104AB000B091F304C82AD92AEA2AFB2ACFE1D0E030
:104AC000D701C6010C2E04C0B695A795979587957A
:104AD0000A94D2F780FF06C0B8018C2F0E941C09EF
:104AE000019721F4219760F780E001C08C2FDF91BE
:104AF000CF911F910F91FF90EF90DF90CF9008958D
:104B0000CF93DF93EC010E944125BE010E941C0956
:104B1000DF91CF9108951F93CF93DF93EB01909195
:104B20007E04992321F0CB010E94802513C08823A5
:104B300049F0CB010E944125182F682FCE010E9419
:104B4000E42404C0CB010E941425182FBE01812F3C
:104B50000E941C09DF91CF911F9108958091F80464
:104B600085958595859508958091F80487700895B9
:104B700098E0899F90011124262B2093F8040C942F
:104B800046242091F804809582238093F804982F7E
:104B9000977069F430E0482F082E000C550B24174D
:104BA000350729F08595859585950C94672408959A
:104BB0009091F804977081E009F480E00895E09105
:104BC0000801F091090180911C058083E0910801A2
:104BD000F0910901908180911B05892B8083E091E0
:104BE0000801F0910901908180911A05892B808339
:104BF0008091F904882381F0E0910801F091090186
:104C00009081892B808380910801909109010E94F5
:104C10000E2781111092F9048091080190910901E9
:104C20000C94F81980911C05089590911C05892B0E
:104C300080931C050895809590911C05892380938D
:104C40001C05089510921C05089590911B05892B51
:104C500080931B050895809590911B05892380936F
:104C60001B05089510921B05089590911A05892B34
:104C700080931A050895809590911A058923809351
:104C80001A05089510921A0508958093F90408955D
:104C90001092F90408958091F9040895CF92DF925B
:104CA000EF92FF926C01EE24FF24C114D104E104C1
:104CB000F10421F0C701B60120E101C020E0C72EB8
:104CC000D82EE92EFF24C114D104E104F10419F017
:104CD000285FC701B6016B017C0154E0F694E794AC
:104CE000D794C7945A95D1F7C114D104E104F104C3
:104CF00019F02C5FC701B6016B017C0142E0F6940C
:104D0000E794D794C7944A95D1F7C114D104E1042C
:104D1000F10419F02E5FC701B601DC01CB01B69595
:104D2000A79597958795892B8A2B8B2B09F02F5F59
:104D3000822FFF90EF90DF90CF90089580E090E079
:104D40000E946C3721E08D3E9E4F09F020E0822FBB
:104D5000089582E090E00C945E3783E090E00C943C
:104D60005E3784E090E00C945E37682F84E090E03A
:104D70000C947237AB01BC018FE090E00C94843747
:104D8000AB01BC0183E190E00C94843760E070E0FB
:104D9000CB010C94C02660E070E0CB010E94BA26E3
:104DA0000C94C6266DEE7EEF80E090E00E94903776
:104DB00060E082E090E00E94723760E083E090E083
:104DC0000E9472371092F4041092F5041092F604C7
:104DD0001092F70460E084E090E00E94723760E097
:104DE00085E090E00E94723760E086E090E00E94EB
:104DF00072376FEF87E090E00E94723740E050E03A
:104E0000BA0188E090E00E94843760E08DE090E095
:104E10000E9472370C94CB260C94D226FC0131965A
:104E20009C01205E3F4F80E0919191118F5FE217CE
:104E3000F307D1F708959C01FC0132969FEF80E0C3
:104E40004191461789F09F3F19F4411101C0982FF5
:104E50008F5F8E31A9F79F3F39F0F901E90FF11DFE
:104E600097FDFA95628308950895FC013296809625
:104E70002081261301C010823196E817F907C1F787
:104E80000895262F2695269526952F3168F4FC0146
:104E9000E20FF11D677021E030E001C0220F6A953A
:104EA000EAF78181282B21830895262F26952695C0
:104EB00026952F3170F4FC01E20FF11D677021E09F
:104EC00030E001C0220F6A95EAF7209581812823FE
:104ED0002183089520911901222329F02091BE06F3
:104EE00027FD0C9441270C941B27209119012223A4
:104EF00029F02091BE0627FD0C9455270C943527E8
:104F0000FC01319680961192E817F907E1F70895B0
:104F100008950C9488270E9489278091C4068430C4
:104F200049F110921E0520E488E190E00FB6F89454
:104F3000A895809360000FBE2093600080E00E94DF
:104F400031060E94892783B7817F846083BF83B73E
:104F5000816083BF7894889583B78E7F83BF0FB6B7
:104F6000F894A89580916000886180936000109209
:104F700060000FBE08950895CF930E9420040E9400
:104F800070040E94BB27C0E08C2F0E94DE048111B8
:104F900004C0CF5FCE30C1F701C081E0CF9108954A
:104FA00008950C94D0270E940D200E94EC190E94B5
:104FB00031060C94D1271F920F920FB60F92112435
:104FC0008F939F93AF93BF9380911E05811113C060
:104FD0008091BA069091BB06A091BC06B091BD0627
:104FE0004196A11DB11D8093BA069093BB06A09374
:104FF000BC06B093BD06BF91AF919F918F910F906A
:105000000FBE0F901F90189582E084BD93E095BD70
:105010009AEF97BD80936E0008952FB7F894809112
:10502000BA069091BB06A091BC06B091BD062FBFF9
:105030000895CF92DF92EF92FF920F931F932FB7B5
:10504000F8944091BA065091BB066091BC067091ED
:10505000BD062FBF6A017B01EE24FF248C0120E0F6
:1050600030E0C016D106E206F30610F441505109B3
:105070009A01281B390BC9011F910F91FF90EF90E6
:10508000DF90CF90089578941F920F920FB60F92F1
:1050900011248F939F93AF93BF938091BA06909101
:1050A000BB06A091BC06B091BD060196A11DB11D25
:1050B0008093BA069093BB06A093BC06B093BD063E
:1050C000BF91AF919F918F910F900FBE0F901F9046
:1050D0001895F89481E08093E00080E28093D800F6
:1050E000E9ECF0E010828FE19EE40197F1F700C057
:1050F00000001DBA109268001CBC10BE1FBA1092AE
:105100007A0010926E0010926F001092710010924F
:1051100072001082ECEBF0E0108214B817B81AB8E5
:105120001DB810BA108215B818B81BB81EB811BA3D
:105130000C94003F08950E949E26811102C00E9497
:105140000C270E94A92680931D050E94B12690E09D
:105150009093BF068093BE060E94AD26682F70E034
:1051600080E090E00C94E5238091220580FF0BC045
:1051700060910D0185E0689FB001112475956795D8
:10518000759567952BC081FF09C060910D0185E081
:10519000689FB00111247595679520C082FF07C0F4
:1051A00060910D0185E0689FB001112417C09091B6
:1051B00023059923D1F060910C01961788F720916F
:1051C0000D0185E0289F90011124929FA001939FDB
:1051D000500D112470E0CA010E94E8366038710554
:1051E00040F46115710539F002C065E070E0862F6A
:1051F00008958FE7089581E008958091220580FF4A
:1052000008C060910B0170E075956795759567957D
:1052100021C081FF06C060910B0170E07595679514
:1052200019C082FF04C060910B0170E010C0909122
:1052300023059923C1F060910A019617A0F7809188
:105240000B01899FC001112470E00E94E83660388C
:10525000710528F46115710521F0862F08958FE7F7
:10526000089581E0089561E070E0F4CF803F21F47B
:105270000E94B428819504C0813F29F40E94B4287B
:10528000809326050895823F21F40E94B4288195D9
:1052900004C0833F29F40E94B42880932505089513
:1052A000893F19F40E94FD2805C08A3F31F40E940D
:1052B000FD2881958093270508958B3F21F40E9456
:1052C000FD28819504C08C3F29F40E94FD2880931D
:1052D00028050895843F21F480912405816017C03A
:1052E000853F21F480912405826011C0863F21F41E
:1052F0008091240584600BC0873F21F480912405B0
:10530000886005C0883F31F48091240580618093D6
:10531000240508958D3F21F48091220581600BC002
:105320008E3F21F480912205826005C08F3F29F4D1
:10533000809122058460809322050895803F39F48E
:105340008091260587FF6CC01092260569C0813FB9
:1053500029F4809126051816BCF362C090912505AA
:10536000823F29F497FF5CC01092250559C0833F06
:1053700019F41916CCF354C0893F41F480912705E4
:1053800018160CF04DC0109227054AC08A3F29F428
:105390008091270587FF44C0F6CF8B3F39F4809179
:1053A000280587FF3DC0109228053AC08C3F29F49C
:1053B000809128051816BCF333C0843F21F48091F6
:1053C00024058E7F17C0853F21F4809124058D7FB1
:1053D00011C0863F21F4809124058B7F0BC0873F4D
:1053E00021F480912405877F05C0883F31F48091A6
:1053F00024058F7E8093240513C08D3F21F4809176
:1054000022058E7F0BC08E3F21F4809122058D7F77
:1054100005C08F3F29F4809122058B7F8093220560
:105420008091250581110EC08091260581110AC049
:1054300080912705811106C080912805811102C045
:1054400010922305089584E295E00E94031A0E94B9
:105450000D289093200580931F0508951F93CF93E7
:10546000DF9380911F05909120050E941928AC01BF
:1054700090912305992321F020910E0130E006C080
:10548000209121058AE0289F90011124421753079B
:1054900008F47BC080912505C0912605D091270591
:1054A00010912805811107C0C1116BC0D11169C0CD
:1054B000111167C06AC09F3F19F09F5F9093230549
:1054C000181624F40E94B4288093250580912505A0
:1054D00087FF05C00E94B4288195809325051C167E
:1054E00024F40E94B428809326058091260587FF26
:1054F00005C00E94B428819580932605309125052A
:105500003323E1F0209126052223C1F045EB34033B
:10551000C0011124892F990F990B009709F481E09C
:105520008093250535EB2303C0011124892F990FA2
:10553000990B009709F481E0809326051D1624F449
:105540000E94FD28809327058091270587FF05C0CD
:105550000E94FD28819580932705111624F40E944E
:10556000FD28809328058091280587FF05C00E94AB
:10557000FD28819580932805DF91CF911F910C9490
:10558000232A9F3F09F099CFA1CFDF91CF911F919F
:105590000895E4E2F5E085E0DF011D928A95E9F7E0
:1055A00010922305109222050895833081F128F48A
:1055B000813059F08230D1F00895853009F449C026
:1055C000B8F1863009F456C0089580912105262F40
:1055D00030E0280F311D2F3F310524F4680F609310
:1055E000210508958FEF80932105089580910E0184
:1055F000262F30E0280F311D2F3F310524F4680F8E
:1056000060930E0108958FEF80930E0108958091AD
:105610000D01262F30E0280F311D2F3F310524F4D6
:10562000680F60930D0108958FEF80930D01089529
:1056300080910C01262F30E0280F311D2F3F3105BE
:1056400024F4680F60930C0108958FEF80930C0190
:10565000089580910B01262F30E0280F311D2F3F38
:10566000310524F4680F60930B0108958FEF809348
:105670000B01089580910A01262F30E0280F311D7B
:105680002F3F310524F4680F60930A0108958FEFCE
:1056900080930A010895833011F128F4813049F094
:1056A000823091F00895853081F120F18630C1F18A
:1056B000089580912105681720F4861B80932105A9
:1056C000089510922105089580910E01681720F425
:1056D000861B80930E01089510920E01089580910B
:1056E0000D01681720F4861B80930D010895109218
:1056F0000D01089580910C01681720F4861B80939A
:105700000C01089510920C01089580910B01681707
:1057100020F4861B80930B01089510920B010895CD
:1057200080910A01681720F4861B80930A0108956E
:1057300010920A0108950F931F93873208F04DC00D
:105740008E3108F093C0803109F47DC008F58730B0
:1057500009F46BC068F4863009F0A3C080911D0580
:10576000817F8E7F80931D0581E080932A059AC0FA
:105770008B3009F48FC08E3009F093C080911D05E5
:1057800082FB222720F991E0922790FB82F964C0E6
:10579000863109F47FC088F4813109F082C00E940B
:1057A0000D208091BE0687FB222720F991E09227E9
:1057B00090FB87F98093BE066DC0893109F46AC0F9
:1057C0008B3109F06EC080911D0581FB222720F9E5
:1057D00091E0922790FB81F93FC0883309F45AC0C9
:1057E00050F4893209F458C0853309F455C0873222
:1057F00009F452C056C0833409F44EC028F48A33E9
:1058000008F44FC0895333C0883409F04AC00E945D
:105810000D200FEF13ED20E3015010402040E1F781
:1058200000C000000E94692835C080911D05982F96
:105830009095917090FB80F980931D0591112AC07D
:10584000897F877F10C080911D0583FB222720F967
:1058500091E0922790FB83F980931D059923D1F065
:1058600080911D05816080931D0514C08D5141E01C
:1058700050E060E070E08A019B0104C0000F111F3E
:10588000221F331F8A95D2F7C901B8010E94E52370
:105890000E940D2081E006C061E070E080E090E0B1
:1058A000F5CF80E01F910F91089580E0089580E08A
:1058B00008958E518A3030F4E82FF0E0E65BFC4F1B
:1058C0008081089580E00895CF93C82F80912A05A4
:1058D000813079F018F08230E9F185C0E09108015B
:1058E000F09109018081813169F0823209F07DC037
:1058F00009C0E0910801F09109018081813111F026
:10590000823261F48C2F0E94552C811104C08C2F9F
:105910000E949B2B1DC081E090E01AC08C2F0E943A
:10592000572C811114C0C43179F048F4CB3079F090
:10593000C03109F05EC082E080932A0508C0C932F8
:1059400019F0C83321F055C010922A0552C081E0E9
:10595000817051C0C93279F108F5C43161F1A0F408
:10596000C73009F044C01092210584E180930E01F4
:10597000C0930D018CE380930C0188E080930B01B0
:1059800088E280930A0133C082EE8C0F863078F56E
:105990008C2F0E94592C8093290529C0CE34E9F020
:1059A00020F4CB3421F56AE013C0C13579F0C2355B
:1059B000F1F461E00DC080912905882319F010925F
:1059C000290515C081E080932A0515C061E006C055
:1059D000809129050E94D52A0AC06AE08091290594
:1059E0000E944B2B04C010922A0580E004C081E085
:1059F00002C080E0ADCFCF91089580914B0508950E
:105A00000F931F93CF93DF9300D01F92CDB7DEB7D4
:105A10008C010E94762F823011F0843019F593E0CA
:105A200099831B830A839093E9008FEF9091E8009C
:105A3000815095FD06C095ED9A95F1F70000811112
:105A4000F5CF8091E80085FF0DC040E050E063E0B5
:105A500070E0CE0101960E94932F8091E8008E772E
:105A60008093E8000F900F900F90DF91CF911F91DE
:105A70000F910895CF93DF9300D01F92CDB7DEB77B
:105A80002091C406243031F522E029838058910901
:105A90009B838A8383E08093E9008FEF9091E800F5
:105AA000815095FD06C095ED9A95F1F700008111A2
:105AB000F5CF8091E80085FF0DC040E050E063E045
:105AC00070E0CE0101960E94932F8091E8008E77BE
:105AD0008093E8000F900F900F90DF91CF91089581
