:100000000C9436030C9453030C9453030C94530335
:100010000C9453030C9453030C9453030C94530308
:100020000C9453030C9453030C94252C0C94F72C30
:100030000C945B220C9453030C9453030C945303C1
:100040000C9453030C9453030C9453030C945303D8
:100050000C9453030C94C3220C9453030C94530339
:100060000C9453030C9453030C9453030C945303B8
:100070000C9453030C9453030C9453030C945303A8
:100080000C9453030C9453030C9453030C94530398
:100090000C9453030C9453030C9453030C94530388
:1000A0000C9453030C9453030C945303AB03AE030F
:1000B000B103B403B703B903BC03B207B407BF0766
:1000C000B607B807BA07BC07BE07C107C307C5070D
:1000D000D007C707C907CB07CD07CF07D207C4177B
:1000E000C417F617F6172D184D18B619141A8F18CD
:1000F000141A3C193C19AD19141A141A0E1A49197C
:1001000049194919491949194919491949194919DF
:1001100049194919491949194919491949195A19BE
:1001200067196E1975197F199F1A9F1AB11AB11A9A
:10013000A81AB11AB11AB11A9F1A9F1AAD1AB11A98
:10014000B11AAD1A642D8B2D7D2E8B2D7D2ED72DC2
:10015000FA2D7D2E502E5F2E07634236B79BD8A70F
:100160001A39685618AEBAAB558C1D3CB7CC5763DC
:10017000BD6DEDFD753EF6177231BF000000803F8A
:1001800005A84CCDB2D44EB93836A9020C50B9915D
:100190008688083CA6AAAA2ABE000000803F00006C
:1001A000F0A12E00240221023962E00000001E00AE
:1001B000140004001D6134004C001F001A001500DB
:1001C0001B0035642A0020000900160006005000BC
:1001D0002C0021001300170019004F004D002200D1
:1001E0000A000700050000006561006F025300006F
:1001F000015300004A000067025300000153000051
:10020000E30023000D000B000E0000002962240013
:100210000F001100100052004B00250018000800CC
:1002200036005100286426001C000C0037002F0007
:100230002B00270033001200380030004E002D0044
:1002400031003400E500E40000000100010001007D
:100250000100010000003A001E02200222020100FB
:1002600001003B001F0221022302010006013C00A5
:100270002F0226022F00010019013D003002270243
:100280003000010001003E0031023500350200005F
:100290001B0101000100000001000000010001003D
:1002A000010000000100000001003F005200510069
:1002B0002402000016014000240021001E0001005D
:1002C00001004100250022001F0037001C014200F0
:1002D00026002300200027001D01430025022E02D6
:1002E00031002E0001004400450001000100010022
:1002F00000000100010001000100010000000100F8
:100300000100010001000100010001000100F200F4
:100310000100010001000100F000F1000100F40003
:10032000010001000100F3000100F50001000100DF
:1003300001000100010000000100010001000000B7
:1003400001000000010001000100000001000000A8
:100350000100010001000100010000000100010096
:10036000010001000100A9000100010001000100DD
:10037000AC00AA00B600010001000100AB00A8001B
:100380000100010001000100010001000100010065
:100390000100AE0001000100000000047F3F1F6467
:1003A0003214643214783C1E1E140A056801F000F1
:1003B000B40078005A0000000000000101010101B2
:1003C000010101010202020202020202020303030E
:1003D00003030303030404040404040505050505DD
:1003E0000606060606070707070808080809090998
:1003F0000A0A0A0A0B0B0B0C0C0C0D0D0D0E0E0F3E
:100400000F0F1010111111121213131414151516C9
:10041000161717181819191A1A1B1C1C1D1D1E1F38
:100420001F20202122222324252526272728292A88
:100430002B2B2C2D2E2F2F303132333435363637AF
:1004400038393A3B3C3D3E3F4041424344464748B1
:10045000494A4B4C4D4F50515253555657585A5B81
:100460005C5E5F606263646667696A6C6D6E707122
:1004700073747678797B7C7E8081838486888A8B8E
:100480008D8F91929496989A9B9D9FA1A3A5A7A9C1
:10049000ABADAFB1B3B5B7B9BBBDBFC1C4C6C8CAB8
:1004A000CCCFD1D3D6D8DADCDFE1E4E6E8EBEDF06F
:1004B000F2F5F7FAFCFF04033000000016034500D4
:1004C000720067006F0044006F0078002000450054
:1004D0005A00000016034500720067006F004400D8
:1004E0006F007800200045005A0000000403090452
:1004F00009026D00040100A0FA09040000010301D3
:1005000001000921110100012240000705810308B3
:10051000000A090401000103010200092111010080
:1005200001224D000705820308000A0904020001A8
:100530000300000009211101000122360007058394
:100540000308000A09040300010300000009211147
:100550000100012239000705840320000112011067
:100560000100000008EDFE07130100010203010570
:10057000010906A101050719E029E71500250195E4
:100580000875018102050819012905950575019174
:10059000029501750391010507190029F71500253A
:1005A0000195F875018102C005010980A10185024C
:1005B0001601002603001A81002A83007510950198
:1005C0008100C0050C0901A1018503160100269CCC
:1005D000021A01002A9C02751095018100C00501D4
:1005E0000902A1010901A100050919012905150048
:1005F00025019505750181029501750381010501AC
:10060000093009311581257F950275088106093861
:100610001581257F950175088106050C0A3802159C
:1006200081257F950175088106C0C005010906A1D5
:1006300001050719E029E7150025019508750181D5
:1006400002950175088101050819012905950575AF
:100650000191029501750391010507190029FF1504
:100660000026FF00950675088100C00011241FBEFA
:10067000CFEFDAE0DEBFCDBF11E0A0E0B1E0EEEFFA
:10068000F4E602C005900D92A83EB107D9F723E029
:10069000A8EEB1E001C01D92AD3BB207E1F70E94A8
:1006A0004A290C947D320C94000080B38C7080BB7E
:1006B00081B3836F81BB089584B1807F84B985B194
:1006C000807F85B98AB1837F8AB98BB1837F8BB9EB
:1006D0003E9846980895CF93E82F873090F5809103
:1006E000000190910101892B09F048C0CE2F64E6EA
:1006F00070E080E40E940005909301018093000166
:10070000892BD1F464E670E082E10E945705909352
:10071000010180930001892B79F481E090E001C010
:10072000880FCA95EAF764E670E080950E94570545
:10073000909301018093000184E690E0CF910C94A6
:10074000AC0590E0FC013797E730F105B8F4EA5AC0
:10075000FF4F0C942232209A289810C0219A299891
:100760000DC0229A2A980AC0239A2B9807C0529A41
:1007700001C0539A5B9802C03E9A4698CF91089563
:10078000CF93873008F041C0809100019091010122
:10079000892B09F043C064E670E080E40E94000504
:1007A0009093010180930001892B11F0C0E027C0D4
:1007B00064E670E083E10E94570590930101809305
:1007C0000001892B99F764E670E081E40E9400053E
:1007D0009093010180930001892B41F784E690E01A
:1007E0000E94870597FF05C0909301018093000147
:1007F000DDCFC82FC095109201011092000184E650
:1008000090E00E94AC058C2F0AC09FB18FB1807F11
:10081000869586959370892B809501C080E0CF9155
:1008200008950C94CA060E943E0690E09093010140
:10083000809300010E945C030E94550329EE31E081
:10084000EDE3F2E04EE04E0F119280E090E0D9012E
:10085000A80FB91F1C92019686309105C1F72A5F37
:100860003F4F4E13F1CF0C94ED060E943E0690E0F0
:1008700090930101809300010E945C030E94550344
:10088000EDE3F2E08EE08E0F11928E13FDCF08950E
:1008900026E0829FC0011124FC01E751FE4F20E0B9
:1008A00030E080E041E050E09081992319F09150D0
:1008B000908307C0BA01022E01C0660F0A94EAF7BE
:1008C000862B2F5F3F4F31962630310569F708950B
:1008D00096E0699FB001112420E030E090E04FE005
:1008E000FC01022E02C0F595E7950A94E2F7E0FFBD
:1008F00006C0F901E60FF71FE751FE4F40832F5F57
:100900003F4F2630310561F70895CF92DF92EF9285
:10091000FF920F931F93CF93DF93809100019091EB
:100920000101892B91F08091E8018F5F8093E801AC
:1009300081110BC00E943E0690E0909301018093CC
:100940000001892B11F40E94D0058DE3C82E82E0AE
:10095000D82E94E4E92E92E0F92EC0E08C2F0E946C
:100960006B0307E00C0F802F0E946B038C2F0E94FB
:100970004804182F8C2F0E94C003F6019081D12FBC
:10098000D095D9238123D82B6C2F8D2F89270E94B6
:100990006804F601D1936F01802F0E944804182F3C
:1009A000802F0E94C003F7019081D12FD095D923C9
:1009B0008123D82B602F8D2F89270E946804F7018F
:1009C000D1937F010E945C03CF5FC73039F60E944C
:1009D000F50681E0DF91CF911F910F91FF90EF908D
:1009E000DF90CF900895E82FF0E0E35CFD4F808129
:1009F000089508951092B9008CE08093B80008958E
:100A0000EF92FF920F931F93CF93DF93182FEB0179
:100A10001092BC0084EA8093BC000E948D227C016D
:100A20009091BC0097FD0EC0CF3F8FEFD807C1F368
:100A30000E948D228E199F098C179D0788F38EEFD7
:100A40009FEF2EC09091B900987F983041F090911F
:100A5000B900987F903119F08FEF9FEF21C010936C
:100A6000BB0084E88093BC000E948D228C01909191
:100A7000BC0097FD0CC0CF3F8FEFD807C1F30E9499
:100A80008D22801B910B8C179D0788F3D8CF809106
:100A9000B900887F883111F08034F1F680E090E071
:100AA000DF91CF911F910F91FF90EF9008950F93D9
:100AB0001F93CF93DF93EB018093BB0084E8809377
:100AC000BC000E948D228C019091BC0097FD0EC04D
:100AD000CF3F8FEFD807C1F30E948D22801B910B6F
:100AE0008C179D0788F38EEF9FEF0CC02091B90003
:100AF000287F81E090E0283211F480E090E0919529
:100B000081959109DF91CF911F910F9108950F93D6
:100B10001F93CF93DF93EC0184E88093BC000E9485
:100B20008D228C019091BC0097FD0EC0CF3F8FEFBE
:100B3000D807C1F30E948D22801B910B8C179D0753
:100B400088F38EEF9FEF03C08091BB0090E0DF91B0
:100B5000CF911F910F9108950F931F93CF93DF9320
:100B6000EC0184E98093BC000E948D228C0190915D
:100B7000BC0094FF0EC0CF3F8FEFD807C1F30E9497
:100B80008D22801B910B8C179D0788F38EEF9FEFB2
:100B900002C080E090E0DF91CF911F910F91089506
:100BA00056985E9825982D9826982E9827982F98D5
:100BB0008FEF90E0909389008093880090938B0052
:100BC00080938A0090938D0080938C00259A2D9AB3
:100BD0002FEF80E792E0215080409040E1F700C085
:100BE0000000269A2E9A2FEF80E792E02150804055
:100BF0009040E1F700C00000279A2F9A2FEF80E77E
:100C000092E0215080409040E1F700C0000025981C
:100C10002D982FEF80E792E0215080409040E1F73F
:100C200000C0000026982E982FEF80E792E0215018
:100C300080409040E1F700C0000027982F98569818
:100C40005E9825982D9826982E9827982F98089585
:100C500089EA8093800089E08093810024982C9811
:100C60003F988AB18F7C8AB96E98479A8BB180631E
:100C70008BB9769A0E94D0050C94C90680E290E068
:100C8000909301018093000180914B0281110EC06D
:100C90000E94FA0481E080934B022FEF83ED90E3F2
:100CA000215080409040E1F700C0000064E670E011
:100CB00080E40E9400059093010180930001892B3C
:100CC00009F050C064E670E080E00E945705909300
:100CD000010180930001892B09F044C064E670E0B3
:100CE00080E00E9457059093010180930001892BB9
:100CF000C9F564E670E08FE30E9457059093010107
:100D000080930001892B71F584E690E00E94AC0588
:100D100064E670E080E40E940005909301018093F6
:100D20000001892BF9F464E670E08CE00E9457051D
:100D30009093010180930001892BA1F464E670E097
:100D400080E00E9457059093010180930001892B58
:100D500049F464E670E08FE30E9457059093010127
:100D60008093000184E690E00E94AC058091000130
:100D7000089561110BC0FC018281882321F085EE6A
:100D80000E94011603C085EE0E941A1780E090E0D1
:100D900008950895609108037091090380910A03F2
:100DA00090910B030E94CE2056985E9825982D981E
:100DB00026982E9827982F98813019F0823021F0AC
:100DC0000895259A2D9A0895269A2E9A089581E0DD
:100DD000089581E008950C94E9060E941E21811176
:100DE00002C00E948C210C9428060C941104282F18
:100DF0002F7041F0822F90E02A3010F44D96089524
:100E00000697089587E290E0089508950C940507E9
:100E10000C94060708950E948D1A0E940A072FEF6E
:100E200084E39CE0215080409040E1F700C0000046
:100E30000C94E922FF920F931F93CF93DF938C01C1
:100E4000FC01C081D18180919602811113C0828101
:100E5000882349F0CE010E94C11FF82E682FCE01D1
:100E60000E94641F04C0CE010E94941FF82EBE0190
:100E70008F2D04C0CE010E94C11FBE010E94D9095E
:100E8000EC01B8010E94EB06882309F48AC2B8017C
:100E9000CE010E94420C882309F483C2CC3CFCE5BD
:100EA000DF0741F4F8018281882309F47AC20E94A5
:100EB000080E77C2CD3C8CE5D80708F01EC1C43CB3
:100EC0009CE5D90761F4F8018281882309F469C29D
:100ED0000E9492208272E1F40E94091062C2C53C15
:100EE000ECE5DE0708F0C7C0C531FCE5DF0798F088
:100EF000C23CFCE5DF0709F48CC008F492C0F8019D
:100F00008281882309F44DC20E949220827221F7C7
:100F10000E94FF0F46C2C2308CE5D80708F452C0C9
:100F2000F8018281882309F459C00E941E21811191
:100F300002C00E948C210E94312190E09093AF0367
:100F40008093AE03FE01E350FC45E231F10530F43D
:100F5000E35AFF4F8091AE030C9422328091AE038E
:100F6000816027C0826025C0846023C0806121C069
:100F700080621FC080641DC080681BC08460886060
:100F800018C08E7F16C08D7F14C08B7F12C08F7EDD
:100F900010C08F7D0EC08F7B0CC08F770AC08B7FF7
:100FA000877F07C087FB222720F991E0922790FBDB
:100FB00087F98093AE038091AE030E9435210E9491
:100FC0008D1AEFC1C1159CE5D90781F0C130DC4510
:100FD000A9F081E08093510280935202C801DF9111
:100FE000CF911F910F91FF900C94E706F801828139
:100FF000882309F4D6C10E940B07D3C1F80182816E
:10100000882309F4CEC18091350381608093350334
:10101000C8C1F8018281882309F4C3C10E94671006
:10102000C0C1C631DC45A9F60E949220282FF801E4
:10103000828140910F0150911001882379F02A7A22
:1010400091E009F490E090934C02911102C069E2A2
:1010500001C065E3CA010E94EA210AC080914C02E6
:10106000811102C069E201C065E3CA010E94F52155
:101070000E945F2096C1F8018281C83CFCE5DF0731
:1010800031F4882309F48DC10E946B0F8AC1C93CD9
:101090009CE5D907C8F4C63CECE5DE0731F48823AB
:1010A00009F47FC10E943A0F7CC1C73CDC4530F493
:1010B000882309F476C10E94220F73C1882309F4A2
:1010C00070C10E94590F6DC1CA3C9CE5D90731F42B
:1010D000882309F466C10E94980F63C1CB3CDC45AC
:1010E00030F4882309F45DC10E947D0F5AC1882322
:1010F00009F457C10E94F30D54C1C43DFCE5DF075C
:10110000C1F4F8018281882309F44BC10E94E50DE6
:10111000693171058105910540F00E94E50D62324B
:1011200071058105910508F4F3CE89E10E94FC0F59
:1011300038C1C53D8CE5D80708F086C0F80182812A
:10114000C03DFCE5DF07A1F4882309F42AC10E9411
:10115000E50D693071058105910540F00E94E50DAE
:101160006E3071058105910508F4D2CE89E0DECF9D
:10117000C13D9CE5D907A0F5CE3CECE5DE07A1F426
:10118000882309F40EC10E94E50D623071058105C6
:10119000910540F00E94E50D6530710581059105CE
:1011A00008F4B6CE82E0C2CFCF3CDC4528F48823D9
:1011B00009F4F7C081E0BACF882309F4F2C00E9495
:1011C000E50D663071058105910540F00E94E50D41
:1011D000683071058105910508F49ACE86E0A6CFA6
:1011E000C23D9CE5D907A1F4882309F4DAC00E9426
:1011F000E50D653171058105910540F00E94E50D11
:10120000673171058105910508F482CE85E18ECFA5
:10121000C33DDC45A0F4882309F4C3C00E94E50D5A
:101220006F3071058105910540F00E94E50D643134
:1012300071058105910508F46BCE8FE077CF882387
:1012400009F4AFC088E172CFC83DFCE5DF0759F56E
:10125000F8018281882361F0109252020E948D224F
:101260009093500280934F0280E20E94821799C0AF
:1012700080915202882321F080E20E94891791C058
:1012800080914F02909150020E949922883C9105D2
:1012900098F780E20E94891788E20E94011688E28E
:1012A0000E941A177EC0C93D8CE5D80708F058C0C7
:1012B000F8018281C63DFCE5DF0751F5882351F036
:1012C000109251020E948D2290934E0280934D0203
:1012D00082E0CBCF0E94922085FF05C081E0809301
:1012E0005102809352028091510281110FC080916E
:1012F0004D0290914E020E949922883C910530F453
:1013000086E20E94011686E20E941A1782E0B5CF9B
:10131000C73DDC4528F4882309F443C083E206CFA7
:1013200081119ACF0E94922081FF05C081E08093B5
:101330005102809352028091520281119DCF80917F
:101340004F02909150020E949922883C910508F02A
:1013500093CF87E20E94011687E20E941A178CCF72
:10136000CC3DECE5DE0741F4F80182818823C9F029
:1013700082E00E94E82915C0CD3DFCE5DF0739F485
:10138000F8018281882369F00E948C210AC0CB3D3C
:10139000DC4509F01ECEF8018281882311F080E03F
:1013A000E8CF80E0DF91CF911F910F91FF900895DA
:1013B000089596E0799FF001112494E5899FE00D4E
:1013C000F11D1124E60FF11DEE0FFF1FEE55FE4F2C
:1013D000859194910895880F991FFC01E256FE4F64
:1013E000859194910895CF93DF930E94D9090E942B
:1013F000A20BEC01811520E59207F0F5811530E490
:10140000930708F021C1883E910500F5803E9105C3
:1014100008F094C1883A910570F4853A910508F076
:10142000A3C08130910509F489C108F440C1049733
:1014300008F084C13CC18D3B910508F4A0C0803CFC
:10144000910508F434C1805C9109F0C08115904287
:1014500058F4C11581E0D80708F070C1C03FD1052C
:1014600008F425C1D0656AC1C11590E3D90708F019
:10147000E1C0CE019F70DAC0811525E5920708F022
:1014800043C0811534E5930708F0F5C0811542E5A6
:10149000940708F5C11581E5D80708F0D8C02C2FAE
:1014A000237081E090E002C0880F991F2A95E2F72F
:1014B0009C689E0174E0369527957A95E1F7237034
:1014C000922BCF70C695C69540E2C49FE0011124CF
:1014D000C82BD92B33C1869586959E01237033275F
:1014E000C115D34508F0B8C040E2849FC001112463
:1014F000C1E0D0E002C0CC0FDD1F2A95E2F78C2BB3
:101500009D2BEC01DC681AC181152AE5920798F43D
:10151000811539E5930708F0B9C08115964508F49F
:10152000AFC0C11588E5D80708F4C1C0DC2FCC27AF
:10153000C06FD06A03C1C1159BE5D90708F4B7C0D5
:10154000C1152CE5D20708F4AFC0CE019056811525
:10155000904208F0ACC08D2F8F710E941F0CDD27C8
:10156000D0628F71D82BEAC0853A910509F4A2C0E8
:10157000863A910509F0A1C0C2E8D0E4DFC0883AFC
:10158000910509F49DC0893A910509F49CC08A3AF5
:10159000910509F49BC08B3A910509F49AC08C3AE5
:1015A000910509F499C08B3B910509F498C08C3BD7
:1015B000910509F497C08D3A910509F496C0803BD6
:1015C000910509F495C08E3A910509F494C08F3ABB
:1015D000910509F493C0813B910509F492C0823BC7
:1015E000910509F491C0833B910509F490C0843BB7
:1015F000910509F48FC0853B910509F48EC0863BA7
:10160000910509F48DC0873B910509F48CC0883B96
:10161000910509F48BC0893B910509F48AC08A3B86
:10162000910509F489C0C0E0D4E488C00E94EB09A8
:10163000EC0184C0CE019927D3FF03C0EC01D86C24
:101640007DC0EC01D06C7AC0DF70D06A77C0DC2F2F
:10165000CC27C16FD06A72C040E2849FC0011124C0
:10166000C1E0D0E002C0CC0FDD1F2A95E2F7C82B05
:10167000D92BDA6863C0D82FCC27C46FD06A5EC07C
:10168000CF71DD27DC2FCC27D06258C08F70806EE1
:1016900090E0906A24E0D695C7952A95E1F7CF703F
:1016A0009C013C2BE9014AC0DD27D06647C0C0E061
:1016B000D0E044C0C1E8D0E441C0C3E8D0E43EC0BB
:1016C000C2EED4E43BC0C9EED4E438C0CAEED4E4E0
:1016D00035C0C5EBD4E432C0C6EBD4E42FC0C3EBB5
:1016E000D4E42CC0C4EBD4E429C0C7EBD4E426C0B6
:1016F000CCECD4E423C0CDECD4E420C0C3E8D5E4E2
:101700001DC0CAE8D5E41AC0C2E9D5E417C0C4E9CF
:10171000D5E414C0C1E2D6E411C0C3E2D6E40EC0E1
:10172000C4E2D6E40BC0C5E2D6E408C0C6E2D6E403
:1017300005C0C7E2D6E402C0CAE2D6E4CE01DF911A
:10174000CF9108958238910549F1B0F48133910524
:1017500009F458C048F48932910509F44EC08A3220
:10176000910509F454C008958533910509F440C0EA
:101770008933910599F00895833E910529F138F454
:10178000803E910591F0823E9105A1F00895863E3C
:101790009105F9F0873E910531F108952091AE034E
:1017A00020FD3AC021FD38C008958091AE0380FD30
:1017B00035C032C08091AE0382FF32C08091AE034B
:1017C00084FD30C083EE39C08091AE0382FD28C015
:1017D000F5CF8091AE0383FF27C08091AE0384FDD7
:1017E00021C087EE2AC08091AE0383FD1DC0F5CFD6
:1017F0008091AE0385FD1AC01BC08091AE0385FDAC
:1018000017C014C08091AE0386FD14C015C080912E
:10181000AE0386FD11C00EC080EE0FC089E30DC07F
:1018200082EE0BC080E009C086EE07C089E205C0E9
:1018300085E303C08AE201C081E390E008959091BE
:10184000AE0392FF0DC0282F2871283019F4877F2E
:10185000846006C0282F2471243011F48B7F8860A7
:1018600093FF0DC0282F2871283119F4877E8461D9
:1018700006C0282F2471243111F48B7E886194FDD9
:10188000877E0895CF93DF93813020E8920778F028
:10189000FB012281222359F0EC010E945B0C0E9483
:1018A000690CCE019F770E94310D0E94E50C81E00A
:1018B000DF91CF91089580915302811109C08CE08E
:1018C00090E00E9435328093540281E0809353026D
:1018D0000895E0910F01F0911001808180936603DB
:1018E00081FF03C081EE0E941A178091660385FF75
:1018F00003C085EE0E941A178091660380FF03C023
:1019000080EE0E941A178091660384FF03C084EE64
:101910000E941A178091660382FF03C082EE0E9424
:101920001A178091660386FF03C086EE0E941A177D
:101930008091660383FF03C083EE0E941A17809193
:10194000660387FF03C087EE0E941A178091540236
:10195000823001F1A8F48823C9F0813079F580EE56
:101960000E94011681EE0E94011688E10E94011674
:1019700088E10E941A1781EE0E941A1780EE1CC09F
:10198000843081F08530D1F486EE01C082EE0E9471
:10199000011614C082EE0E94011687E50E9401160E
:1019A00087E50AC086EE0E94011686EE0E941A178D
:1019B00088E10E94011688E10E941A178FE39CE9D2
:1019C0000197F1F700C00000089580915402813022
:1019D00049F030F0823021F0853051F486EE06C0B7
:1019E00082EE04C08CE20E9401168CE20E941A175B
:1019F0008091660381FF03C081EE0E9401168091F1
:101A0000660385FF03C085EE0E9401168091660380
:101A100080FF03C080EE0E9401168091660384FF60
:101A200003C084EE0E9401168091660382FF03C00A
:101A300082EE0E9401168091660386FF03C086EE47
:101A40000E9401168091660383FF03C083EE0E940B
:101A500001168091660387FF03C087EE0C94011680
:101A60000895EF92FF921F93CF93DF937C01CCE018
:101A7000D0E097010C2E02C0369527950A94E2F724
:101A8000122F1F70812F0E94F7060E940116812FCE
:101A90000E94F7060E941A172497CC3F8FEFD807B1
:101AA00041F7DF91CF911F91FF90EF900895EF9252
:101AB000FF920F931F93CF93DF93E901662309F4FD
:101AC0004BC0242F30E0EFEFF0E0E61BF109B90145
:101AD000E69F9001E79F300DF69F300D1124232FD4
:101AE0008B01031B11095CE3E52EF12CB7010E9469
:101AF000FA31FB01BC01069FC001079F900D169FA4
:101B0000900D1124B7010E94FA31E230F105B1F0D5
:101B100040F4309779F0319711F5832F242F461B2D
:101B200021C0E430F105A1F068F03597C1F4842FAD
:101B3000861B18C0832F262F230F14C0862F830FD8
:101B4000E42F03C0E42FE61B842F432F2E2F0AC05F
:101B5000842F462F430F06C0842F242F03C080E01C
:101B600020E040E0E42FF0E0EA54FC4F4491E22F03
:101B7000F0E0EA54FC4F9491E82FF0E0EA54FC4F77
:101B8000E49149839883EA83DF91CF911F910F916C
:101B9000FF90EF90089588E090E00C943D32AB0107
:101BA000BC0188E090E00C945B32E7E6F3E083E070
:101BB0008083109268038FEF828383831482608115
:101BC0007181828193810C94CF0D6091670360FFD6
:101BD00006C066956F7370E080E090E0089560E065
:101BE00070E0CB01089580916B0390E00196843002
:101BF000910514F083E090E080936B03609167039C
:101C0000709168038091690390916A030C94CF0DE1
:101C100080916B0390E0019797FF02C080E090E015
:101C20008430910514F083E090E080936B03609121
:101C30006703709168038091690390916A030C9423
:101C4000CF0D8091670380FF06C06FE070E08CE6E7
:101C500093E00C94231480E090E0FC01E459FC4FE5
:101C600011821082128204968C339105B1F7EDCF68
:101C70009091670390FF0FC020E030E0F901E45934
:101C8000FC4F8183608342832C5F3F4F2C333105AF
:101C9000A9F70C94210E0895CF93DF9300D000D0C4
:101CA000CDB7DEB72091670320FF0AC09E012F5FEA
:101CB0003F4F0E94570D4B8169818A810E94380EE7
:101CC0000F900F900F900F90DF91CF9108955F923A
:101CD0006F927F928F929F92AF92BF92CF92DF923C
:101CE000EF92FF920F931F93CF93DF9300D000D01A
:101CF000CDB7DEB78C01E62EF42E522E809167030D
:101D000080FF89C0982F9E77923061F49E012F5FEB
:101D10003F4FC8010E94570D4B8169818A810E9403
:101D2000380E59C0E82FE695EF739EE39E0F9F7320
:101D3000943018F4F0906A034EC09AE39E0F9F739C
:101D4000993068F4881F8827881F90916803292F8D
:101D5000220F022F082B97FB112710F93CC087E2B6
:101D60008E0F8F738A30B8F5F0E07997E0FD02C0EE
:101D700021E001C02FEFEE7FE455FC4F8591949157
:101D80006FE070E00E94FA3126034001279F900C1B
:101D90001124580188E9A81A8EEFB80A8CE6C82EDB
:101DA00083E0D82E98E6692E77247394C501B30199
:101DB0000E94FA3196014F2D6E2D0E94570DA80CEE
:101DC000B91C84E0C80ED11C88EAC81683E0D80686
:101DD00069F70E94210E8091670300FB87F98093C9
:101DE0006703902F9695809168038078892B10FB6C
:101DF00087F980936803E0926903F0926A035520A3
:101E000051F060916703709168038091690390912C
:101E10006A030E94CF0D0F900F900F900F90DF91EB
:101E2000CF911F910F91FF90EF90DF90CF90BF90D7
:101E3000AF909F908F907F906F905F90089521E07A
:101E40000C94670EE7E6F3E02081221F2227221F71
:101E500030916803432F440F842F822B37FB99273F
:101E600090F90C9668E671E00E940E32438162811F
:101E70000C941F0F20916703221F2227221F3091ED
:101E80006803432F440F842F822B37FB992790F947
:101E90008C3091051CF4845A9E4F01C00C9768E663
:101EA00071E00E940E3240916A03609169030C94C4
:101EB0001F0FE7E6F3E08081881F8827881F909135
:101EC0006803292F220F97FB992790F943816FEF21
:101ED000822B0C941F0FE7E6F3E08081881F882790
:101EE000881F90916803292F220F97FB992790F95B
:101EF000438160E0822B0C941F0F40916A03842F72
:101F000090E0843F910514F4445F01C04FEF80914D
:101F10006703881F8827881F90916803292F220F45
:101F200097FB992790F960916903822B0C941F0FFE
:101F300040916A03842F90E00C9714F04C5001C03C
:101F400040E080916703881F8827881F909168036D
:101F5000292F220F97FB992790F960916903822B13
:101F60000C941F0F20E00C94670ECF9390916703A1
:101F700090FF40C09178811102C0926007C0853205
:101F800010F0986403C08F73880F982B90936703A9
:101F9000662351F060916703709168038091690333
:101FA00090916A030E94CF0DC09167036C2F6695D4
:101FB0006F7370E04BE050E084E091E00E942832C3
:101FC000892B19F01092720203C081E08093720293
:101FD000CC1FCC27CC1F90916803892F880F97FBCB
:101FE000992790F940916A03609169038C2BCF91F6
:101FF0000C94B20FCF91089561E00C94B50F8091CD
:10200000670386958F738F5F853208F081E00C94AB
:10201000FC0F8091670386958F73815009F484E2E9
:102020000C94FC0FE7E6F3E0808181608083869565
:102030008F730C94FC0F60E00C94B50F8091350306
:102040008160809335030E941E21811104C00E948B
:102050008C210E94D50D0E94CB0D60936703709375
:1020600068038093690390936A036E7761F40E941A
:10207000D50D0E94CB0D6093670370936803809326
:10208000690390936A0381E08093720280916703F1
:1020900080FF04C086958F730C941B100895E7E6AB
:1020A000F3E080818E7F8083608171818281938162
:1020B0000E94CF0D109272022FEF80E792E0215024
:1020C00080409040E1F700C000000C94210E809108
:1020D000670380FD0C944F100C941210CF93C82FFF
:1020E00080917002909171020E949922EC2FF0E091
:1020F000E855FC4FE491F0E08E179F0708F443C0C9
:102100000E948D22909371028093700260916F0201
:1021100070E080E090E00E94FB2F20E030E04FE78D
:1021200053E40E941E2F2BED3FE049E450E40E944F
:1021300024310E9491310E94982F2BE43AE34EE221
:102140005FE30E94B12E20EF3BEF48ED52E40E9486
:1021500024310E94CA2F462F80916703881F882749
:10216000881F90916803292F220F97FB992790F9D8
:1021700060916903822B0E944C0E80916F0290E067
:10218000019680936F02CF910895CF93C82F8091CD
:102190006D0290916E020E949922EC2FF0E0EB55B7
:1021A000FC4FE491F0E08E179F07E8F00E948D222B
:1021B00090936E0280936D0240916A03609169036F
:1021C00080916B0290916C020E944C0E80916B0288
:1021D00090916C02019668E671E00E94FA3190934A
:1021E0006C0280936B02CF910895CF92DF92FF92A1
:1021F0000F931F93CF93DF93F82E809169029091F4
:102200006A020E949922EF2DE695F0E0EE55FC4F10
:10221000E491F0E08E179F07E8F10E948D229093E1
:102220006A02809369020CE613E0C0E0D0E088E621
:10223000C82EDD24D39480916702909168028C0FA0
:102240009D1FB6010E94FA31980140916A03609186
:1022500069030E94570D68960C5F1F4FC83681E0D6
:10226000D80749F70E94210E209167023091680239
:10227000F0FE0AC0C9010196BE010E94FA31909396
:1022800068028093670206C02150310930936802CA
:1022900020936702DF91CF911F910F91FF90DF9004
:1022A000CF900895AF92BF92CF92DF92EF92FF92BC
:1022B0000F931F93CF93DF93C82F80FF02C01FEFB0
:1022C00001C011E080916502909166020E949922FE
:1022D000C695EC2FF0E0E156FC4FE491F0E08E174C
:1022E0009F0708F466C00E948D2290936602809337
:1022F00065022CE6C22E23E0D22E3EE6E32E33E02A
:10230000F32EC0E0D0E0F70131971082F601108281
:10231000F701108294E0A92EB12C00E080916402B4
:10232000800F87FD815F082E000C990BC817D90715
:10233000E9F480916A038A9DA0018B9D500D1124C0
:10234000559547955595479580916703881F882730
:10235000881F90916803592F550F97FB992790F983
:10236000960160916903852B0E94570D010FF1E0E2
:10237000AF1AB10899F6219684E0C80ED11CE4E0AA
:10238000EE0EF11CCF30D10509F0BDCF0E94210E19
:1023900080916402113031F4811102C08EE007C0D7
:1023A000815005C090E00196BE010E940E328093DC
:1023B0006402DF91CF911F910F91FF90EF90DF901A
:1023C000CF90BF90AF9008950F931F93CF93DF935B
:1023D000C82F80916202909163020E949922EC2F93
:1023E000F0E0E456FC4FE491F0E08E179F0708F40C
:1023F00064C00E948D22909363028093620280E009
:1024000090E0FC01E459FC4F118210821282049684
:102410008C339105B1F7C0E0D0E00FE010E0CE01C1
:10242000B8010E940E32FC0180916102082E000C5E
:10243000990BEE0FFF1FEE0FFF1FC817D907FCF017
:1024400080910301082E000C990B8C179D07BCF09E
:102450009F0124593C4F80916703881F8827881F5C
:1024600090916803592F550F97FB992790F9409148
:102470006A0360916903852B0E94570D05C0E459DA
:10248000FC4F1182108212822196CF30D10539F68D
:102490000E94210E8091020190916102980F909309
:1024A000610220910301280F20930301121614F4F6
:1024B0009E301CF0819580930201DF91CF911F9196
:1024C0000F910895EF92FF920F931F93CF93DF9395
:1024D00080915F02909160020E949922883E934011
:1024E000D0F10E948D229093600280935F02C09190
:1024F0005D02D0915E022196C170DD27D0935E020D
:10250000C0935D028CE6E82E83E0F82E10E008E729
:10251000812F8695FE01E80FF11DCF01817099276B
:10252000970140916A0360916903FC010E9FC0010D
:102530000F9F900D11240E94570D1F5FF4E0EF0EC6
:10254000F11C1F3029F7DF91CF911F910F91FF9060
:10255000EF900C94210EDF91CF911F910F91FF907E
:10256000EF900895CF93DF9300D000D0CDB7DEB7C2
:1025700080915B0290915C020E949922EAE9F3E06B
:102580002591349182179307C0F180915A028111ED
:102590000CC09E012F5F3F4F4FEF6FEF80E090E048
:1025A0000E94570D8A8180935A020E948D22909337
:1025B0005C0280935B0280915902813051F028F0D7
:1025C000823061F440915A020AC080915A0240E080
:1025D00007C060915A0240E080E003C040E080E024
:1025E00060E00E94380E8091590290E0019663E00D
:1025F00070E00E940E32809359020F900F900F905E
:102600000F90DF91CF9108950F931F93CF93DF9396
:1026100080915702909158020E949922843F9140E4
:1026200008F448C00E948D2290935802809357026C
:10263000CCE6D3E000E010E0209155023091560244
:102640008091670390916803073011051CF4232BD8
:1026500079F002C0232B61F4881F8827881F592F27
:10266000550F97FB992790F99E0140916A030AC084
:10267000881F8827881F592F550F97FB992790F996
:102680009E0140E060916903852B0E94570D0F5F0A
:102690001F4F24960F30110579F60E94210E80916C
:1026A0005502909156020196817099279093560297
:1026B00080935502DF91CF911F910F9108958091E2
:1026C00072028823D9F190916703892F86958F73C1
:1026D0002EE3280F2F73243018F482500C946E10C0
:1026E0002AE3280F2F73233018F486500C94C5105A
:1026F00027E3280F2F73263018F489500C94F51017
:1027000021E3280F2F73263018F48F500C945211A8
:102710002BE2280F2F73233018F485510C94E41109
:10272000892F8E77803311F40C946212863411F461
:102730000C94B212883411F40C9404130895882375
:1027400019F05198599A02C0519A59985098589A2C
:1027500095E09A95F1F70000509A589895E09A956F
:10276000F1F70000882311F0519A599885E08A9575
:10277000F1F7000008958BB18C7F8BB95098589A6F
:102780005198599A85E08A95F1F7000008958AB129
:102790008C7F8AB985E08A95F1F70000519A5998A3
:1027A00085E08A95F1F70000509A589885E08A955F
:1027B000F1F7000008955098589A85E08A95F1F74E
:1027C00000005198599A85E08A95F1F70000089524
:1027D000CF93DF93D82FC8E08D2F80780E949F136E
:1027E000DD0FC150C9F780E00E949F1385E08A95F4
:1027F000F1F7000085E08A95F1F7000080E0DF91B5
:10280000CF9108952BB1342F309523233BB1432B27
:102810003FB7F894FC01680F791FE617F70789F0B6
:10282000819198E04BB9000000C087FF2BB9880F59
:10283000000000C000C000C02BB900C09A9591F7FD
:10284000ECCF3FBF0895AF92BF92CF92DF92EF924D
:10285000FF920F931F93CF93DF938C01EB01CFB6C1
:10286000D090BC00F8948091BC008B7F8093BC001A
:102870000E94BB130E94C71384E80E94E813CC0F88
:10288000DD1FCC0FDD1F78015801AC0EBD1EEA1410
:10289000FB0431F0F70181917F010E94E813F7CF2B
:1028A0000E94DB13CFBED092BC00579A40E8BE0115
:1028B000C801DF91CF911F910F91FF90EF90DF90B2
:1028C000CF90BF90AF900C940214909378028093B5
:1028D00077020895E0917702F0917802309721F025
:1028E0000190F081E02D099480E00895E091770255
:1028F000F0917802309721F00280F381E02D099465
:102900000895E0917702F0917802309721F00480E9
:10291000F581E02D09940895209175023091760299
:102920008217930771F09093760280937502E0917D
:102930007702F0917802309721F00680F781E02D40
:1029400009940895209173023091740282179307BD
:1029500071F09093740280937302E0917702F0918A
:102960007802309721F00084F185E02D09940895D4
:1029700085B7806885BF85B7806885BF089508954D
:102980000E94B8140C94BF1481E008950E94842220
:102990000E9413040E941B230C941E10CF92DF92FE
:1029A000EF92FF920F931F93CF93DF93CDB7DEB7D4
:1029B0002B970FB6F894DEBF0FBECDBF0E948504E3
:1029C0000E94C414811111C08FEF89838A831B82F6
:1029D0000E948D228160782F9D838C8349815A814A
:1029E0006B818D810E94B21556C08AE7C82E82E0A5
:1029F000D82E00E010E0E02E802F0E94F304F601B4
:102A000041916F01F42EF82631F40F5F1F4F0E3005
:102A1000110589F7D9CF9091350391FF04C08B87B9
:102A20000E94F9048B8520E030E04F2D50E0922F7A
:102A3000BA01022E02C0759567950A94E2F760FF0D
:102A400024C02E83EF8221E030E0690102C0CC0C6B
:102A5000DD1C9A95E2F790E08C219D21892B09F4E9
:102A600020E028870E948D228160782F9A878987AD
:102A70004E815F8168858A850E94B215F801E6580B
:102A8000FD4F8081C826C08206C02F5F3F4F263091
:102A9000310569F6BACF0E94AE24109179020E94E6
:102AA0006A141817A1F00E946A14809379022B9679
:102AB0000FB6F894DEBF0FBECDBFDF91CF911F914F
:102AC0000F91FF90EF90DF90CF900C9408072B961A
:102AD0000FB6F894DEBF0FBECDBFDF91CF911F912F
:102AE0000F91FF90EF90DF90CF900895DC01119649
:102AF0002C9111978C91682F70E041E050E001C05B
:102B0000440F8A95EAF712968C91129730E0882349
:102B100029F0809198028823E9F006C0F901E8576E
:102B2000FD4F90819423B1F086E0829FF001839F56
:102B3000F00D1124E60FF71FEE0FFF1FEF5DFE4FA4
:102B4000808191818D939C93F901E857FD4F80819D
:102B5000482B06C0F901E857FD4F40958081482376
:102B600040830895CF93DF93CDB7DEB72B970FB691
:102B7000F894DEBF0FBECDBF942F4F83252F58870B
:102B800069877A878B874A855B85452B21F02F3FA4
:102B900009F59F3FF9F4DE01119686E0FD011192DF
:102BA0008A95E9F785E0FE01379601900D928A95A6
:102BB000E1F749815A816B817C818D819E810E94E0
:102BC000341D2B960FB6F894DEBF0FBECDBFDF913C
:102BD000CF910895CE0107960E947615DCCFFC01B7
:102BE000808191810E94002092959F70963041F4DF
:102BF0008091980291E089278093980290939702A0
:102C00000895CF93DF931F92CDB7DEB7882309F4E1
:102C10000DC1682F8238C1F40E946A1481FD06C17B
:102C200069E380910F01909110010E94EA210E94B6
:102C30005F202FEF81EE94E0215080409040E1F73B
:102C400000C0000069E319C0833811F50E946A14BE
:102C500080FDECC063E580910F01909110010E940E
:102C6000EA210E945F202FEF81EE94E02150804006
:102C70009040E1F700C0000063E580910F01909162
:102C800010010E94F5210F90DF91CF910C945F20ED
:102C90008438C1F40E946A1482FDC8C067E4809140
:102CA0000F01909110010E94EA210E945F202FEFF6
:102CB00081EE94E0215080409040E1F700C0000098
:102CC00067E4DBCF8CEF860F813A70F4862F69833F
:102CD0000E94E42669818111A9C080910F01909121
:102CE00010010E94EA21CFCF80E2860F883048F49D
:102CF000677081E001C0880F6A95EAF70E9495200D
:102D0000C2CF8BE5860F833088F4653A29F0663AA6
:102D100031F083E890E005C081E890E002C082E8ED
:102D200090E00F90DF91CF910C948C1488E5860F82
:102D3000853108F071C0683A61F1693A69F16A3A1F
:102D400071F16B3A79F16C3A81F16B3B89F16C3B33
:102D500091F16D3A99F1603BA1F16E3AA9F16F3AA8
:102D6000B1F1613BB9F1623BC1F1633BC9F1643B35
:102D7000D1F1653BD9F1663BE1F1673BE9F1683B95
:102D8000F1F1693BF9F16A3B09F43FC080E090E062
:102D90003EC082EE90E03BC089EE90E038C08AEE03
:102DA00090E035C085EB90E032C086EB90E02FC01C
:102DB00083EB90E02CC084EB90E029C087EB90E09F
:102DC00026C08CEC90E023C08DEC90E020C083E81E
:102DD00091E01DC08AE891E01AC082E991E017C035
:102DE00084E991E014C081E292E011C083E292E0B4
:102DF0000EC084E292E00BC085E292E008C086E259
:102E000092E005C087E292E002C08AE292E00F9071
:102E1000DF91CF910C94A214603F40F0862F0E9466
:102E2000B6230F90DF91CF910C94A3240F90DF91E4
:102E3000CF910895882309F464C0823879F40E9400
:102E40006A1481FF5EC069E380910F0190911001C7
:102E50000E94EA210E945F2069E310C08338B1F428
:102E60000E946A1480FF4DC063E580910F0190912C
:102E700010010E94EA210E945F2063E580910F010A
:102E8000909110010E94F5210C945F20843879F410
:102E90000E946A1482FF35C067E480910F0190910F
:102EA00010010E94EA210E945F2067E4E7CF9CEFB7
:102EB000980F913A10F4682FE1CF90E2980F983074
:102EC00050F4877091E001C0990F8A95EAF7892F35
:102ED0000E949B20D9CF9BE5980F933020F480E08F
:102EE00090E00C948C1498E5980F953120F480E0D4
:102EF00090E00C94A214803F20F00E941E240C94B9
:102F0000A3240895882321F00E9495200C945F202B
:102F10000895882321F00E949B200C945F2008953F
:102F20008F929F92AF92BF92DF92EF92FF920F9398
:102F30001F93CF93DF937C01D62FC72FFC01058110
:102F400002950F70128111110E94B2200E94582028
:102F5000882379F0112369F080E28D0F883048F0E2
:102F600082E00E9441200E94582091E0D82ED9266C
:102F700001C0D12CAC2EA2948FE0A822B12CF50177
:102F8000E159FF4F0C9422328C2F807FCF70882321
:102F900011F0C295C07F112399F0CC2309F4C8C168
:102FA00080E28D0F883010F0D11104C08C2F0E9468
:102FB000952003C08C2F0E94A5200E945F20B8C1DD
:102FC0008D2F0E941A17CC2309F42EC280E28D0F98
:102FD000883010F0D11104C08C2F0E949B2003C0B8
:102FE0008C2F0E94AB200E945F201EC28C2F807FFE
:102FF000CF70803211F0C295C07FDD2319F0D1303F
:10300000C9F021C0112371F0002341F0013031F4E7
:103010000E94CB208C2B0E94C52006C20E94CB2090
:103020008C2B3FC1002319F0013009F4FDC10E942F
:10303000C82011C0112321F0023008F0F5C107C0EB
:103040000111F2C108C0112321F0011171C18C2FAF
:1030500028C101117EC18C2F2AC18C2F869586959F
:10306000837090E0009719F0019761F0DDC11123A2
:1030700021F08D2F9C2F937002C080E090E00E9481
:103080008C14E2C1112321F08D2F9C2F937002C06C
:1030900080E090E00E94A214D7C11123F9F0D53F3F
:1030A00051F0D63F71F0D43FA9F48091A8039091DC
:1030B000A90381600BC08091A8039091A90382604D
:1030C00005C08091A8039091A90384609093A903FF
:1030D0008093A8038D2F0E94B6231EC0D53F51F0C8
:1030E000D63F71F0D43FA9F48091A8039091A90331
:1030F0008E7F0BC08091A8039091A9038D7F05C09E
:103100008091A8039091A9038B7F9093A90380934A
:10311000A8038D2F0E941E240E94A32495C18C2FEA
:10312000837009F050C011118BC18D2F8295869547
:103130008770880F880F9D2F9F70892E912CA12C4E
:10314000B12C082E04C0880C991CAA1CBB1C0A9424
:10315000D2F7D4FF14C00FE010E020E030E0B90156
:10316000A80104C0440F551F661F771F8A95D2F728
:10317000CB01BA01609570958095909503C060E091
:1031800070E0CB01C695C695C370D0E0C230D105C2
:1031900061F0C330D10581F0682979298A299B29FA
:1031A000219771F00E94791E4BC1682979298A29DB
:1031B0009B290E948B1E44C10E94791EC501B40147
:1031C0000E94671E3DC1112319F08C2F817001C030
:1031D0008695882309F434C18D2F82958695877052
:1031E000880F880F9D2F9F70892E912CA12CB12CB8
:1031F000082E04C0880C991CAA1CBB1C0A94D2F788
:10320000D4FF14C00FE010E020E030E0B901A801C5
:1032100004C0440F551F661F771F8A95D2F7CB0154
:10322000BA01609570958095909503C060E070E05C
:10323000CB01C695C695C3704C2F50E04230510566
:1032400069F04330510589F0682979298A299B2939
:103250004130510571F00E943F1FF2C06829792961
:103260008A299B290E94511FEBC00E943F1FC50164
:10327000B4010E942D1FE4C08D2F90E0FC01E05EA0
:10328000F109E531F10508F04FC0E158FF4F0C940A
:103290002232DF708C2F8F71112331F00E94C61EF5
:1032A0008D2F0E948217C0C00E94E71E8D2F0E94A2
:1032B0008917BAC0112339F00111B6C08C2F8F7154
:1032C0000E940C1FB1C0023008F0AEC0F7CF11232E
:1032D00039F08C2F8F710E94C61EA6C01123C9F32E
:1032E0008C2F8F710E94E71E9FC0112329F08C2F15
:1032F0008F710E94B11E98C00E94AC1E95C0112310
:1033000049F0CF718C2F0E94C61E63E08C2F0E9463
:1033100038208AC081E00E944120023008F484C035
:1033200082E00E94412080C0112331F0002389F205
:103330008D2F0E94011678C0002391F2D93349F4F1
:103340005FEF67EE73E0515060407040E1F700C0FE
:1033500000008D2F0E941A1767C04C2F4F706D2FE1
:10336000C7010E94B9060E94D81D6EC0D23FB1F0BD
:1033700028F4D03F49F0D13FF9F028C0D43FB9F04C
:1033800058F0D53F71F022C0112309F447C0909145
:10339000980281E0892708C081E0182710939802DD
:1033A0003DC011113BC081E08093980237C01111DC
:1033B00035C01092980232C0112329F080919702F3
:1033C000882329F329C0002311F328C08091970294
:1033D0000023C1F0882341F09091980281E0892771
:1033E00080939802109297028D2F112319F00E945A
:1033F000011614C00E941A1786E0F70111928A95EF
:10340000E9F70CC0882351F0111108C0909198027F
:1034100081E0892780939802109297024C2F4F7079
:103420006D2FC7010E94D809F8E0AF16B10441F032
:103430005CF04AE0A41AB10852E0A516B10420F4E9
:103440000E946A140E940807DD20E1F00E943420E7
:1034500080FD18C0F70112820E942E200E94C61E15
:10346000C7010E944E1A0E942E20DF91CF911F911A
:103470000F91FF90EF90DF90BF90AF909F908F9053
:103480000C94E71EDF91CF911F910F91FF90EF9069
:10349000DF90BF90AF909F908F9008950F931F93F0
:1034A000CF93DF93EC01888199812B813C81232B81
:1034B000B9F09F3F11F48F3F99F0CE010E941A0797
:1034C000882371F0688179818A810E940B208C01A8
:1034D0000E94631F0E94641EB801CE010E949017D3
:1034E000DF91CF911F910F9108950E94B2200E9409
:1034F000C22080910F01909110010E9400220E9431
:103500005F200E9449250E94A32480E090E00E9451
:103510008C1480E090E00C94A2140E94A2200C94E1
:10352000751A0E940020E92FE295EF70F0E03297C3
:10353000EE30F105B0F4EC56FF4F0C942232803F90
:1035400091F018F4803E68F40EC0843F51F40BC033
:10355000803E48F0813F29F406C093FB882780F91C
:10356000089580E0089581E00895CF93DF9300D01F
:1035700000D01F92CDB7DEB70F900F900F900F9035
:103580000F90DF91CF910895CF93DF9300D000D0BB
:1035900000D0CDB7DEB726960FB6F894DEBF0FBECB
:1035A000CDBFDF91CF9108951F93CF93DF93C0914B
:1035B000990216E080919A02C81799F0D0E01C9FFA
:1035C000F0011D9FF00D1124E556FD4F4081518102
:1035D00062817381848195810E94C41A2196C7708B
:1035E000E9CFDF91CF911F9108954091CB02509187
:1035F000CC026091CD027091CE028091CF02909169
:10360000D0020C94C41A8091D00282958F7009F078
:1036100054C08091CD02882309F44FC08091990253
:10362000A0919A026091CB027091CC024091CE029F
:103630005091CF02B6E08A1709F43FC090E04115DF
:103640005105C1F17F3F11F46F3FA1F1B89FF00127
:10365000B99FF00D1124E556FD4F218172132AC048
:103660002081621327C02281211124C0238134814B
:103670002417350710F421503109241B350B283C41
:103680003105C0F42091D0022F7020612093D00228
:1036900026E0289FF001299FF00D1124E056FD4FF0
:1036A00080818F70806180838BEC92E00E944E1A43
:1036B0000C94D41A01968770BECF0895CF92DF92F2
:1036C000EF92FF920F931F93CF93DF93CDB7DEB7A7
:1036D00062970FB6F894DEBF0FBECDBF8C0185E0B8
:1036E000F801DE011D9601900D928A95E1F7D8014F
:1036F0004C9111965C91119712966C9112971396BA
:10370000CD90DC9014973091CB027091CC028091D7
:10371000CE029091CF02009709F46BC17F3F19F45C
:103720003F3F09F466C1E090CD02EE2009F4C0C02D
:103730002091D002C816D90628F0F601E81BF90B33
:10374000CF0104C0809590958C0D9D1DFF24F394AE
:10375000883C910578F0F12C207F09F0C6C07C2DC3
:10376000D98AC88A89890E94B51A8BEC92E00E9496
:103770004E1AB1C0822F807F09F046C0751314C065
:10378000341312C0611110C02F7020612093D00239
:103790000E94F51A8BEC92E00E944E1A8091D002A2
:1037A000D80115968C932EC0CD2819F15F3F11F4E6
:1037B0004F3FF9F0F62E61111CC0809199022091C3
:1037C0009A0236E0821709F45AC090E0389FF0015F
:1037D000399FF00D1124E556FD4F7181571306C036
:1037E0007081471303C07281711103C00196877005
:1037F000E9CFF62E662309F427C18091D0028160BB
:103800008093D002F12C20C1751308C0341306C078
:10381000611104C08091D002D801C3C04D875E877A
:103820008D859E856A8B0E94911A6A898823E1F1B1
:103830006623D1F12091D002822F82958F7090E083
:10384000029774F08091CB029091CC0298878F837D
:103850001986DB86CA862C87CE0107960E944E1AEF
:1038600086E0F801ABECB2E001900D928A95E1F7A9
:103870000E94031B0E94F51AFF24F394E5C04D87B4
:103880005E878D859E850E940020292F22952F70AE
:1038900030E0223031050CF0CBC09F7009F0C5C07C
:1038A000805E883008F4D0C0C8010E944E1AE4CF70
:1038B000C816D90608F453C0F601E81BF90BCF016E
:1038C000883C910508F450C0F12C7C2DD98AC88A17
:1038D00089890E94B51AEBECF2E086E0DF011D92C7
:1038E0008A95E9F70E94F51AAFC0751314C0341316
:1038F00012C0611110C08091D002F8018583C80107
:103900000E944E1A86E0EBECF2E0DF011D928A95F0
:10391000E9F7FE2C99C04D875E878D859E856A8B61
:103920000E94911A6A89882309F4BECF662309F49C
:10393000BBCF2091D002822F82958F7090E00297AA
:103940000CF48ECF8091CB029091CC029A83898324
:103950001B82DD82CC822E83CE0101967FCF8095A3
:1039600090958C0D9D1DACCFF62E662309F49CCF4F
:1039700075132EC034132CC02091D00220FD1FC01F
:10398000822F82958F70D9F0D80115962C931597B8
:103990008F3049F08F5F982F9295907F822F8F7094
:1039A000892B15968C93C8010E944E1A86E0F80167
:1039B000ABECB2E001900D928A95E1F793CF86E0EF
:1039C000F801ABECB2E001900D928A95E1F73CC0B2
:1039D0004D875E878D859E850E94911A811140CF0B
:1039E0008091D00281608093D002C8010E944E1A5B
:1039F0002BC0662309F458CF4D875E878D859E8541
:103A00000E94911AF82E882309F44ECF86E0F8011F
:103A1000ABECB2E001900D928A95E1F78BEC92E06D
:103A20000E94EF150E94031B5DCF811139CF0CC09E
:103A3000243031050CF038CF9F7009F431CFF801F4
:103A40009581907F09F02CCF8F2D62960FB6F89458
:103A5000DEBF0FBECDBFDF91CF911F910F91FF90C1
:103A6000EF90DF90CF9008951F93CF93DF93CDB762
:103A7000DEB72C970FB6F894DEBF0FBECDBF4F83D5
:103A8000588769877A878B879C87CE0107960E9423
:103A90005E1B882369F08F8198852A853B85232BBF
:103AA000F1F19F3F09F063C08F3F09F060C037C05C
:103AB00086E0FE013796DE01119601900D928A95FF
:103AC000E1F76F817885EA85FB85309741F17F3F8B
:103AD00011F46F3F21F120919A0230E0C901019663
:103AE000877099274091990250E08417950709F44F
:103AF00047C069837A83FD83EC8396E0929FD0016F
:103B0000939FB00D1124A556BD4FFE013196019033
:103B10000D929A95E1F780939A020E94D41A16E0CA
:103B20008091990290919A028917C1F1189FC00162
:103B3000112485569D4F0E945E1B882379F1E091E8
:103B400099021E9FF0011124E556FD4F40815181DD
:103B500062817381848195810E94C41A8091990247
:103B600090E001968770992780939902D9CF4F8171
:103B7000588569857A858B859C850E94C41ACFCF2C
:103B80000E948D1A10929A0210929902EBECF2E0C8
:103B900086E0DF011D928A95E9F7C1CF2C960FB61A
:103BA000F894DEBF0FBECDBFDF91CF911F91089576
:103BB000EF92FF920F931F93CF93DF938C01892B8A
:103BC00009F46CC0F12CEE24E394E8012196F8018D
:103BD0008491843740F4843008F051C0813081F002
:103BE000823019F15BC0853709F444C0A8F19CE725
:103BF000980F903708F052C08F770E941A1741C073
:103C00000E5F1F4FFE01C49180E28C0F883048F494
:103C1000C7708E2D01C0880FCA95EAF70E94B520A3
:103C200014C08C2F0E9401162DC00E5F1F4FFE0185
:103C3000C49180E28C0F883058F4C7708E2D01C07B
:103C4000880FCA95EAF70E94BB200E945F201AC025
:103C50008C2F0E941A1716C00E5F1F4FFE01C491D1
:103C6000CC2381F08FE99FE00197F1F700C00000BD
:103C7000C150F6CF0E5F1F4FFE01F49003C00E94AB
:103C800001168E018F2D882309F49FCFEFE9FFE005
:103C90003197F1F700C000008150F5CFDF91CF914F
:103CA0001F910F91FF90EF90089508950C94551E69
:103CB0000E94561E60930C0370930D0380930E03B5
:103CC00090930F030C94751A08950C94581E0F933B
:103CD0001F9300910C0310910D0320910E0330915E
:103CE0000F03602B712B822B932B1F910F910C9440
:103CF000581E0F931F9300910C0310910D032091F8
:103D00000E0330910F0360237123822393231F91AD
:103D10000F910C94581E0F931F9300910C03109158
:103D20000D0320910E0330910F0360277127822726
:103D300093271F910F910C94581E08950C949D1E6B
:103D40000E949E1E609308037093090380930A03E8
:103D500090930B030C94751A60E070E0CB010C9407
:103D6000A01E0F931F9341E050E060E070E08A01D5
:103D70009B0104C0000F111F221F331F8A95D2F729
:103D8000C901B8011F910F910C94A01E0F931F93AE
:103D900041E050E060E070E004C0440F551F661F32
:103DA000771F8A95D2F78091080390910903A0911B
:103DB0000A03B0910B038A019B01082B192B2A2BB4
:103DC0003B2BC901B8011F910F910C94A01E0F93BA
:103DD0001F9341E050E060E070E004C0440F551FC5
:103DE000661F771F8A95D2F740955095609570951C
:103DF0008091080390910903A0910A03B0910B03ED
:103E00008A019B01082319232A233B23C901B801F6
:103E10001F910F910C94A01E0F931F9341E050E04F
:103E200060E070E004C0440F551F661F771F8A953D
:103E3000D2F78091080390910903A0910A03B091F1
:103E40000B038A019B01082719272A273B27C90151
:103E5000B8011F910F910C94A01E0F931F93009116
:103E600008031091090320910A0330910B03602B82
:103E7000712B822B932B1F910F910C94A01E0F93EB
:103E80001F93009108031091090320910A033091B8
:103E90000B0360237123822393231F910F910C94B2
:103EA000A01E0F931F930091080310910903209106
:103EB0000A0330910B0360277127822793271F91F4
:103EC0000F910C94A01E0895292F220F920F990F85
:103ED000890FA82FA695A695A695877051E001C0D9
:103EE000550F8A95EAF785E0A89FD001112420E0BC
:103EF00030E070E0F901EA0FFB1FEF52FD4F408107
:103F0000CB01022E02C0969587950A94E2F7817044
:103F10009927819584278523842780832F5F3F4FAE
:103F20002530310539F70895292F220F920F990F67
:103F3000890F682F669566956695982F977085E02E
:103F4000689FB001112440E050E080E0FA01E60FE4
:103F5000F71FEF52FD4F208130E0092E02C0369549
:103F600027950A94E2F721703327042E01C0220F0F
:103F70000A94EAF7822B4F5F5F4F4530510531F7C6
:103F80000895CF92DF92EF92FF920F931F93CF93FA
:103F9000DF938C01C0900C03D0900D03E0900E03D2
:103FA000F0900F038091080390910903A0910A03F8
:103FB000B0910B03C82AD92AEA2AFB2ACFE1D0E024
:103FC000D701C6010C2E04C0B695A7959795879585
:103FD0000A94D2F780FF06C0B8018C2F0E94F30923
:103FE000019721F4219760F780E001C08C2FDF91C9
:103FF000CF911F910F91FF90EF90DF90CF90089598
:10400000CF93DF93EC010E94C11FBE010E94F30910
:10401000DF91CF9108951F93CF93DF93EB019091A0
:104020009602992321F0CB010E94002013C088231F
:1040300049F0CB010E94C11F182F682FCE010E94AA
:10404000641F04C0CB010E94941F182FBE01812F52
:104050000E94F309DF91CF911F9108958091100381
:1040600085958595859508958091100387700895AD
:1040700098E0899F90011124262B209310030C9423
:10408000C61E209110038095822380931003982FE1
:10409000977069F430E0482F082E000C550B241758
:1040A000350729F08595859585950C94E71E08952B
:1040B00090911003977081E009F480E00895E091F9
:1040C0000F01F0911001809134038083E0910F0182
:1040D000F0911001908180913303892B8083E091CE
:1040E0000F01F0911001908180913203892B808320
:1040F00080911103882381F0E0910F01F09110016C
:104100009081892B808380910F01909110010E94F2
:104110008E2181111092110380910F019091100155
:104120000C94761480913403089590913403892B74
:10413000809334030895809590913403892380936C
:104140003403089510923403089590913303892B1A
:10415000809333030895809590913303892380934E
:104160003303089510923303089590913203892BFD
:104170008093320308958095909132038923809330
:104180003203089510923203089580931103089525
:10419000109211030895809111030895CF92DF9238
:1041A000EF92FF926C01EE24FF24C114D104E104CC
:1041B000F10421F0C701B60120E101C020E0C72EC3
:1041C000D82EE92EFF24C114D104E104F10419F022
:1041D000285FC701B6016B017C0154E0F694E794B7
:1041E000D794C7945A95D1F7C114D104E104F104CE
:1041F00019F02C5FC701B6016B017C0142E0F69417
:10420000E794D794C7944A95D1F7C114D104E10437
:10421000F10419F02E5FC701B601DC01CB01B695A0
:10422000A79597958795892B8A2B8B2B09F02F5F64
:10423000822FFF90EF90DF90CF90089580E090E084
:104240000E94433221E08D3E9E4F09F020E0822FF4
:10425000089582E090E00C94353283E090E00C9475
:10426000353284E090E00C943532682F84E090E0A1
:104270000C944932AB01BC018FE090E00C945B32AE
:10428000AB01BC0183E190E00C945B3260E070E034
:10429000CB010C94402160E070E0CB010E943A21F8
:1042A0000C9446216DEE7EEF80E090E00E94673234
:1042B00060E082E090E00E94493260E083E090E0BC
:1042C0000E94493210920C0310920D0310920E03BB
:1042D00010920F0360E084E090E00E94493260E0B9
:1042E00085E090E00E94493260E086E090E00E9424
:1042F00049326FEF87E090E00E94493240E050E0A1
:10430000BA0188E090E00E945B3260E08DE090E0CE
:104310000E9449320C944B210C945221FC0131969D
:104320009C01205E3F4F80E0919191118F5FE217D9
:10433000F307D1F708959C01FC0132969FEF80E0CE
:104340004191461789F09F3F19F4411101C0982F00
:104350008F5F8E31A9F79F3F39F0F901E90FF11D09
:1043600097FDFA95628308950895FC013296809630
:104370002081261301C010823196E817F907C1F792
:104380000895262F2695269526952F3168F4FC0151
:10439000E20FF11D677021E030E001C0220F6A9545
:1043A000EAF78181282B21830895262F26952695CB
:1043B00026952F3170F4FC01E20FF11D677021E0AA
:1043C00030E001C0220F6A95EAF720958181282309
:1043D0002183089520912001222329F02091AE030A
:1043E00027FD0C94C1210C949B21209120012223B4
:1043F00029F02091AE0327FD0C94D5210C94B52112
:10440000FC01319680961192E817F907E1F70895BB
:1044100008950C9408220E9409228091B4038430EC
:1044200049F11092360320E488E190E00FB6F89449
:10443000A895809360000FBE2093600080E00E94EA
:1044400008070E94092283B7817F846083BF83B7F6
:10445000816083BF7894889583B78E7F83BF0FB6C2
:10446000F894A89580916000886180936000109214
:1044700060000FBE08950895CF930E9435040E94F6
:1044800085040E943B22C0E08C2F0E94F30481111E
:1044900004C0CF5FCE30C1F701C081E0CF91089555
:1044A00008950C9450220E948D1A0E946A140E9452
:1044B00008070C9451221F920F920FB60F921124ED
:1044C0008F939F93AF93BF9380913603811113C055
:1044D0008091AA039091AB03A091AC03B091AD037E
:1044E0004196A11DB11D8093AA039093AB03A093A5
:1044F000AC03B093AD03BF91AF919F918F910F909B
:104500000FBE0F901F90189582E084BD93E095BD7B
:104510009AEF97BD80936E0008952FB7F89480911D
:10452000AA039091AB03A091AC03B091AD032FBF50
:104530000895CF92DF92EF92FF920F931F932FB7C0
:10454000F8944091AA035091AB036091AC03709131
:10455000AD032FBF6A017B01EE24FF248C0120E014
:1045600030E0C016D106E206F30610F441505109BE
:104570009A01281B390BC9011F910F91FF90EF90F1
:10458000DF90CF90089578941F920F920FB60F92FC
:1045900011248F939F93AF93BF938091AA0390911F
:1045A000AB03A091AC03B091AD030196A11DB11D69
:1045B0008093AA039093AB03A093AC03B093AD0395
:1045C000BF91AF919F918F910F900FBE0F901F9051
:1045D0001895F89481E08093E00080E28093D80001
:1045E000E9ECF0E010828FE19EE40197F1F700C062
:1045F00000001DBA109268001CBC10BE1FBA1092B9
:104600007A0010926E0010926F001092710010925A
:1046100072001082ECEBF0E0108214B817B81AB8F0
:104620001DB810BA108215B818B81BB81EB811BA48
:104630000C94003F08950E941E21811102C00E9427
:104640008C210E942921809335030E94312190E022
:104650009093AF038093AE030E942D21682F70E0EA
:1046600080E090E00C94651E80913A0380FF0BC0BF
:104670006091140185E0689FB001112475956795DC
:10468000759567952BC081FF09C06091140185E085
:10469000689FB00111247595679520C082FF07C0FF
:1046A0006091140185E0689FB001112417C09091BA
:1046B0003B039923D1F060911301961788F720915D
:1046C000140185E0289F90011124929FA001939FDF
:1046D000500D112470E0CA010E940E32603871053D
:1046E00040F46115710539F002C065E070E0862F75
:1046F00008958FE7089581E0089580913A0380FF3F
:1047000008C06091120170E0759567957595679581
:1047100021C081FF06C06091120170E07595679518
:1047200019C082FF04C06091120170E010C0909126
:104730003B039923C1F0609111019617A0F7809176
:104740001201899FC001112470E00E940E3260386E
:10475000710528F46115710521F0862F08958FE702
:10476000089581E0089561E070E0F4CF803F21F486
:104770000E943423819504C0813F29F40E94342390
:1047800080933E030895823F21F40E943423819553
:1047900004C0833F29F40E94342380933D0308958D
:1047A000893F19F40E947D2305C08A3F31F40E949D
:1047B0007D23819580933F0308958B3F21F40E94D0
:1047C0007D23819504C08C3F29F40E947D23809332
:1047D00040030895843F21F480913C03816017C019
:1047E000853F21F480913C03826011C0863F21F413
:1047F00080913C0384600BC0873F21F480913C038F
:10480000886005C0883F31F480913C0380618093CB
:104810003C0308958D3F21F480913A0381600BC0E1
:104820008E3F21F480913A03826005C08F3F29F4C6
:1048300080913A03846080933A030895803F39F46D
:1048400080913E0387FF6CC010923E0369C0813F98
:1048500029F480913E031816BCF362C090913D0389
:10486000823F29F497FF5CC010923D0359C0833FFB
:1048700019F41916CCF354C0893F41F480913F03D9
:1048800018160CF04DC010923F034AC08A3F29F41D
:1048900080913F0387FF44C0F6CF8B3F39F480916E
:1048A000400387FF3DC0109240033AC08C3F29F47B
:1048B000809140031816BCF333C0843F21F48091EB
:1048C0003C038E7F17C0853F21F480913C038D7F90
:1048D00011C0863F21F480913C038B7F0BC0873F42
:1048E00021F480913C03877F05C0883F31F480919B
:1048F0003C038F7E80933C0313C08D3F21F4809155
:104900003A038E7F0BC08E3F21F480913A038D7F56
:1049100005C08F3F29F480913A038B7F80933A033F
:1049200080913D0381110EC080913E0381110AC028
:1049300080913F03811106C080914003811102C024
:1049400010923B0308958CE393E00E9481140E942F
:104950008D22909338038093370308951F93CF934C
:10496000DF9380913703909138030E949922AC0124
:1049700090913B03992321F02091150130E006C06E
:10498000209139038AE0289F900111244217530790
:1049900008F47BC080913D03C0913E03D0913F035A
:1049A00010914003811107C0C1116BC0D11169C0C2
:1049B000111167C06AC09F3F19F09F5F90933B033E
:1049C000181624F40E94342380933D0380913D0304
:1049D00087FF05C00E943423819580933D031C16F8
:1049E00024F40E94342380933E0380913E0387FF8A
:1049F00005C00E943423819580933E0330913D038E
:104A00003323E1F020913E032223C1F045EB340330
:104A1000C0011124892F990F990B009709F481E0A7
:104A200080933D0335EB2303C0011124892F990F97
:104A3000990B009709F481E080933E031D1624F43E
:104A40000E947D2380933F0380913F0387FF05C031
:104A50000E947D23819580933F03111624F40E94C8
:104A60007D23809340038091400387FF05C00E940F
:104A70007D23819580934003DF91CF911F910C940A
:104A8000A3249F3F09F099CFA1CFDF91CF911F9130
:104A90000895ECE3F3E085E0DF011D928A95E9F7E4
:104AA00010923B0310923A030895833081F128F469
:104AB000813059F08230D1F00895853009F449C031
:104AC000B8F1863009F456C0089580913903262F35
:104AD00030E0280F311D2F3F310524F4680F60931B
:104AE000390308958FEF809339030895809115015C
:104AF000262F30E0280F311D2F3F310524F4680F99
:104B00006093150108958FEF8093150108958091AA
:104B10001401262F30E0280F311D2F3F310524F4DA
:104B2000680F6093140108958FEF80931401089526
:104B300080911301262F30E0280F311D2F3F3105C2
:104B400024F4680F6093130108958FEF809313018D
:104B5000089580911201262F30E0280F311D2F3F3C
:104B6000310524F4680F6093120108958FEF80934C
:104B70001201089580911101262F30E0280F311D78
:104B80002F3F310524F4680F6093110108958FEFD2
:104B9000809311010895833011F128F4813049F098
:104BA000823091F00895853081F120F18630C1F195
:104BB000089580913903681720F4861B8093390388
:104BC000089510923903089580911501681720F413
:104BD000861B809315010895109215010895809108
:104BE0001401681720F4861B809314010895109215
:104BF0001401089580911301681720F4861B809397
:104C000013010895109213010895809112016817FD
:104C100020F4861B809312010895109212010895CA
:104C200080911101681720F4861B8093110108956B
:104C30001092110108950F931F93873208F04DC011
:104C40008E3108F093C0803109F47DC008F58730BB
:104C500009F46BC068F4863009F0A3C08091350375
:104C6000817F8E7F8093350381E0809342039AC0D9
:104C70008B3009F48FC08E3009F093C080913503DA
:104C800082FB222720F991E0922790FB82F964C0F1
:104C9000863109F47FC088F4813109F082C00E9416
:104CA0008D1A8091AE0387FB222720F991E092278D
:104CB00090FB87F98093AE036DC0893109F46AC017
:104CC0008B3109F06EC08091350381FB222720F9DA
:104CD00091E0922790FB81F93FC0883309F45AC0D4
:104CE00050F4893209F458C0853309F455C087322D
:104CF00009F452C056C0833409F44EC028F48A33F4
:104D000008F44FC0895333C0883409F04AC00E9468
:104D10008D1A0FEF13ED20E3015010402040E1F712
:104D200000C000000E94E92235C080913503982F11
:104D30009095917090FB80F98093350391112AC072
:104D4000897F877F10C08091350383FB222720F95C
:104D500091E0922790FB83F9809335039923D1F05A
:104D60008091350381608093350314C08D5141E0FB
:104D700050E060E070E08A019B0104C0000F111F49
:104D8000221F331F8A95D2F7C901B8010E94651E00
:104D90000E948D1A81E006C061E070E080E090E042
:104DA000F5CF80E01F910F91089580E0089580E095
:104DB00008958E518A3030F4E82FF0E0E753FE4F2B
:104DC0008081089580E00895CF93C82F8091420399
:104DD000813079F018F08230E9F185C0E0910F015F
:104DE000F09110018081813169F0823209F07DC03B
:104DF00009C0E0910F01F09110018081813111F023
:104E0000823261F48C2F0E94D526811104C08C2F30
:104E10000E941B261DC081E090E01AC08C2F0E94CA
:104E2000D726811114C0C43179F048F4CB3079F021
:104E3000C03109F05EC082E08093420308C0C932ED
:104E400019F0C83321F055C01092420352C081E0DE
:104E5000817051C0C93279F108F5C43161F1A0F413
:104E6000C73009F044C01092390384E180931501E2
:104E7000C09314018CE38093130188E080931201A6
:104E800088E28093110133C082EE8C0F863078F572
:104E90008C2F0E94D9268093410329C0CE34E9F09B
:104EA00020F4CB3421F56AE013C0C13579F0C23566
:104EB000F1F461E00DC080914103882319F0109254
:104EC000410315C081E08093420315C061E006C034
:104ED000809141030E9455250AC06AE080914103F8
:104EE0000E94CB2504C01092420380E004C081E000
:104EF00002C080E0ADCFCF91089580916303089503
:104F00000F931F93CF93DF9300D01F92CDB7DEB7DF
:104F10008C010E94F829823011F0843019F593E059
:104F200099831B830A839093E9008FEF9091E800A7
:104F3000815095FD06C095ED9A95F1F7000081111D
:104F4000F5CF8091E80085FF0DC040E050E063E0C0
:104F500070E0CE0101960E94152A8091E8008E77BC
:104F60008093E8000F900F900F90DF91CF911F91E9
:104F70000F910895CF93DF9300D01F92CDB7DEB786
:104F80002091B403243031F522E02983805891091F
:104F90009B838A8383E08093E9008FEF9091E80000
:104FA000815095FD06C095ED9A95F1F700008111AD
:104FB000F5CF8091E80085FF0DC040E050E063E050
:104FC00070E0CE0101960E94152A8091E8008E774C
:104FD0008093E8000F900F900F90DF91CF9108958C
:104FE000CF93DF93EC010E94F829823011F08430D6
:104FF000F9F482E08093E9009FEF8091E8009150FE
:1050000085FD06C085ED8A95F1F700009111F5CF79
:105010008091E80085FF0CC040E050E065E070E062
:10502000CE010E94152A8091E8008E778093E800D7
:10503000DF91CF910895CF93DF93EC010E94F8297F
:10504000823019F0843009F047C080912001882314
:10505000E1F08091AE0387FF18C084E08093E900FF
:105060008FEF9091E800815095FD06C095E19A95EB
:10507000F1F700008111F5CF8091E80085FF2CC089
:1050800040E050E060E270E017C081E08093E9000A
:105090008FEF9091E800815095FD06C095ED9A95AF
:1050A000F1F700008111F5CF8091E80085FF14C071
:1050B00040E050E068E070E0CE010E94152A809147
:1050C000E8008E778093E80080E2FE01A3E4B3E07D
:1050D00001900D928A95E1F7DF91CF91089580912B
:1050E000B303811109C00E94AA2B0E94072C809152
:1050F000E20084608093E20008951092B303089563
:10510000089508950C94532242E061EC81E00E94DE
:10511000242B42E061EC82E00E94242B42E061EC0F
:1051200083E00E94242B42E261EC84E00C94242B67
:105130008091B603833009F455C030F4813071F0AA
:10514000823009F48EC008958A3009F47AC08B3019
:1051500009F460C0893009F09CC020C08091B5037B
:10516000813A09F096C08091E800877F8093E8003B
:105170008091B9039091BA03892B21F460E283E412
:1051800093E003C060E080E090E070E00E94602A5D
:105190008091E8008B778093E80008958091B503B3
:1051A000813209F076C08091B9039091BA030097DB
:1051B00019F0039709F06DC08091E800877F809314
:1051C000E8008091E80082FD05C08091B403811160
:1051D000F8CF5FC08091F100809363038091E80075
:1051E0008B7753C08091B503813A09F052C080910A
:1051F000B9039091BA03892B09F04BC08091E80064
:10520000877F8093E8008091E80080FFFCCF809149
:10521000200136C08091B5038132D9F58091B90360
:105220009091BA03892BA9F58091E800877F80933C
:10523000E8000E94592B8091B703809320010C94C1
:105240008D1A8091B503813221F58091E800877F26
:105250008093E8000E94592B8091B80380936403E7
:1052600008958091B503813AA1F48091E800877F89
:105270008093E8008091E80080FFFCCF8091640378
:105280008093F1008091E8008E778093E8000C9481
:10529000592B089584B7877F84BF0FB6F894A895DB
:1052A00080916000886180936000109260000FBE62
:1052B00080E880936100109261000E94C0140E94F7
:1052C000AA2B0E94072C8091E20084608093E20068
:1052D00078940E94962E0E94C61486E191E00E9466
:1052E00065148091B403853069F40E940B2280918B
:1052F000B2038823B1F30E943C22882391F30E94D9
:10530000FF29EFCF0E94CE140E945F13EACF0C94C6
:105310008929292F332723303105C9F064F421303E
:10532000310581F02230310509F049C08DE690E069
:1053300020EF34E048C02132310521F1223231051D
:1053400071F13DC082E190E02DE535E03CC0992748
:105350008130910571F02CF4892B89F5ECEEF4E0A5
:105360000DC08230910541F0039749F5E6EBF4E07A
:1053700005C0E4EDF4E002C0ECEBF4E0849190E0D1
:105380009F0121C064307105D0F4660F771FFB01C7
:10539000E152FE4F2081318189E090E014C06430F9
:1053A000710568F4FB01EE0FFF1FE952FE4F2081EB
:1053B0003181FB01ED52FE4F808190E004C080E01E
:1053C00090E020E030E0FA013183208308950895D1
:1053D000CF93C82F0E94E729C0936503CF9108950A
:1053E0008091B403843011F081E0089582E0089543
:1053F00080916503811102C00C94F029089580E129
:1054000089BD82E189BD09B400FEFDCF8091D8003D
:105410008F7D8093D8008091E00082608093E000CF
:105420008091E00081FDFCCF0895CF92DF92EF9252
:10543000FF920F931F93CF93DF93EC018B016A01CF
:105440000E94782B811133C0C114D10439F0F601C8
:1054500080819181081B190BC80FD91FE12CF12CF9
:105460000115110519F18091E80085FD16C08091A4
:10547000E8008E778093E800C114D10449F0F6016A
:1054800080819181E80EF91EF182E08285E00FC0F3
:105490000E94782B882321F30AC089918093F10020
:1054A00001501109FFEFEF1AFF0ADACF80E0DF9118
:1054B000CF911F910F91FF90EF90DF90CF900895C3
:1054C0002091BB033091BC032617370748F06115C4
:1054D000710539F42091E8002E772093E80001C08F
:1054E000B90140E061157105A9F12091B4032223AF
:1054F00009F443C0253009F442C02091E80023FD9F
:1055000040C02091E80022FD32C02091E80020FF39
:10551000E9CF4091F3002091F20030E0342BFC0100
:10552000CF016115710559F02830310540F48191A2
:105530008093F100615071092F5F3F4FF1CF41E03F
:105540002830310509F040E02091E8002E772093C3
:10555000E800C8CF4111C9CF0AC08091B4038823A5
:1055600061F0853061F08091E80083FD0AC0809190
:10557000E80082FFF2CF80E0089582E0089583E0A2
:10558000089581E008952091BB033091BC03261754
:10559000370748F06115710539F42091E8002E773E
:1055A0002093E80001C0B901FC0120E061157105FC
:1055B00091F18091B403882309F440C0853009F447
:1055C0003FC08091E80083FD3DC08091E80082FDEE
:1055D0002FC08091E80080FFE9CF2091F3008091F7
:1055E000F20090E0922B6115710559F08830910519
:1055F00040F424912093F100319661507109019695
:10560000F2CF21E0089709F020E08091E8008E7742
:105610008093E800CBCF2111CCCF0AC08091B40396
:10562000882361F0853061F08091E80083FD0AC035
:105630008091E80082FFF2CF80E0089582E0089533
:1056400083E0089581E00895982F973058F590935E
:10565000E900981739F07091EC002091ED0050911D
:10566000F00003C0242F762F50E021FF19C03091A5
:10567000EB003E7F3093EB003091ED003D7F3093A7
:10568000ED003091EB0031603093EB007093EC0053
:105690002093ED005093F0002091EE0027FF07C00B
:1056A0009F5FD3CF8F708093E90081E0089580E001
:1056B00008958091B50387FF11C08091E80082FDB5
:1056C00005C08091B4038111F8CF11C08091E8002A
:1056D0008B770BC08091B403882349F08091E80058
:1056E00080FFF8CF8091E8008E778093E8000895DE
:1056F0002091E4003091E50095E64091EC00842F84
:10570000817040FF22C08091E80080FD1CC0809124
:10571000B403882391F0853091F08091EB0085FDF2
:1057200010C04091E4005091E5004217530729F35F
:105730009A01915011F784E0089582E0089583E082
:10574000089581E0089580E008954091E80042FFC7
:10575000DECF08950E94182C0E94202CE0EEF0E08D
:10576000808181608083E8EDF0E080818F778083A5
:1057700019BCA7EDB0E08C918E7F8C9380818F7ED9
:1057800080831092B30308950F931F93CF93DF93F9
:105790000E94182C0E94202CC8EDD0E088818F77C1
:1057A000888388818068888388818F7D888319BCFD
:1057B0001092B4031092B0031092B2031092B1038E
:1057C00000EE10E0F80180818B7F8083888181600A
:1057D000888342E060E080E00E94242BE1EEF0E06C
:1057E00080818E7F8083E2EEF0E080818160808323
:1057F000808188608083F80180818E7F80838881AA
:1058000080618883DF91CF911F910F910895E8ED1A
:10581000F0E080818F7E8083E7EDF0E08081816021
:10582000808384E082BF81E08093B3030C94C42B17
:10583000E8EDF0E080818E7F80831092E200089591
:105840001092DA001092E10008951F920F920FB6A5
:105850000F9211242F933F934F935F936F937F93F6
:105860008F939F93AF93BF93EF93FF938091E1004A
:1058700082FF0BC08091E20082FF07C08091E100AF
:105880008B7F8093E1000E94952E8091DA0080FF4B
:105890001FC08091D80080FF1BC08091DA008E7FEE
:1058A0008093DA008091D90080FF0DC080E189BD2E
:1058B00082E189BD09B400FEFDCF81E08093B4038D
:1058C0000E946F2805C019BC1092B4030E947D2865
:1058D0008091E10080FF19C08091E20080FF15C037
:1058E0008091E2008E7F8093E2008091E2008061EF
:1058F0008093E2008091D80080628093D80019BC28
:1059000085E08093B4030E9481288091E10084FFA8
:1059100030C08091E20084FF2CC080E189BD82E12B
:1059200089BD09B400FEFDCF8091D8008F7D8093A2
:10593000D8008091E1008F7E8093E1008091E200A9
:105940008F7E8093E2008091E20081608093E2008C
:105950008091B003882311F084E007C08091E300B8
:1059600087FD02C081E001C083E08093B4030E9400
:1059700082288091E10083FF29C08091E20083FFAB
:1059800025C08091E100877F8093E10082E08093D1
:10599000B4031092B0038091E1008E7F8093E10008
:1059A0008091E2008E7F8093E2008091E20080612E
:1059B0008093E20042E060E080E00E94242B80912E
:1059C000F00088608093F0000E948028FF91EF91A2
:1059D000BF91AF919F918F917F916F915F914F9107
:1059E0003F912F910F900FBE0F901F9018951F920F
:1059F0000F920FB60F9211242F933F934F935F9303
:105A00006F937F938F939F93AF93BF93CF93DF93C6
:105A1000EF93FF93C091E900CF708091EC00D82FF5
:105A2000D17080FDD0E81092E9008091F000877F6E
:105A30008093F00078940E943B2D1092E9008091B1
:105A4000F00088608093F000CD2BCF70C093E90008
:105A5000FF91EF91DF91CF91BF91AF919F918F9186
:105A60007F916F915F914F913F912F910F900FBE5A
:105A70000F901F9018951F93CF93DF93CDB7DEB78C
:105A8000AA970FB6F894DEBF0FBECDBFE5EBF3E0EB
:105A900088E08E0F9091F10091938E13FBCF0E94BE
:105AA00098288091E80083FF28C18091B5039091E8
:105AB000B603492F50E04A30510508F01EC1FA01E3
:105AC000EE55FF4F0C942232803821F0823809F0D5
:105AD00014C108C08091B1039091B203992389F059
