:100000000C9426030C9443030C9443030C94430375
:100010000C9443030C9443030C9443030C94430348
:100020000C9443030C9443030C942B340C94FD3434
:100030000C94632A0C9443030C9443030C944303E1
:100040000C9443030C9443030C9443030C94430318
:100050000C9443030C94CB2A0C9443030C94430359
:100060000C9443030C9443030C9443030C944303F8
:100070000C9443030C9443030C9443030C944303E8
:100080000C9443030C9443030C9443030C944303D8
:100090000C9443030C9443030C9443030C944303C8
:1000A0000C9443030C9443030C9443039B039E035F
:1000B000A103A403A703A903AC03E706E906F4061A
:1000C000EB06ED06EF06F106F306F606F806FA066D
:1000D0000507FC06FE060007020704070707A91725
:1000E000AC17AF17B217B517B817BB17BE17C117A4
:1000F000C417C717CA17CD17D017D317D617D917D4
:10010000DC17CC1FCC1FFE1FFE1F35205520BE2143
:100110001C2297201C2244214421B5211C221C2290
:100120001622512151215121512151215121512179
:10013000512151215121512151215121512151212F
:10014000512162216F2176217D218721A722A722BB
:10015000B922B922B022B922B922B922A722A722F4
:10016000B522B922B922B5226A3591358336913547
:100170008336DD35003683365636653605A84CCDD8
:10018000B2D44EB93836A9020C50B9918688083CD1
:10019000A6AAAA2ABE000000803F0000F0A12E00FF
:1001A000240221023962E00000001E001400040055
:1001B0001D6134004C001F001A0015001B0035643F
:1001C0002A00200009001600060050002C00210023
:1001D0001300170019004F004D0022000A0007000D
:1001E000050000006561006F02530000015300002C
:1001F0004A0000670253000001530000E30023009F
:100200000D000B000E000000296224000F001100F9
:10021000100052004B002500180008003600510065
:10022000286426001C000C0037002F002B0027003C
:1002300033001200380030004E002D003100340031
:10024000E500E4000000C55CC65CC75CC85CC25C3D
:1002500000003A001E0220022202010001003B00C1
:100260001F0221022302010006013C002F02260288
:100270002F00010019013D0030022702300001006B
:1002800001003E0031023500350200001B01010073
:100290000100000001000000010001000100000059
:1002A0000100000001003F00520051002402000044
:1002B00016014000240021001E0001000100410041
:1002C000250022001F0037001C01420026002300E9
:1002D000200027001D01430025022E0231002E00C0
:1002E000010044004500C95CCA5CC35C0000010019
:1002F00001000100010001000000010001000100F7
:1003000001000100010001000100F20001000100F4
:1003100001000100F000F1000100F4000100010003
:100320000100F3000100F5000100010001000100DF
:1003300001000000010001000100000001000000B8
:1003400001000100010000000100000001000100A7
:100350000100010001000000010001000100010096
:100360000100A9000100010001000100AC00AA0089
:10037000B600010001000100AB00A800010001006F
:100380000100010001000100010001000100AE00B8
:100390000100010000000000000000010101010156
:1003A000010101010202020202020202020303032E
:1003B00003030303030404040404040505050505FD
:1003C00006060606060707070708080808090909B8
:1003D0000A0A0A0A0B0B0B0C0C0C0D0D0D0E0E0F5E
:1003E0000F0F1010111111121213131414151516EA
:1003F000161717181819191A1A1B1C1C1D1D1E1F59
:100400001F20202122222324252526272728292AA8
:100410002B2B2C2D2E2F2F303132333435363637CF
:1004200038393A3B3C3D3E3F4041424344464748D1
:10043000494A4B4C4D4F50515253555657585A5BA1
:100440005C5E5F606263646667696A6C6D6E707142
:1004500073747678797B7C7E8081838486888A8BAE
:100460008D8F91929496989A9B9D9FA1A3A5A7A9E1
:10047000ABADAFB1B3B5B7B9BBBDBFC1C4C6C8CAD8
:10048000CCCFD1D3D6D8DADCDFE1E4E6E8EBEDF08F
:10049000F2F5F7FAFCFF04033000000016034500F4
:1004A000720067006F0044006F0078002000450074
:1004B0005A00000016034500720067006F004400F8
:1004C0006F007800200045005A0000000403090472
:1004D00009026D00040100A0FA09040000010301F3
:1004E00001000921110100012240000705810308D4
:1004F000000A0904010001030102000921110100A1
:1005000001224D000705820308000A0904020001C8
:1005100003000000092111010001223600070583B4
:100520000308000A09040300010300000009211167
:100530000100012239000705840320000112011087
:100540000100000008EDFE07130100010203010590
:10055000010906A101050719E029E7150025019504
:100560000875018102050819012905950575019194
:10057000029501750391010507190029F71500255A
:100580000195F875018102C005010980A10185026C
:100590001601002603001A81002A830075109501B8
:1005A0008100C0050C0901A1018503160100269CEC
:1005B000021A01002A9C02751095018100C00501F4
:1005C0000902A1010901A100050919012905150068
:1005D00025019505750181029501750381010501CC
:1005E000093009311581257F950275088106093882
:1005F0001581257F950175088106050C0A380215BD
:1006000081257F950175088106C0C005010906A1F5
:1006100001050719E029E7150025019508750181F5
:1006200002950175088101050819012905950575CF
:100630000191029501750391010507190029FF1524
:100640000026FF00950675088100C00011241FBE1A
:10065000CFEFDAE0DEBFCDBF13E0A0E0B1E0E0EC29
:10066000F5E702C005900D92A037B107D9F726E053
:10067000A0E7B3E001C01D92A53DB207E1F70E94DB
:1006800052310C94DE3A0C94000080B38C7080BB25
:1006900081B3836F81BB089584B1807F84B985B1B4
:1006A000807F85B98AB1837F8AB98BB1837F8BB90B
:1006B0003E9846980895CF93E82F873090F5809123
:1006C000040190910501892B09F048C0CE2F64E602
:1006D00070E080E40E946B1B9093050180930401FD
:1006E000892BD1F464E670E082E10E94C21B9093F2
:1006F000050180930401892B79F481E090E001C029
:10070000880FCA95EAF764E670E080950E94C21BE4
:10071000909305018093040184E690E0CF910C94BE
:10072000171C90E0FC013797E730F105B8F4EA5A5E
:10073000FF4F0C94D139209A289810C0219A2998FB
:100740000DC0229A2A980AC0239A2B9807C0529A61
:1007500001C0539A5B9802C03E9A4698CF91089583
:10076000CF93873008F041C080910401909105013A
:10077000892B09F043C064E670E080E40E946B1BA3
:100780009093050180930401892B11F0C0E027C0EC
:1007900064E670E083E10E94C21B909305018093A0
:1007A0000401892B99F764E670E081E40E946B1BD9
:1007B0009093050180930401892B41F784E690E032
:1007C0000E94F21B97FF05C09093050180930401DE
:1007D000DDCFC82FC095109205011092040184E668
:1007E00090E00E94171C8C2F0AC09FB18FB1807FB0
:1007F000869586959370892B809501C080E0CF9176
:1008000008950C94E4050E94580590E0909305012A
:10081000809304010E944C030E94450321E733E0CA
:10082000E5ECF3E04EE04E0F119280E090E0D9014C
:10083000A80FB91F1C92019686309105C1F72A5F57
:100840003F4F4E13F1CF0C9407060E94580590E0DD
:1008500090930501809304010E944C030E9445037C
:10086000E5ECF3E08EE08E0F11928E13FDCF08952C
:1008700026E0829FC0011124FC01EF58FC4F20E0CC
:1008800030E080E041E050E09081992319F09150F0
:10089000908307C0BA01022E01C0660F0A94EAF7DE
:1008A000862B2F5F3F4F31962630310569F708952B
:1008B00096E0699FB001112420E030E090E04FE025
:1008C000FC01022E02C0F595E7950A94E2F7E0FFDD
:1008D00006C0F901E60FF71FEF58FC4F40832F5F6A
:1008E0003F4F2630310561F70895CF92DF92EF92A6
:1008F000FF920F931F93CF93DF9380910401909108
:100900000501892B91F0809170038F5F80937003B4
:1009100081110BC00E94580590E0909305018093CF
:100920000401892B11F40E94EA0485ECC82E83E0AF
:10093000D82E9CECE92E93E0F92EC0E08C2F0E947B
:100940005B0307E00C0F802F0E945B038C2F0E943B
:100950003804182F8C2F0E94B003F6019081D12FFC
:10096000D095D9238123D82B6C2F8D2F89270E94D6
:100970005804F601D1936F01802F0E943804182F7C
:10098000802F0E94B003F7019081D12FD095D923F9
:100990008123D82B602F8D2F89270E945804F701BF
:1009A000D1937F010E944C03CF5FC73039F60E947C
:1009B000110681E0DF91CF911F910F91FF90EF9091
:1009C000DF90CF900895E82FF0E0EB53FC4F80814B
:1009D0000895089556985E9825982D9826982E98F3
:1009E00027982F988FEF90E090938900809388004C
:1009F00090938B0080938A0090938D0080938C005D
:100A0000259A2D9A2FEF80E792E021508040904068
:100A1000E1F700C00000269A2E9A2FEF80E792E0BF
:100A2000215080409040E1F700C00000279A2F9AA3
:100A30002FEF80E792E0215080409040E1F700C026
:100A4000000025982D982FEF80E792E021508040FC
:100A50009040E1F700C0000026982E982FEF80E725
:100A600092E0215080409040E1F700C000002798BC
:100A70002F9856985E9825982D9826982E98279806
:100A80002F98089589EA8093800089E080938100FF
:100A900024982C983F988AB18F7C8AB96E98479A8F
:100AA0008BB180638BB9769A0E94EA040C94E305BB
:100AB00080E290E090930501809304018091D3033C
:100AC00081110EC00E94651B81E08093D3032FEF3C
:100AD00083ED90E3215080409040E1F700C000009A
:100AE00064E670E080E40E946B1B909305018093A4
:100AF0000401892B09F050C064E670E080E00E9498
:100B0000C21B9093050180930401892B09F044C016
:100B100064E670E080E00E94C21B90930501809320
:100B20000401892BC9F564E670E08FE30E94C21BC3
:100B30009093050180930401892B71F584E690E080
:100B40000E94171C64E670E080E40E946B1B909387
:100B5000050180930401892BF9F464E670E08CE0D0
:100B60000E94C21B9093050180930401892BA1F47C
:100B700064E670E080E00E94C21B909305018093C0
:100B80000401892B49F464E670E08FE30E94C21BE4
:100B9000909305018093040184E690E00E94171C65
:100BA00080910401089561110BC0FC0182818823AA
:100BB00021F085EE0E94091E03C085EE0E94221FCF
:100BC00080E090E0089508956091F8047091F90430
:100BD0008091FA049091FB040E94D62856985E9862
:100BE00025982D9826982E9827982F98813019F0BF
:100BF000823021F00895259A2D9A0895269A2E9AEA
:100C0000089581E0089581E008950C9403060E9400
:100C10002629811102C00E9494290E94E0170C9499
:100C200042050E942D178091D403811102C00E94B9
:100C30005B0D8091D40390E001966BE070E00E9420
:100C4000BD398093D4030C940104282F2F7041F0F8
:100C5000822F90E02A3010F44D960895069708955B
:100C600087E290E0089508950C9433060C943406BE
:100C700008950E9495220E9438062FEF84E39CE09D
:100C8000215080409040E1F700C000000C94F12A10
:100C9000FF920F931F93CF93DF938C01FC01C081D0
:100CA000D18180918604811113C08281882349F00B
:100CB000CE010E94C927F82E682FCE010E946C2712
:100CC00004C0CE010E949C27F82EBE018F2D04C0C7
:100CD000CE010E94C927BE010E940E09EC01B80195
:100CE0000E940506882309F491C2B801CE010E9432
:100CF0006A0D882309F48AC2B801CE010E94770BDD
:100D0000882309F483C2CC3CFCE5DF0741F4F801F9
:100D10008281882309F47AC20E94211977C2CD3CCE
:100D20008CE5D80708F01EC1C43C9CE5D90761F4E6
:100D3000F8018281882309F469C20E949A2882728C
:100D4000E1F40E94361862C2C53CECE5DE0708F00B
:100D5000C7C0C531FCE5DF0798F0C23CFCE5DF0702
:100D600009F48CC008F492C0F8018281882309F448
:100D70004DC20E949A28827221F70E941C1846C216
:100D8000C2308CE5D80708F452C0F801828188236C
:100D900009F459C00E942629811102C00E94942999
:100DA0000E94392990E09093C7068093C606FE0101
:100DB000E350FC45E231F10530F4E35AFF4F8091F6
:100DC000C6060C94D1398091C606816027C0826026
:100DD00025C0846023C0806121C080621FC0806400
:100DE0001DC080681BC08460886018C08E7F16C0DC
:100DF0008D7F14C08B7F12C08F7E10C08F7D0EC080
:100E00008F7B0CC08F770AC08B7F877F07C087FBE3
:100E1000222720F991E0922790FB87F98093C6065C
:100E20008091C6060E943D290E949522EFC1C115FE
:100E30009CE5D90781F0C130DC45A9F081E08093C1
:100E4000DA038093DB03C801DF91CF911F910F91EB
:100E5000FF900C940106F8018281882309F4D6C121
:100E60000E943906D3C1F8018281882309F4CEC1DA
:100E700080912505816080932505C8C1F801828194
:100E8000882309F4C3C10E940E18C0C1C631DC45D5
:100E9000A9F60E949A28282FF8018281409110011A
:100EA00050911101882379F02A7A91E009F490E0B9
:100EB0009093D503911102C069E201C065E3CA01B4
:100EC0000E94F2290AC08091D503811102C069E213
:100ED00001C065E3CA010E94FD290E94672896C1EE
:100EE000F8018281C83CFCE5DF0731F4882309F46E
:100EF0008DC10E94C2188AC1C93C9CE5D907C8F4BB
:100F0000C63CECE5DE0731F4882309F47FC10E947A
:100F10007C187CC1C73CDC4530F4882309F476C1D9
:100F20000E94501873C1882309F470C10E94AC1844
:100F30006DC1CA3C9CE5D90731F4882309F466C128
:100F40000E94F21863C1CB3CDC4530F4882309F4DD
:100F50005DC10E94DC185AC1882309F457C10E9460
:100F60000C1954C1C43DFCE5DF07C1F4F8018281CE
:100F7000882309F44BC10E94491969317105810523
:100F8000910540F00E944919623271058105910571
:100F900008F4F3CE89E10E943A1938C1C53D8CE5C9
:100FA000D80708F086C0F8018281C03DFCE5DF0764
:100FB000A1F4882309F42AC10E94491969307105F6
:100FC0008105910540F00E9449196E307105810537
:100FD000910508F4D2CE89E0DECFC13D9CE5D9076A
:100FE000A0F5CE3CECE5DE07A1F4882309F40EC1A0
:100FF0000E944919623071058105910540F00E94F7
:101000004919653071058105910508F4B6CE82E075
:10101000C2CFCF3CDC4528F4882309F4F7C081E037
:10102000BACF882309F4F2C00E94491966307105CD
:101030008105910540F00E944919683071058105CC
:10104000910508F49ACE86E0A6CFC23D9CE5D9076B
:10105000A1F4882309F4DAC00E94491965317105A9
:101060008105910540F00E9449196731710581059C
:10107000910508F482CE85E18ECFC33DDC45A0F416
:10108000882309F4C3C00E9449196F307105810596
:10109000910540F00E94491964317105810591055F
:1010A00008F46BCE8FE077CF882309F4AFC088E1D6
:1010B00072CFC83DFCE5DF0759F5F801828188232E
:1010C00061F01092DB030E94952A9093D9038093DC
:1010D000D80380E20E948A1F99C08091DB03882395
:1010E00021F080E20E94911F91C08091D8039091DD
:1010F000D9030E94A12A883C910598F780E20E94BA
:10110000911F88E20E94091E88E20E94221F7EC071
:10111000C93D8CE5D80708F058C0F8018281C63D6A
:10112000FCE5DF0751F5882351F01092DA030E94A5
:10113000952A9093D7038093D60382E0CBCF0E9469
:101140009A2885FF05C081E08093DA038093DB0352
:101150008091DA0381110FC08091D6039091D7035B
:101160000E94A12A883C910530F486E20E94091E63
:1011700086E20E94221F82E0B5CFC73DDC4528F4FD
:10118000882309F443C083E206CF81119ACF0E94DD
:101190009A2881FF05C081E08093DA038093DB0306
:1011A0008091DB0381119DCF8091D8039091D90369
:1011B0000E94A12A883C910508F093CF87E20E9403
:1011C000091E87E20E94221F8CCFCC3DECE5DE0792
:1011D00041F4F80182818823C9F082E00E94EE3157
:1011E00015C0CD3DFCE5DF0739F4F8018281882385
:1011F00069F00E9494290AC0CB3DDC4509F01ECE5F
:10120000F8018281882311F080E0E8CF80E0DF914F
:10121000CF911F910F91FF900895089596E0799FC7
:10122000F001112494E5899FE00DF11D1124E60FD2
:10123000F11DEE0FFF1FE256FE4F85919491089528
:10124000880F991FFC01E656FE4F859194910895F1
:10125000CF93DF930E940E090E94D70AEC018115FB
:1012600020E59207F0F5811530E4930708F021C1DD
:10127000883E910500F5803E910508F094C1883ABA
:10128000910570F4853A910508F0A3C0813091056D
:1012900009F489C108F440C1049708F084C13CC135
:1012A0008D3B910508F4A0C0803C910508F434C141
:1012B000805C9109F0C08115904258F4C11581E01D
:1012C000D80708F070C1C03FD10508F425C1D0652A
:1012D0006AC1C11590E3D90708F0E1C0CE019F7043
:1012E000DAC0811525E5920708F043C0811534E581
:1012F000930708F0F5C0811542E5940708F5C1157C
:1013000081E5D80708F0D8C02C2F237081E090E049
:1013100002C0880F991F2A95E2F79C689E0174E02D
:10132000369527957A95E1F72370922BCF70C69565
:10133000C69540E2C49FE0011124C82BD92B33C1CC
:10134000869586959E0123703327C115D34508F0F5
:10135000B8C040E2849FC0011124C1E0D0E002C0C7
:10136000CC0FDD1F2A95E2F78C2B9D2BEC01DC685E
:101370001AC181152AE5920798F4811539E593077A
:1013800008F0B9C08115964508F4AFC0C11588E5CD
:10139000D80708F4C1C0DC2FCC27C06FD06A03C1C6
:1013A000C1159BE5D90708F4B7C0C1152CE5D207D4
:1013B00008F4AFC0CE0190568115904208F0ACC041
:1013C0008D2F8F710E94540BDD27D0628F71D82B27
:1013D000EAC0853A910509F4A2C0863A910509F060
:1013E000A1C0C2E8D0E4DFC0883A910509F49DC0ED
:1013F000893A910509F49CC08A3A910509F49BC089
:101400008B3A910509F49AC08C3A910509F499C078
:101410008B3B910509F498C08C3B910509F497C06A
:101420008D3A910509F496C0803B910509F495C069
:101430008E3A910509F494C08F3A910509F493C04E
:10144000813B910509F492C0823B910509F491C05A
:10145000833B910509F490C0843B910509F48FC04A
:10146000853B910509F48EC0863B910509F48DC03A
:10147000873B910509F48CC0883B910509F48BC02A
:10148000893B910509F48AC08A3B910509F489C01A
:10149000C0E0D4E488C00E942009EC0184C0CE01E1
:1014A0009927D3FF03C0EC01D86C7DC0EC01D06C50
:1014B0007AC0DF70D06A77C0DC2FCC27C16FD06ACA
:1014C00072C040E2849FC0011124C1E0D0E002C09C
:1014D000CC0FDD1F2A95E2F7C82BD92BDA6863C041
:1014E000D82FCC27C46FD06A5EC0CF71DD27DC2F28
:1014F000CC27D06258C08F70806E90E0906A24E054
:10150000D695C7952A95E1F7CF709C013C2BE90150
:101510004AC0DD27D06647C0C0E0D0E044C0C1E883
:10152000D0E441C0C3E8D0E43EC0C2EED4E43BC046
:10153000C9EED4E438C0CAEED4E435C0C5EBD4E477
:1015400032C0C6EBD4E42FC0C3EBD4E42CC0C4EB50
:10155000D4E429C0C7EBD4E426C0CCECD4E423C047
:10156000CDECD4E420C0C3E8D5E41DC0CAE8D5E47E
:101570001AC0C2E9D5E417C0C4E9D5E414C0C1E279
:10158000D6E411C0C3E2D6E40EC0C4E2D6E40BC078
:10159000C5E2D6E408C0C6E2D6E405C0C7E2D6E498
:1015A00002C0CAE2D6E4CE01DF91CF91089582381D
:1015B000910549F1B0F48133910509F458C048F41C
:1015C0008932910509F44EC08A32910509F454C05C
:1015D00008958533910509F440C08933910599F048
:1015E0000895833E910529F138F4803E910591F0EC
:1015F000823E9105A1F00895863E9105F9F0873E5F
:10160000910531F108952091C60620FD3AC021FDD3
:1016100038C008958091C60680FD35C032C08091E3
:10162000C60682FF32C08091C60684FD30C083EEBC
:1016300039C08091C60682FD28C0F5CF8091C606CC
:1016400083FF27C08091C60684FD21C087EE2AC093
:101650008091C60683FD1DC0F5CF8091C60685FD2D
:101660001AC01BC08091C60685FD17C014C08091AA
:10167000C60686FD14C015C08091C60686FD11C041
:101680000EC080EE0FC089E30DC082EE0BC080E07B
:1016900009C086EE07C089E205C085E303C08AE27F
:1016A00001C081E390E008959091C60692FF0DC0BD
:1016B000282F2871283019F4877F846006C0282FCE
:1016C0002471243011F48B7F886093FF0DC0282F84
:1016D0002871283119F4877E846106C0282F24716F
:1016E000243111F48B7E886194FD877E0895CF9319
:1016F000DF93813020E8920778F0FB0122812223DA
:1017000059F0EC010E94900B0E949E0BCE019F7736
:101710000E94660C0E941A0C81E0DF91CF9108951F
:101720008091DC03811109C08CE090E00E94333A83
:101730008093DD0381E08093DC030895E091100144
:10174000F091110180818093560581FF03C081EEE5
:101750000E94221F8091560585FF03C085EE0E94DE
:10176000221F8091560580FF03C080EE0E94221F39
:101770008091560584FF03C084EE0E94221F809151
:10178000560582FF03C082EE0E94221F80915605FB
:1017900086FF03C086EE0E94221F8091560583FFBC
:1017A00003C083EE0E94221F8091560587FF03C06D
:1017B00087EE0E94221F8091DD03823001F1A8F4A0
:1017C0008823C9F0813079F580EE0E94091E81EEF0
:1017D0000E94091E88E10E94091E88E10E94221FC2
:1017E00081EE0E94221F80EE1CC0843081F0853083
:1017F000D1F486EE01C082EE0E94091E14C082EE72
:101800000E94091E87E50E94091E87E50AC086EE30
:101810000E94091E86EE0E94221F88E10E94091E76
:1018200088E10E94221F8FE39CE90197F1F700C035
:10183000000008958091DD03813049F030F082305E
:1018400021F0853051F486EE06C082EE04C08CE2B1
:101850000E94091E8CE20E94221F8091560581FF82
:1018600003C081EE0E94091E8091560585FF03C0CA
:1018700085EE0E94091E8091560580FF03C080EE10
:101880000E94091E8091560584FF03C084EE0E94C9
:10189000091E8091560582FF03C082EE0E94091E38
:1018A0008091560586FF03C086EE0E94091E809136
:1018B000560583FF03C083EE0E94091E80915605E2
:1018C00087FF03C087EE0C94091E0895EF92FF92E4
:1018D0001F93CF93DF937C01CCE0D0E097010C2ED7
:1018E00002C0369527950A94E2F7122F1F70812FB8
:1018F0000E9425060E94091E812F0E9425060E9433
:10190000221F2497CC3F8FEFD80741F7DF91CF916B
:101910001F91FF90EF900895CF92DF92EF92FF9288
:101920000F931F93CF93DF93E82FF82F711103C00C
:10193000682F782F7EC0062F10E0C72FD0E0E82E4A
:10194000F12CC8016BE270E00E94A9399B0145EDC2
:101950004203B001439F700D1124060F171F86E04C
:10196000809FB001819F700D11244FEF50E0CA019C
:101970008C1B9D0B8E9DD0018F9DB00D9E9DB00D3B
:1019800011248B2F6C9F80016D9F100D7C9F100D7B
:101990001124012F11276A01C01AD10ACE9C80019F
:1019A000CF9C100DDE9C100D11246A01C61AD70AB7
:1019B000CC9EB001CD9E700DDC9E700D1124672F62
:1019C0007727461B570B4E9DE0014F9DD00D5E9D26
:1019D000D00D11247D2F2230310599F04CF42115C2
:1019E0003105C9F021303105A1F47E2FE12F13C05C
:1019F0002330310551F02430310559F4ED2F7B2F80
:101A000006C0EB2F8D2F7F2F06C0712FEB2F8F2F4E
:101A100002C07B2F812FF0E0EA56FC4F6491E72F44
:101A2000F0E0EA56FC4F7491E82FF0E0EA56FC4FE4
:101A30008491DF91CF911F910F91FF90EF90DF90F4
:101A4000CF90089588E090E00C943B3AAB01BC0144
:101A500088E090E00C94593AE7E5F5E08FE0808368
:101A6000109258058FEF8283838314826081718185
:101A7000828193810C94260DCF93DF93F90110821C
:101A8000A2E2B1E090E02C91322F32953F702F709E
:101A900082130AC0631308C02081EA01C20FD11D5E
:101AA000988320812F5F20839F5F1496903359F78E
:101AB000DF91CF910895E0915003F0915103099483
:101AC000E0914C03F0914D030994E0914E03F091A5
:101AD0004F0309940F931F93CF93DF93CDB7DEB7D6
:101AE00029970FB6F894DEBF0FBECDBFFB018281F0
:101AF0008823D1F19E01275F3F4F8E010F5F1F4F5B
:101B0000A801608181810E943C0D99859923C9F0CB
:101B1000EFE0F1E0A0E1B1E082918E9381E0E83066
:101B2000F807D1F789818093080180913404282F28
:101B300030E02830310514F48F5F01C088E08093D5
:101B40003404D8018A2F801B891730F4ED91F0E01E
:101B5000E45AFA4F1082F6CF1092350410923604F0
:101B6000109237041092380481E029960FB6F89449
:101B7000DEBF0FBECDBFDF91CF911F910F910895B2
:101B800040E060E080E00C94650DE7E5F5E0608101
:101B9000862F881F8827881F60915805660F682B3D
:101BA000728183810E948C0C962F672F482F892F7A
:101BB0000C94650DEF92FF920F931F93CF93DF93D9
:101BC0000CE515E0C0E0D0E082E8E82EF12CF80149
:101BD00081918F01F4E08F9FC0011124833891051A
:101BE0002CF49701281B390BC90102C080E090E05A
:101BF00090915705991F9927991F60915805660F75
:101C0000692B680F7FEF80915A050E948C0C472F3B
:101C1000282FCE010E94600D2196C033D105B9F660
:101C2000DF91CF911F910F91FF90EF900895AF92A8
:101C3000BF92CF92DF92EF92FF920F931F93CF93B9
:101C4000DF9360915705862F881F8827881F609132
:101C50005805660F682B7091590580915A050E94AE
:101C60008C0CF62EE72ED82E90915705991F9927A8
:101C7000991F30915805832F880FE82FE92B37FBE8
:101C8000FF27F0F9CF018C549F4F68E671E00E9466
:101C9000BD3970915905682F80915A050E948C0CAE
:101CA000C62EB72EA82E02E211E0C0E0D0E0F80167
:101CB000838190819F3F61F080FF04C02A2D4B2DCE
:101CC0006C2D03C02D2D4E2D6F2DCE010E94600D69
:101CD00021960C5F1F4FC033D10549F7DF91CF919B
:101CE0001F910F91FF90EF90DF90CF90BF90AF903A
:101CF0000895DF92EF92FF920F931F93CF93DF939C
:101D000080915705881F8827881F90915805492F73
:101D1000440F242F282B97FB332730F9C9018C540B
:101D20009F4F68E671E00E94BD39821B930B80389B
:101D3000910514F09A9505C081384FEF94070CF483
:101D4000939597FD03969595879595958795C82FBB
:101D500080915905281B310937FF02C02D5F3F4F85
:101D60003595279535952795D22FD0905A0594E231
:101D7000E92E91E0F92E00E010E0F7012081229594
:101D80002F7060915705962F991F9927991F609181
:101D90005805660F692B2C9F600D11247091590511
:101DA0002D9F700D11248D2D0E948C0C472F282FF4
:101DB000C8010E94600D0F5F1F4FF4E0EF0EF11C91
:101DC00000331105D1F6DF91CF911F910F91FF9054
:101DD000EF90DF900895AF92BF92CF92DF92EF9293
:101DE000FF920F931F93CF93DF931F92CDB7DEB770
:101DF000D82E20915705221F2227221F8091580597
:101E0000982F990FB22EB92A87FB882780F9EB2DDE
:101E1000F82FCF018C549F4F68E671E00E94BD39C6
:101E20009C012E1B3F0B37FF02C02D5F3F4F3595A6
:101E3000279535952795A22EC09059050091390414
:101E400010913A0420913B0430913C0490915B0541
:101E5000992359F0692F70E08AE090E00E94BD3923
:101E6000CB01770FAA0BBB0B04C08AE090E0A0E087
:101E7000B0E080239123A223B323892B8A2B8B2BC1
:101E800041F40E94233A60E370E00E94BD39082FBC
:101E900001C00FEFE12CF12C10E0D11003C0E016CF
:101EA000F106A9F40E94233A83706B2D8A9D600D80
:101EB000112469830E94233A69817C2D80915A05FF
:101EC0000E948C0C472F282FC7010E94600D8FEFB6
:101ED000E81AF80A80E3E816F104F9F60F90DF91AA
:101EE000CF911F910F91FF90EF90DF90CF90BF9017
:101EF000AF900895CF92DF92EF92FF921F93CF930E
:101F0000DF938091390490913A04A0913B04B09101
:101F10003C0400905B0504C0880F991FAA1FBB1FDB
:101F20000A94D2F7182F82E2C82E81E0D82EC0E0A2
:101F3000D0E09FE3E92EF12CF60180818F3FE1F0A4
:101F4000FE01E45AFA4F8081F4E08F9FC001112412
:101F50008034910524F4B701681B790B02C060E05E
:101F600070E0610F7FEF80915A050E948C0C472F23
:101F7000282FCE010E94600D219624E0C20ED11CB4
:101F8000C033D105C9F6DF91CF911F91FF90EF903B
:101F9000DF90CF900895CF92DF92EF92FF920F9350
:101FA0001F93CF93DF938091390490913A04A091CD
:101FB0003B04B0913C0400905B0504C0880F991F5E
:101FC000AA1FBB1F0A94D2F7D82EC0905A0502E26E
:101FD00011E0C0E0D0E08FE3E82EF12CF801808121
:101FE0008F3FF9F0FE01E45AFA4F2081F4E02F9F71
:101FF00090011124203431052CF4C701821B930B6E
:102000009C0102C020E030E0F80161816D0D620F9B
:102010007FEF8C2D0E948C0C472F282FCE010E9421
:10202000600D21960C5F1F4FC033D105B9F6DF91CB
:10203000CF911F910F91FF90EF90DF90CF90089577
:10204000CF92DF92EF92FF920F931F93CF93DF9384
:102050008091390490913A04A0913B04B0913C04E2
:1020600000905B0504C0880F991FAA1FBB1F0A942C
:10207000D2F7D82EC0905A0502E211E0C0E0D0E0BD
:102080008FE3E82EF12CF80180818F3FF9F0FE01FB
:10209000E45AFA4F2081F4E02F9F9001112420345C
:1020A00031052CF4C701821B930B9C0102C020E078
:1020B00030E0F80162816D0D620F7FEF8C2D0E9480
:1020C0008C0C472F282FCE010E94600D21960C5FAB
:1020D0001F4FC033D105B9F6DF91CF911F910F91FA
:1020E000FF90EF90DF90CF9008952F923F924F9204
:1020F0005F926F927F928F929F92AF92BF92CF9298
:10210000DF92EF92FF920F931F93CF93DF93309064
:10211000590520905A056091390470913A048091D4
:102120003B0490913C040E94D1372BED3FE049E401
:1021300050E40E949E3820E030E040E05CE30E94E2
:102140009E386B017C010E94243720E030E040E0A3
:102150005DE30E949E382B013C01C701B6010E943D
:102160000B3920E030E040EE52E40E9429374B0169
:102170005C01C4E2D1E000E010E0688170E080E042
:1021800090E00E94D33720E030E040E052E40E942B
:10219000B736A30192010E949E386B017C01FE01BB
:1021A0003197608170E080E090E00E94D33720E0BA
:1021B00030E040EE52E40E94B736A50194010E943F
:1021C0009E389B01AC01C701B6010E94B83620E0E1
:1021D00030E044E353E40E949E386B017C0180911F
:1021E0005705881F8827881F90915805292F220F8F
:1021F000622F682B97FB772770F9072E000C880B4E
:10220000990B0E94D3379B01AC01C701B6010E9414
:10221000B8360E94A237732D822D0E948C0C472F56
:10222000282FC8010E94600D0F5F1F4F24960033B6
:10223000110509F0A2CFDF91CF911F910F91FF906F
:10224000EF90DF90CF90BF90AF909F908F907F9056
:102250006F905F904F903F902F9008952F923F92F4
:102260004F925F926F927F928F929F92AF92BF92A6
:10227000CF92DF92EF92FF920F931F93CF93DF9352
:10228000CDB7DEB728970FB6F894DEBF0FBECDBF2F
:10229000809159058D8390915A059E8360913904F0
:1022A00070913A0480913B0490913C040E94D13794
:1022B0002BED3FE049E450E40E949E3820E030E0FE
:1022C00040E05CE30E949E386B017C010E94243751
:1022D0002B013C01C701B6010E940B3969837A8347
:1022E0008B839C83E4E2F1E0F887EF8300E010E069
:1022F000EF81F88531972080EF81F885B0803090AC
:102300005B05332079F0632D70E080E090E00E945F
:10231000D33720E030E040EC5FE30E949E386B0151
:102320007C0106C0C12CD12C90ECE92E9FE3F92E44
:102330006B2D70E080E090E00E94D33720E030E029
:1023400040E052E40E94B7369B01AC01C701B601E0
:102350000E949E38A30192010E949E384B015C01AD
:10236000332079F0632D70E080E090E00E94D33755
:1023700020E030E040EC5FE30E949E386B017C017E
:1023800006C0C12CD12C80ECE82E8FE3F82E622DF4
:1023900070E080E090E00E94D33720E030E040EE33
:1023A00052E40E94B7369B01AC01C701B6010E94FE
:1023B0009E3829813A814B815C810E949E389B0125
:1023C000AC01C501B4010E94B8366B017C0180915B
:1023D0005705881F8827881F90915805292F220F9D
:1023E000622F682B97FB772770F9072E000C880B5C
:1023F000990B0E94D3379B01AC01C701B6010E9423
:10240000B8360E94A2377D818E810E948C0C472FA6
:10241000282FC8010E94600D0F5F1F4F8F81988584
:10242000049698878F830033110509F061CF2896B1
:102430000FB6F894DEBF0FBECDBFDF91CF911F91D5
:102440000F91FF90EF90DF90CF90BF90AF909F9053
:102450008F907F906F905F904F903F902F90089556
:102460002F923F924F925F926F927F928F929F92A4
:10247000AF92BF92CF92DF92EF92FF920F931F9392
:10248000CF93DF9300D000D01F92CDB7DEB720915D
:1024900059052A8380915A058B8360913904709184
:1024A0003A0480913B0490913C040E94D1372BED7B
:1024B0003FE049E450E40E949E3820E030E040E0F4
:1024C0005CE30E949E386B017C010E9424372B0143
:1024D0003C01C701B6010E940B394B015C01A4E22B
:1024E000B1E0BD83AC8300E010E0EC81FD81319769
:1024F000B081B983EC81FD81308020905B05222082
:1025000069F0622D70E0660F771F072E000C880BB4
:10251000990B0E94D3376B017C0105C0C12CD12CD3
:10252000E12C20E4F22E632D70E080E090E00E9428
:10253000D33720E030E040E052E40E94B7369B0100
:10254000AC01C701B6010E949E38A30192010E940E
:102550009E386B017C01222021F0312C220C331C8F
:1025600003C082E0282E312CF9816F2F70E080E0CB
:1025700090E00E94D33720E030E040EE52E40E9429
:10258000B7360E949B379B0177FF04C02227332771
:10259000261B370B82E490E0821B930B289EB00130
:1025A000299E700D389E700D1124072E000C880B8B
:1025B000990B0E94D337A50194010E949E389B017C
:1025C000AC01C701B6010E94B8366B017C01809155
:1025D0005705881F8827881F90915805292F220F9B
:1025E000622F682B97FB772770F9072E000C880B5A
:1025F000990B0E94D3379B01AC01C701B6010E9421
:10260000B8360E94A2377A818B810E948C0C472FAA
:10261000282FC8010E94600D0F5F1F4F8C819D8184
:1026200004969D838C830033110509F05ECF0F90D3
:102630000F900F900F900F90DF91CF911F910F91FE
:10264000FF90EF90DF90CF90BF90AF909F908F90D2
:102650007F906F905F904F903F902F9008952F92B2
:102660003F924F925F926F927F928F929F92AF9222
:10267000BF92CF92DF92EF92FF920F931F93CF936F
:10268000DF9300D01F92CDB7DEB72090590580911F
:102690005A0589836091390470913A0480913B0412
:1026A00090913C040E94D13720E030E040E85BE3A9
:1026B0000E949E3820E030E040E653E40E949E38BD
:1026C0002B013C01E4E2F1E0FB83EA8300E010E04F
:1026D000EA81FB8131973080EA81FB81E080F090D4
:1026E0005B05FF2079F06F2D70E080E090E00E94A4
:1026F000D33720E030E040EC5FE30E949E384B018E
:102700005C0106C0812C912C90ECA92E9FE3B92E80
:102710006E2D70E080E090E00E94D33720E030E042
:1027200040E052E40E94B7360E949B379B0177FF3E
:1027300004C022273327261B370BB901330F880B20
:10274000990B0E94D3379B01AC01C501B4010E94D3
:102750009E382EE23DEB4BEB53EB0E949E384B0133
:102760005C01FF2079F06F2D70E080E090E00E9426
:10277000D33720E030E040EC5FE30E949E386B01ED
:102780007C0106C0C12CD12C80ECE82E8FE3F82E02
:10279000632D70E080E090E00E94D337A3019201A6
:1027A0000E94B7369B01AC01C701B6010E949E385A
:1027B0009B01AC01C501B4010E94B7366B017C01DD
:1027C00080915705881F8827881F90915805292FC9
:1027D000220F622F682B97FB772770F9072E000CCA
:1027E000880B990B0E94D3379B01AC01C701B6013E
:1027F0000E94B8360E94A237722D89810E948C0CEB
:10280000472F282FC8010E94600D0F5F1F4F8A813C
:102810009B8104969B838A830033110509F058CF6E
:102820000F900F900F90DF91CF911F910F91FF901C
:10283000EF90DF90CF90BF90AF909F908F907F9060
:102840006F905F904F903F902F900895CF92DF92BE
:10285000FF920F931F93CF93DF931F92CDB7DEB7F5
:10286000F82E0091390410913A0420913B043091E4
:102870003C0490915B05992359F0692F70E08AE040
:1028800090E00E94BD39AB01770F660B770B04C057
:102890004AE050E060E070E040235123622373235C
:1028A000452B462B472B39F40E94233A60E370E016
:1028B0000E94BD3901C08FEF00E010E0C82ED12C7E
:1028C000F11003C00C151D0581F40E94233A898381
:1028D0000E94233A782F698180915A050E948C0CBE
:1028E000472F282FC8010E94600D0F5F1F4F003334
:1028F000110531F70F90DF91CF911F910F91FF904C
:10290000DF90CF9008954F925F926F927F928F9257
:102910009F92AF92BF92CF92DF92EF92FF920F936E
:102920001F93CF93DF9300D0CDB7DEB7882371F02C
:1029300040E060E080E00E94650D84E5E0EEF3E0B9
:10294000DF011D928A95E9F71092DF0380EEC82E11
:1029500083E0D82EF12CEE24EA9490EDA92EB12C30
:1029600020EC522E3FE2832E912C00E010E0402E0E
:102970003601600E711E0115110561F48091DF03AF
:10298000811108C00E94233A853595401CF4F60158
:10299000E08206C0D3019C9191509E3F08F49C9325
:1029A0009E012F5F3F4FAE014E5F5F4F6F2D842D15
:1029B0000E943C0DF3012081EA81213D70F030E05E
:1029C000205D3109529EC001539E900D1124B40127
:1029D0000E94A939262F4FEF0AC0FFEF2F9FC00199
:1029E0001124B5010E94A939462F20E060E08E2F06
:1029F00090E00E94600D0F5F1F4F0E30110509F02F
:102A0000B6CFF3942EE0C20ED11C36E0F312ADCF58
:102A10008091DF038F5F8D3158F11092DF0380E0EA
:102A200090E00DE010E04EEFF801E81BF90BDF013C
:102A3000A052BC4F7D01ADEEB3E0682F611104C020
:102A40002C912F3F09F44C93F70152915F3F19F4F9
:102A50004083F7015083FEE0EF0EF11C1E9624E048
:102A6000A134B20759F701968D309105E9F602C0FD
:102A70008093DF030F900F90DF91CF911F910F9103
:102A8000FF90EF90DF90CF90BF90AF909F908F908E
:102A90007F906F905F904F9008952F923F924F924A
:102AA0005F926F927F928F929F92AF92BF92CF92DE
:102AB000DF92EF92FF920F931F93CF93DF93CDB7E7
:102AC000DEB72A970FB6F894DEBF0FBECDBF2091B8
:102AD00059052C8334E2E32E31E0F32E00E010E0C0
:102AE000F70131979081F7018081F0913404FB83E5
:102AF00028E031E03A8329831A861986212C312C6B
:102B0000E92FF0E0FE83ED83282F30E038872F8314
:102B1000898128E031E0821B3B81831708F062C085
:102B2000E981FA818191FA83E983C82ED12CC6010B
:102B3000880F991F880F991F9C012E5D3E4F390108
:102B4000F90181816D817E81681B7109072E000C5E
:102B5000880B990B0E94D3374B015C01F3018281F2
:102B60006F817885681B7109072E000C880B990B03
:102B70000E94D3372B013C01A5019401C501B4018A
:102B80000E949E384B015C01A3019201C301B20176
:102B90000E949E389B01AC01C501B4010E94B83669
:102BA0000E941939F601E45AFA4FC080F4E0CF9E32
:102BB000600111240E94A237C601861B970B8F3F2C
:102BC000910519F010F08FEF90E0280E391E2FEFCD
:102BD00030E0281B390BE985FA85E20FF31FFA87ED
:102BE000E98796CF60915705862F881F8827881F11
:102BF00060915805660F682B620D89859A8500974C
:102C000039F08F3F910529F020F08FEF90E001C05F
:102C100080E07C810E948C0C472F282FC8010E94E5
:102C2000600D0F5F1F4F94E0E90EF11C003311059A
:102C300009F056CF2A960FB6F894DEBF0FBECDBF6F
:102C4000DF91CF911F910F91FF90EF90DF90CF9088
:102C5000BF90AF909F908F907F906F905F904F90BC
:102C60003F902F90089581E090913404911101C01C
:102C700080E0809334040C944D152F923F924F9234
:102C80005F926F927F928F929F92AF92BF92CF92FC
:102C9000DF92EF92FF920F931F93CF93DF93CDB705
:102CA000DEB729970FB6F894DEBF0FBECDBF2090D8
:102CB0005705822D881F8827881F20905805220CD1
:102CC000282A209159052B8334E2E32E31E0F32E9C
:102CD00000E010E0F70131979081F701808130909A
:102CE000340428E031E03A83298319861886E92FD5
:102CF000F0E0FD83EC83282F30E03F832E83898131
:102D000028E031E0821B831508F060C0E981FA8178
:102D10008191FA83E983C82ED12CC601880F991FAF
:102D2000880F991F9C012E5D3E4F3901F901818169
:102D30006C817D81681B7109072E000C880B990B33
:102D40000E94D3374B015C01F30182816E817F8148
:102D5000681B7109072E000C880B990B0E94D33752
:102D60002B013C01A5019401C501B4010E949E38CC
:102D70004B015C01A3019201C301B2010E949E3884
:102D80009B01AC01C501B4010E94B8360E941939FB
:102D9000F601E45AFA4FC080F4E0CF9E600111249E
:102DA0000E94A237C601861B970B8F3F910519F031
:102DB00010F08FEF90E02FEF30E0281B390BE88503
:102DC000F985E20FF31FF987E88799CF8885998500
:102DD000009739F08F3F910529F020F08FEF90E0B8
:102DE00001C080E0622D7B810E948C0C472F282F30
:102DF000C8010E94600D0F5F1F4F94E0E90EF11CA7
:102E00000033110509F066CF29960FB6F894DEBF9E
:102E10000FBECDBFDF91CF911F910F91FF90EF902B
:102E2000DF90CF90BF90AF909F908F907F906F90EA
:102E30005F904F903F902F90089581E090913404DF
:102E4000911101C080E0809334040C943D160895E4
:102E500008950E9427170C9428174091570540FDAC
:102E60000AC00E94C00D0E942917809157058170E9
:102E70008093070108958091DE03843120F48F5FF1
:102E80008093DE0308958091390490913A04A091D3
:102E90003B04B0913C040196A11DB11D80933904FF
:102EA00090933A04A0933B04B0933C048091350482
:102EB00090913604A0913704B09138048F3F2FEFE2
:102EC0009207A207B20759F00196A11DB11D809388
:102ED000350490933604A0933704B093380480915E
:102EE0003404ECE5F5E090819F3F61F09E3F41F4B2
:102EF000282F30E02230310514F0815001C080E0ED
:102F00009F5F9083319695E0EC38F90761F78093E5
:102F10003404E42FE695EF7380910601E81307C0AF
:102F200081E090910701913019F480E001C081E0C7
:102F30008170E093060191E0909307014E2F50E0DD
:102F4000FA013197E231F105C8F5E159FF4F0C94D0
:102F5000D1390E94C50D32C00E94170E2FC00E94A9
:102F600075102CC00E94790E29C00E94EB0E26C05D
:102F70000E947A0F23C00E94CB0F20C00E94201015
:102F80001DC00E942E111AC00E94301217C00E944C
:102F90002F1314C00E94261411C00E9483140EC067
:102FA0000E94DA0D0BC00E94331608C00E944D1516
:102FB00005C00E941D1702C00E943D160C942917DF
:102FC000E0914A03F0914B030995ECE5F5E08FEFB2
:102FD000819395E0EC38F907D9F70E9426298111F1
:102FE00004C00E9494290E942C0D0E94220D60931F
:102FF0005705709358058093590590935A056E773D
:1030000061F40E942C0D0E94220D6093570570936D
:1030100058058093590590935A050895E7E5F5E022
:103020008081982F909590FB80F9808360817181D9
:10303000828193810C94260D90915705892F869556
:103040008F5F8F739178833118F4880F892B02C0BA
:10305000892F8260809357056091570570915805BC
:103060008091590590915A050C94260D9091570521
:10307000892F8695815C8F739178882319F0880F4A
:10308000892B02C0892F8462809357056091570570
:10309000709158058091590590915A050C94260D10
:1030A00080915705982F991F9927991F809158054E
:1030B000880F892B90E008968F3F910519F014F046
:1030C0008FEF90E02091570580FB27F9209357055B
:1030D000282F2695809158058078822B90FB87F9C0
:1030E0008093580560915705709158058091590556
:1030F00090915A050C94260D80915705982F991F91
:103100009927991F80915805880F892B90E008977F
:1031100097FF02C080E090E08F3F910519F014F016
:103120008FEF90E02091570580FB27F920935705FA
:10313000282F2695809158058078822B90FB87F95F
:1031400080935805609157057091580580915905F5
:1031500090915A050C94260D8091590590E008969F
:103160008F3F910519F014F08FEF90E0809359058F
:1031700060915705709158058091590590915A05B5
:103180000C94260D8091590590E0089797FF02C096
:1031900080E090E08F3F910519F014F08FEF90E000
:1031A0008093590560915705709158058091590594
:1031B00090915A050C94260D80915A0590E008963E
:1031C0008F3F910519F014F08FEF90E080935A052E
:1031D00060915705709158058091590590915A0555
:1031E0000C94260D80915A0590E0089797FF02C035
:1031F00080E090E08F3F910519F014F08FEF90E0A0
:1032000080935A0560915705709158058091590532
:1032100090915A050C94260D80915B0590E00196E3
:103220008430910514F083E090E080935B05609119
:103230005705709158058091590590915A050C9445
:10324000260D80915B0590E0019797FF02C080E01A
:1032500090E08430910514F083E090E080935B056A
:1032600060915705709158058091590590915A05C4
:103270000C94260DE7E5F5E08F73982F990F808168
:103280008178892B808360817181828193810C9404
:10329000260D6091570566956F7370E080E090E0B1
:1032A000089567E784E70C94261BCF930E94651B63
:1032B00084E70E94AB1987E70E94AB19C0E021E0C8
:1032C00041E061E08C2F0E943D1ACF5FC033B9F717
:1032D00067E784E7CF910C94391BECEAF6E0608352
:1032E000418324E630E042E050E0BF01880F0C94B7
:1032F0003B1CEF92FF921F93CF93DF937B01182F1C
:10330000110FC0E0D0E08C2F8C5D8093AC0620E0E4
:1033100030E0F901EC0FFD1FEE0DFF1D8081F9017A
:10332000E455F94F81832F5F3F4F2031310589F7F5
:1033300024E630E041E150E06CEA76E0812F0E9423
:103340003B1C6096C039D105F1F6DF91CF911F91FA
:10335000FF90EF900895CF93DF93C82F4BE06DEF70
:103360000E946D1940E06AE08C2F0E946D198FE376
:103370009CE90197F1F700C0000040E060E08C2F6D
:103380000E946D1940E061E08C2F0E946D1940E0B1
:1033900066E08C2F0E946D1940E06DEF8C2F0E942B
:1033A0006D19D0E040E06D2F8C2F0E946D19DF5F0A
:1033B000D231C1F740E06D2F8C2F0E946D19DF5F75
:1033C000D432C1F740E06D2F8C2F0E946D19DF5F62
:1033D000D43BC1F74BE06DEF8C2F0E946D1941E09B
:1033E0006AE08C2F0E946D1940E06DEF8C2FDF9109
:1033F000CF910C946D198033910520F5880F991F9A
:10340000880F991FFC01EE51FE4F5281338180815C
:1034100083707181E0E98E9FC001112484579A4F17
:10342000FC01E70FF11DB4976083FC01E50FF11D6E
:10343000B4974083830F911DFC01B497208381E0F2
:10344000809362040895FF920F931F93CF93DF93AD
:10345000182F062FF42EC0E0D0E02F2D402F612F23
:10346000CE010E94FB192196C033D105B1F7DF913F
:10347000CF911F910F91FF9008954F925F927F928D
:103480008F929F92AF92BF92CF92DF92EF92FF9274
:103490000F931F93CF93DF93362F54E0859FC00186
:1034A0001124FC01EE51FE4FA081A3707A2E6181A0
:1034B00070E0CB0184978C0197FF02C0095F1F4F1A
:1034C000A3E015950795AA95E1F7628170E07B016D
:1034D00054E2E51AF108E701F7FC279673E0D59569
:1034E000C7957A95E1F7638170E04B01E4E28E1AAB
:1034F0009108F40197FC37962F0153E055944794B7
:103500005A95E1F768E0A62EB12CB5010E94BD39AD
:103510006C01C701B5010E94BD397C01C401B50130
:103520000E94BD39A72DB0E01127DD243323A1F07F
:1035300032E13A9FB0013B9F700D1124060F171F17
:10354000025C1B4F61E070E001C0660FCA94EAF7AD
:10355000F8013081632B14C032E13A9FB0013B9FE8
:10356000700D1124060F171F025C1B4F61E070E005
:1035700001C0660FCA94EAF76095F80130816323B1
:103580006083DD27FF2432E1442391F03A9FA001BC
:103590003B9F500D1124C40FD51FC25CDB4F41E08F
:1035A00050E001C0440FEA94EAF73881432B12C07F
:1035B0003A9FA0013B9F500D1124C40FD51FC25C40
:1035C000DB4F41E050E001C0440FEA94EAF7409538
:1035D000388143234883A2015527992792E19A9F76
:1035E000F0019B9FF00D1124E40FF51FE25CFB4FEF
:1035F000222361F021E030E0A90102C0440F551FF1
:103600008A95E2F7CA019081892B0CC021E030E055
:10361000A90102C0440F551F8A95E2F7CA0180959F
:1036200090818923808381E080933D04DF91CF9155
:103630001F910F91FF90EF90DF90CF90BF90AF90D0
:103640009F908F907F905F904F900895CF9390912F
:103650006204992351F0C62F6CE875E00E94791935
:103660006CE176E08C2F0E94791910926204CF9160
:103670000895EF92FF920F931F93CF93DF93909152
:103680003D049923D9F0162F082F8EE3E82E84E00D
:10369000F82EC0E0D0E0F70141917F016C2F802F20
:1036A0000E946D19FE01E25CFB4F42896C2F812F55
:1036B0000E946D192196C231D10569F7DF91CF9132
:1036C0001F910F91FF90EF9008951092B9008CE038
:1036D0008093B8000895EF92FF920F931F93CF93BA
:1036E000DF93182FEB011092BC0084EA8093BC009A
:1036F0000E94952A7C019091BC0097FD0EC0CF3F9F
:103700008FEFD807C1F30E94952A8E199F098C1755
:103710009D0788F38EEF9FEF2EC09091B900987FA0
:10372000983041F09091B900987F903119F08FEF67
:103730009FEF21C01093BB0084E88093BC000E94DF
:10374000952A8C019091BC0097FD0CC0CF3F8FEF64
:10375000D807C1F30E94952A801B910B8C179D07F7
:1037600088F3D8CF8091B900887F883111F08034F8
:10377000F1F680E090E0DF91CF911F910F91FF90E3
:10378000EF9008950F931F93CF93DF93EB018093F6
:10379000BB0084E88093BC000E94952A8C01909124
:1037A000BC0097FD0EC0CF3F8FEFD807C1F30E943A
:1037B000952A801B910B8C179D0788F38EEF9FEF46
:1037C0000CC02091B900287F81E090E0283211F4EC
:1037D00080E090E0919581959109DF91CF911F91C3
:1037E0000F9108950F931F93CF93DF93EC0184E81B
:1037F0008093BC000E94952A8C019091BC0097FD9B
:103800000EC0CF3F8FEFD807C1F30E94952A801BCF
:10381000910B8C179D0788F38EEF9FEF03C080916B
:10382000BB0090E0DF91CF911F910F9108950F930E
:103830001F93CF93DF93EC0184E98093BC000E9437
:10384000952A8C019091BC0094FF0EC0CF3F8FEF62
:10385000D807C1F30E94952A801B910B8C179D07F6
:1038600088F38EEF9FEF02C080E090E0DF91CF9170
:103870001F910F910895CF92DF92EF92FF920F93D5
:103880001F93CF93DF936B017A018901B9010E94E5
:103890006B1BFC01892BC9F4E601EC0CFD1CCE1559
:1038A000DF0541F0B80189910E94C21BFC01892B00
:1038B000B1F30BC0C801DF91CF911F910F91FF9021
:1038C000EF90DF90CF900C94171CCF01DF91CF9138
:1038D0001F910F91FF90EF90DF90CF9008959093FC
:1038E0006804809367040895E0916704F091680488
:1038F000309721F00190F081E02D099480E0089547
:10390000E0916704F0916804309721F00280F38120
:10391000E02D09940895E0916704F09168043097D0
:1039200021F00480F581E02D09940895209165042B
:10393000309166048217930771F090936604809328
:103940006504E0916704F0916804309721F00680E7
:10395000F781E02D09940895209163043091640467
:103960008217930771F09093640480936304E0914D
:103970006704F0916804309721F00084F185E02D10
:103980000994089585B7806885BF85B7806885BF2D
:10399000089508950E94C21C0C94C91C81E00895EA
:1039A0000E948C2A0E9403040C94232BCF92DF9256
:1039B000EF92FF920F931F93CF93DF93CDB7DEB7B4
:1039C0002B970FB6F894DEBF0FBECDBF0E947504D3
:1039D0000E94CE1C811111C08FEF89838A831B82C4
:1039E0000E94952A8160782F9D838C8349815A811A
:1039F0006B818D810E94BA1D56C08AE6C82E84E074
:103A0000D82E00E010E0E02E802F0E94E304F601A3
:103A100041916F01F42EF82631F40F5F1F4F0E30E5
:103A2000110589F7D9CF9091250591FF04C08B87A7
:103A30000E94E9048B8520E030E04F2D50E0922F6A
:103A4000BA01022E02C0759567950A94E2F760FFED
:103A500024C02E83EF8221E030E0690102C0CC0C4B
:103A6000DD1C9A95E2F790E08C219D21892B09F4C9
:103A700020E028870E94952A8160782F9A8789877D
:103A80004E815F8168858A850E94BA1DF801E659DA
:103A9000FB4F8081C826C08206C02F5F3F4F263073
:103AA000310569F6BACF0E94B62C109169040E94C4
:103AB000741C1817A1F00E94741C809369042B9643
:103AC0000FB6F894DEBF0FBECDBFDF91CF911F912F
:103AD0000F91FF90EF90DF90CF900C9436062B96CD
:103AE0000FB6F894DEBF0FBECDBFDF91CF911F910F
:103AF0000F91FF90EF90DF90CF900895DC01119629
:103B00002C9111978C91682F70E041E050E001C03A
:103B1000440F8A95EAF712968C91129730E0882329
:103B200029F0809188048823E9F006C0F901E8585B
:103B3000FB4F90819423B1F086E0829FF001839F38
:103B4000F00D1124E60FF71FEE0FFF1FEE55FD4F8E
:103B5000808191818D939C93F901E858FB4F80817E
:103B6000482B06C0F901E858FB4F40958081482357
:103B700040830895CF93DF93CDB7DEB72B970FB671
:103B8000F894DEBF0FBECDBF942F4F83252F5887EB
:103B900069877A878B874A855B85452B21F02F3F84
:103BA00009F59F3FF9F4DE01119686E0FD011192BF
:103BB0008A95E9F785E0FE01379601900D928A9586
:103BC000E1F749815A816B817C818D819E810E94C0
:103BD0003C252B960FB6F894DEBF0FBECDBFDF910C
:103BE000CF910895CE0107960E947E1DDCCFFC0187
:103BF000808191810E94082892959F70963041F4AF
:103C00008091880491E089278093880490938704A9
:103C10000895CF93DF931F92CDB7DEB7882309F4C1
:103C20000DC1682F8238C1F40E94741C81FD06C149
:103C300069E380911001909111010E94F2290E9484
:103C400067282FEF81EE94E0215080409040E1F70B
:103C500000C0000069E319C0833811F50E94741C8C
:103C600080FDECC063E580911001909111010E94EC
:103C7000F2290E9467282FEF81EE94E021508040C6
:103C80009040E1F700C0000063E580911001909141
:103C900011010E94FD290F90DF91CF910C946728AC
:103CA0008438C1F40E94741C82FDC8C067E480910E
:103CB0001001909111010E94F2290E9467282FEFB4
:103CC00081EE94E0215080409040E1F700C0000078
:103CD00067E4DBCF8CEF860F813A70F4862F69831F
:103CE0000E94EC2E69818111A9C0809110019091F0
:103CF00011010E94F229CFCF80E2860F883048F46C
:103D0000677081E001C0880F6A95EAF70E949D28DC
:103D1000C2CF8BE5860F833088F4653A29F0663A86
:103D200031F083E890E005C081E890E002C082E8CD
:103D300090E00F90DF91CF910C94961C88E5860F50
:103D4000853108F071C0683A61F1693A69F16A3AFF
:103D500071F16B3A79F16C3A81F16B3B89F16C3B13
:103D600091F16D3A99F1603BA1F16E3AA9F16F3A88
:103D7000B1F1613BB9F1623BC1F1633BC9F1643B15
:103D8000D1F1653BD9F1663BE1F1673BE9F1683B75
:103D9000F1F1693BF9F16A3B09F43FC080E090E042
:103DA0003EC082EE90E03BC089EE90E038C08AEEE3
:103DB00090E035C085EB90E032C086EB90E02FC0FC
:103DC00083EB90E02CC084EB90E029C087EB90E07F
:103DD00026C08CEC90E023C08DEC90E020C083E8FE
:103DE00091E01DC08AE891E01AC082E991E017C015
:103DF00084E991E014C081E292E011C083E292E094
:103E00000EC084E292E00BC085E292E008C086E238
:103E100092E005C087E292E002C08AE292E00F9051
:103E2000DF91CF910C94AC1C603F40F0862F0E9434
:103E3000BE2B0F90DF91CF910C94AB2C0F90DF91A4
:103E4000CF910895882309F464C0823879F40E94E0
:103E5000741C81FF5EC069E3809110019091110193
:103E60000E94F2290E94672869E310C08338B1F4E8
:103E70000E94741C80FF4DC063E5809110019091F9
:103E800011010E94F2290E94672863E580911001C8
:103E9000909111010E94FD290C946728843879F4CF
:103EA0000E94741C82FF35C067E4809110019091DC
:103EB00011010E94F2290E94672867E4E7CF9CEF76
:103EC000980F913A10F4682FE1CF90E2980F983054
:103ED00050F4877091E001C0990F8A95EAF7892F15
:103EE0000E94A328D9CF9BE5980F933020F480E05F
:103EF00090E00C94961C98E5980F953120F480E0A2
:103F000090E00C94AC1C803F20F00E94262C0C9476
:103F1000AB2C0895882321F00E949D280C946728DB
:103F20000895882321F00E94A3280C9467280895FF
:103F30008F929F92AF92BF92DF92EF92FF920F9378
:103F40001F93CF93DF937C01D62FC72FFC010581F0
:103F500002950F70128111110E94BA280E946028E8
:103F6000882379F0112369F080E28D0F883048F0C2
:103F700082E00E9449280E94602891E0D82ED9262C
:103F800001C0D12CAC2EA2948FE0A822B12CF50157
:103F9000EF57FF4F0C94D1398C2F807FCF7088233F
:103FA00011F0C295C07F112399F0CC2309F4C8C148
:103FB00080E28D0F883010F0D11104C08C2F0E9448
:103FC0009D2803C08C2F0E94AD280E946728B8C18D
:103FD0008D2F0E94221FCC2309F42EC280E28D0F68
:103FE000883010F0D11104C08C2F0E94A32803C088
:103FF0008C2F0E94B3280E9467281EC28C2F807FBE
:10400000CF70803211F0C295C07FDD2319F0D1301E
:10401000C9F021C0112371F0002341F0013031F4C7
:104020000E94D3288C2B0E94CD2806C20E94D32840
:104030008C2B3FC1002319F0013009F4FDC10E940F
:10404000D02811C0112321F0023008F0F5C107C0BB
:104050000111F2C108C0112321F0011171C18C2F8F
:1040600028C101117EC18C2F2AC18C2F869586957F
:10407000837090E0009719F0019761F0DDC1112382
:1040800021F08D2F9C2F937002C080E090E00E9461
:10409000961CE2C1112321F08D2F9C2F937002C03A
:1040A00080E090E00E94AC1CD7C11123F9F0D53F0D
:1040B00051F0D63F71F0D43FA9F48091C0069091A1
:1040C000C10681600BC08091C0069091C1068260DC
:1040D00005C08091C0069091C10684609093C1068E
:1040E0008093C0068D2F0E94BE2B1EC0D53F51F07D
:1040F000D63F71F0D43FA9F48091C0069091C106DB
:104100008E7F0BC08091C0069091C1068D7F05C047
:104110008091C0069091C1068B7F9093C1068093D9
:10412000C0068D2F0E94262C0E94AB2C95C18C2F8F
:10413000837009F050C011118BC18D2F8295869527
:104140008770880F880F9D2F9F70892E912CA12C2E
:10415000B12C082E04C0880C991CAA1CBB1C0A9404
:10416000D2F7D4FF14C00FE010E020E030E0B90136
:10417000A80104C0440F551F661F771F8A95D2F708
:10418000CB01BA01609570958095909503C060E071
:1041900070E0CB01C695C695C370D0E0C230D105A2
:1041A00061F0C330D10581F0682979298A299B29DA
:1041B000219771F00E9481264BC1682979298A29AB
:1041C0009B290E94932644C10E948126C501B40107
:1041D0000E946F263DC1112319F08C2F817001C000
:1041E0008695882309F434C18D2F82958695877032
:1041F000880F880F9D2F9F70892E912CA12CB12C98
:10420000082E04C0880C991CAA1CBB1C0A94D2F767
:10421000D4FF14C00FE010E020E030E0B901A801A5
:1042200004C0440F551F661F771F8A95D2F7CB0134
:10423000BA01609570958095909503C060E070E03C
:10424000CB01C695C695C3704C2F50E04230510546
:1042500069F04330510589F0682979298A299B2919
:104260004130510571F00E944727F2C06829792931
:104270008A299B290E945927EBC00E944727C50124
:10428000B4010E943527E4C08D2F90E0FC01E05E70
:10429000F109E531F10508F04FC0EF56FF4F0C94DE
:1042A000D139DF708C2F8F71112331F00E94CE260F
:1042B0008D2F0E948A1FC0C00E94EF268D2F0E9462
:1042C000911FBAC0112339F00111B6C08C2F8F7124
:1042D0000E941427B1C0023008F0AEC0F7CF1123FE
:1042E00039F08C2F8F710E94CE26A6C01123C9F3FE
:1042F0008C2F8F710E94EF269FC0112329F08C2FE5
:104300008F710E94B92698C00E94B42695C01123CF
:1043100049F0CF718C2F0E94CE2663E08C2F0E9433
:1043200040288AC081E00E944928023008F484C0F5
:1043300082E00E94492880C0112331F0002389F2D5
:104340008D2F0E94091E78C0002391F2D93349F4C1
:104350005FEF67EE73E0515060407040E1F700C0DE
:1043600000008D2F0E94221F67C04C2F4F706D2FB1
:10437000C7010E94D3050E94E0256EC0D23FB1F074
:1043800028F4D03F49F0D13FF9F028C0D43FB9F02C
:1043900058F0D53F71F022C0112309F447C0909125
:1043A000880481E0892708C081E0182710938804D9
:1043B0003DC011113BC081E08093880437C01111CA
:1043C00035C01092880432C0112329F080918704EF
:1043D000882329F329C0002311F328C08091870482
:1043E0000023C1F0882341F09091880481E089275F
:1043F00080938804109287048D2F112319F00E9456
:10440000091E14C00E94221F86E0F70111928A95AE
:10441000E9F70CC0882351F0111108C0909188046D
:1044200081E0892780938804109287044C2F4F7075
:104430006D2FC7010E940D09F8E0AF16B10441F0DD
:104440005CF04AE0A41AB10852E0A516B10420F4C9
:104450000E94741C0E943606DD20E1F00E943C2878
:1044600080FD18C0F70112820E9436280E94CE26D5
:10447000C7010E9456220E943628DF91CF911F91DA
:104480000F91FF90EF90DF90BF90AF909F908F9033
:104490000C94EF26DF91CF911F910F91FF90EF9039
:1044A000DF90BF90AF909F908F9008950F931F93D0
:1044B000CF93DF93EC01888199812B813C81232B61
:1044C000B9F09F3F11F48F3F99F0CE010E9448064A
:1044D000882371F0688179818A810E9413288C0178
:1044E0000E946B270E946C26B801CE010E94981F83
:1044F000DF91CF911F910F9108950E94BA280E94D9
:10450000CA2880911001909111010E94082A0E94EE
:1045100067280E94512D0E94AB2C80E090E00E9401
:10452000961C80E090E00C94AC1C0E94AA280C948D
:104530007D220E940828E92FE295EF70F0E0329783
:10454000EE30F105B0F4EA55FF4F0C94D139803FBD
:1045500091F018F4803E68F40EC0843F51F40BC013
:10456000803E48F0813F29F406C093FB882780F9FC
:10457000089580E0089581E00895CF93DF9300D0FF
:1045800000D01F92CDB7DEB70F900F900F900F9015
:104590000F90DF91CF910895CF93DF9300D000D09B
:1045A00000D0CDB7DEB726960FB6F894DEBF0FBEAB
:1045B000CDBFDF91CF9108951F93CF93DF93C0912B
:1045C000890416E080918A04C81799F0D0E01C9FF6
:1045D000F0011D9FF00D1124E557FB4F40815181E3
:1045E00062817381848195810E94CC222196C7705B
:1045F000E9CFDF91CF911F9108954091BB04509175
:10460000BC046091BD047091BE048091BF04909180
:10461000C0040C94CC228091C00482958F7009F064
:1046200054C08091BD04882309F44FC0809189044F
:10463000A0918A046091BB047091BC044091BE04B7
:104640005091BF04B6E08A1709F43FC090E04115CD
:104650005105C1F17F3F11F46F3FA1F1B89FF00107
:10466000B99FF00D1124E557FB4F218172132AC029
:104670002081621327C02281211124C0238134812B
:104680002417350710F421503109241B350B283C21
:104690003105C0F42091C0042F7020612093C00424
:1046A00026E0289FF001299FF00D1124E057FB4FD1
:1046B00080818F70806180838BEB94E00E94562212
:1046C0000C94DC2201968770BECF0895CF92DF92C2
:1046D000EF92FF920F931F93CF93DF93CDB7DEB787
:1046E00062970FB6F894DEBF0FBECDBF8C0185E098
:1046F000F801DE011D9601900D928A95E1F7D8012F
:104700004C9111965C91119712966C911297139699
:10471000CD90DC9014973091BB047091BC048091D3
:10472000BE049091BF04009709F46BC17F3F19F458
:104730003F3F09F466C1E090BD04EE2009F4C0C01B
:104740002091C004C816D90628F0F601E81BF90B21
:10475000CF0104C0809590958C0D9D1DFF24F3948E
:10476000883C910578F0F12C207F09F0C6C07C2DA3
:10477000D98AC88A89890E94BD228BEB94E00E9465
:104780005622B1C0822F807F09F046C0751314C035
:10479000341312C0611110C02F7020612093C00427
:1047A0000E94FD228BEB94E00E9456228091C0046F
:1047B000D80115968C932EC0CD2819F15F3F11F4C6
:1047C0004F3FF9F0F62E61111CC0809189042091B1
:1047D0008A0436E0821709F45AC090E0389FF0014D
:1047E000399FF00D1124E557FB4F7181571306C017
:1047F0007081471303C07281711103C001968770E5
:10480000E9CFF62E662309F427C18091C0048160A8
:104810008093C004F12C20C1751308C0341306C066
:10482000611104C08091C004D801C3C04D875E8768
:104830008D859E856A8B0E9499226A898823E1F181
:104840006623D1F12091C004822F82958F7090E071
:10485000029774F08091BB049091BC0498878F8379
:104860001986DB86CA862C87CE0107960E945622BF
:1048700086E0F801ABEBB4E001900D928A95E1F788
:104880000E940B230E94FD22FF24F394E5C04D8774
:104890005E878D859E850E940828292F22952F707E
:1048A00030E0223031050CF0CBC09F7009F0C5C05C
:1048B000805E883008F4D0C0C8010E945622E4CF40
:1048C000C816D90608F453C0F601E81BF90BCF014E
:1048D000883C910508F450C0F12C7C2DD98AC88AF7
:1048E00089890E94BD22EBEBF4E086E0DF011D9296
:1048F0008A95E9F70E94FD22AFC0751314C03413E6
:1049000012C0611110C08091C004F8018583C801F4
:104910000E94562286E0EBEBF4E0DF011D928A95BF
:10492000E9F7FE2C99C04D875E878D859E856A8B41
:104930000E9499226A89882309F4BECF662309F46C
:10494000BBCF2091C004822F82958F7090E0029798
:104950000CF48ECF8091BB049091BC049A83898320
:104960001B82DD82CC822E83CE0101967FCF809583
:1049700090958C0D9D1DACCFF62E662309F49CCF2F
:1049800075132EC034132CC02091C00420FD1FC00D
:10499000822F82958F70D9F0D80115962C93159798
:1049A0008F3049F08F5F982F9295907F822F8F7074
:1049B000892B15968C93C8010E94562286E0F80137
:1049C000ABEBB4E001900D928A95E1F793CF86E0CE
:1049D000F801ABEBB4E001900D928A95E1F73CC091
:1049E0004D875E878D859E850E949922811140CFDB
:1049F0008091C00481608093C004C8010E94562247
:104A00002BC0662309F458CF4D875E878D859E8520
:104A10000E949922F82E882309F44ECF86E0F801EF
:104A2000ABEBB4E001900D928A95E1F78BEB94E04B
:104A30000E94F71D0E940B235DCF811139CF0CC05E
:104A4000243031050CF038CF9F7009F431CFF801D4
:104A50009581907F09F02CCF8F2D62960FB6F89438
:104A6000DEBF0FBECDBFDF91CF911F910F91FF90A1
:104A7000EF90DF90CF9008951F93CF93DF93CDB742
:104A8000DEB72C970FB6F894DEBF0FBECDBF4F83B5
:104A9000588769877A878B879C87CE0107960E9403
:104AA0006623882369F08F8198852A853B85232B8F
:104AB000F1F19F3F09F063C08F3F09F060C037C03C
:104AC00086E0FE013796DE01119601900D928A95DF
:104AD000E1F76F817885EA85FB85309741F17F3F6B
:104AE00011F46F3F21F120918A0430E0C901019651
:104AF000877099274091890450E08417950709F43D
:104B000047C069837A83FD83EC8396E0929FD0014E
:104B1000939FB00D1124A557BB4FFE013196019014
:104B20000D929A95E1F780938A040E94DC2216E0A8
:104B30008091890490918A048917C1F1189FC0015E
:104B4000112485579B4F0E946623882379F1E091B9
:104B500089041E9FF0011124E557FB4F40815181CC
:104B600062817381848195810E94CC228091890425
:104B700090E001968770992780938904D9CF4F815F
:104B8000588569857A858B859C850E94CC22CFCFFC
:104B90000E94952210928A0410928904EBEBF4E0B3
:104BA00086E0DF011D928A95E9F7C1CF2C960FB6FA
:104BB000F894DEBF0FBECDBFDF91CF911F91089556
:104BC000EF92FF920F931F93CF93DF938C01892B6A
:104BD00009F46CC0F12CEE24E394E8012196F8016D
:104BE0008491843740F4843008F051C0813081F0E2
:104BF000823019F15BC0853709F444C0A8F19CE705
:104C0000980F903708F052C08F770E94221F41C042
:104C10000E5F1F4FFE01C49180E28C0F883048F474
:104C2000C7708E2D01C0880FCA95EAF70E94BD2873
:104C300014C08C2F0E94091E2DC00E5F1F4FFE0155
:104C4000C49180E28C0F883058F4C7708E2D01C05B
:104C5000880FCA95EAF70E94C3280E9467281AC0E5
:104C60008C2F0E94221F16C00E5F1F4FFE01C491A1
:104C7000CC2381F08FE99FE00197F1F700C000009D
:104C8000C150F6CF0E5F1F4FFE01F49003C00E948B
:104C9000091E8E018F2D882309F49FCFEFE9FFE0D5
:104CA0003197F1F700C000008150F5CFDF91CF912F
:104CB0001F910F91FF90EF90089508950C945D2639
:104CC0000E945E266093FC047093FD048093FE04B2
:104CD0009093FF040C947D2208950C9460260F930A
:104CE0001F930091FC041091FD042091FE0430916B
:104CF000FF04602B712B822B932B1F910F910C942F
:104D000060260F931F930091FC041091FD042091E5
:104D1000FE043091FF0460237123822393231F91AB
:104D20000F910C9460260F931F930091FC04109137
:104D3000FD042091FE043091FF0460277127822733
:104D400093271F910F910C94602608950C94A5262B
:104D50000E94A6266093F8047093F9048093FA04E5
:104D60009093FB040C947D2260E070E0CB010C94E6
:104D7000A8260F931F9341E050E060E070E08A01A5
:104D80009B0104C0000F111F221F331F8A95D2F709
:104D9000C901B8011F910F910C94A8260F931F937E
:104DA00041E050E060E070E004C0440F551F661F12
:104DB000771F8A95D2F78091F8049091F904A09119
:104DC000FA04B091FB048A019B01082B192B2A2BB2
:104DD0003B2BC901B8011F910F910C94A8260F938A
:104DE0001F9341E050E060E070E004C0440F551FA5
:104DF000661F771F8A95D2F74095509560957095FC
:104E00008091F8049091F904A091FA04B091FB0408
:104E10008A019B01082319232A233B23C901B801D6
:104E20001F910F910C94A8260F931F9341E050E01F
:104E300060E070E004C0440F551F661F771F8A951D
:104E4000D2F78091F8049091F904A091FA04B091FE
:104E5000FB048A019B01082719272A273B27C90140
:104E6000B8011F910F910C94A8260F931F930091E6
:104E7000F8041091F9042091FA043091FB04602B9E
:104E8000712B822B932B1F910F910C94A8260F93BB
:104E90001F930091F8041091F9042091FA043091C5
:104EA000FB0460237123822393231F910F910C94A1
:104EB000A8260F931F930091F8041091F9042091F4
:104EC000FA043091FB0460277127822793271F91F2
:104ED0000F910C94A8260895292F220F920F990F55
:104EE000890FA82FA695A695A695877051E001C0B9
:104EF000550F8A95EAF785E0A89FD001112420E09C
:104F000030E070E0F901EA0FFB1FEF53FB4F4081E7
:104F1000CB01022E02C0969587950A94E2F7817024
:104F20009927819584278523842780832F5F3F4F8E
:104F30002530310539F70895292F220F920F990F47
:104F4000890F682F669566956695982F977085E00E
:104F5000689FB001112440E050E080E0FA01E60FC4
:104F6000F71FEF53FB4F208130E0092E02C036952A
:104F700027950A94E2F721703327042E01C0220FEF
:104F80000A94EAF7822B4F5F5F4F4530510531F7A6
:104F90000895CF92DF92EF92FF920F931F93CF93DA
:104FA000DF938C01C090FC04D090FD04E090FE04DF
:104FB000F090FF048091F8049091F904A091FA0414
:104FC000B091FB04C82AD92AEA2AFB2ACFE1D0E013
:104FD000D701C6010C2E04C0B695A7959795879565
:104FE0000A94D2F780FF06C0B8018C2F0E942809CE
:104FF000019721F4219760F780E001C08C2FDF91A9
:10500000CF911F910F91FF90EF90DF90CF90089577
:10501000CF93DF93EC010E94C927BE010E942809AB
:10502000DF91CF9108951F93CF93DF93EB01909180
:105030008604992321F0CB010E94082813C08823FD
:1050400049F0CB010E94C927182F682FCE010E947A
:105050006C2704C0CB010E949C27182FBE01812F12
:105060000E942809DF91CF911F910895809100053A
:10507000859585958595089580910005877008959B
:1050800098E0899F90011124262B209300050C9411
:10509000CE26209100058095822380930005982FCD
:1050A000977069F430E0482F082E000C550B241738
:1050B000350729F08595859585950C94EF260895FB
:1050C00090910005977081E009F480E00895E091E7
:1050D0001001F0911101809124058083E09110016D
:1050E000F0911101908180912305892B8083E091BB
:1050F0001001F0911101908180912205892B80830C
:1051000080910105882381F0E0911001F091110157
:105110009081892B808380911001909111010E94D0
:105120009629811110920105809110019091110131
:105130000C94801C80912405089590912405892B5E
:105140008093240508958095909124058923809368
:105150002405089510922405089590912305892B24
:10516000809323050895809590912305892380934A
:105170002305089510922305089590912205892B07
:10518000809322050895809590912205892380932C
:10519000220508951092220508958093010508952F
:1051A000109201050895809101050895CF92DF9234
:1051B000EF92FF926C01EE24FF24C114D104E104AC
:1051C000F10421F0C701B60120E101C020E0C72EA3
:1051D000D82EE92EFF24C114D104E104F10419F002
:1051E000285FC701B6016B017C0154E0F694E79497
:1051F000D794C7945A95D1F7C114D104E104F104AE
:1052000019F02C5FC701B6016B017C0142E0F694F6
:10521000E794D794C7944A95D1F7C114D104E10417
:10522000F10419F02E5FC701B601DC01CB01B69580
:10523000A79597958795892B8A2B8B2B09F02F5F44
:10524000822FFF90EF90DF90CF90089580E090E064
:105250000E94413A21E08D3E9E4F09F020E0822FCE
:10526000089582E090E00C94333A83E090E00C944F
:10527000333A84E090E00C94333A682F84E090E075
:105280000C94473AAB01BC018FE090E00C94593A82
:10529000AB01BC0183E190E00C94593A60E070E00E
:1052A000CB010C94482960E070E0CB010E944229B8
:1052B0000C944E296DEE7EEF80E090E00E94653AFE
:1052C00060E082E090E00E94473A60E083E090E096
:1052D0000E94473A1092FC041092FD041092FE04C2
:1052E0001092FF0460E084E090E00E94473A60E0A2
:1052F00085E090E00E94473A60E086E090E00E94FE
:10530000473A6FEF87E090E00E94473A40E050E074
:10531000BA0188E090E00E94593A60E08DE090E0A8
:105320000E94473A0C9453290C945A29FC01319657
:105330009C01205E3F4F80E0919191118F5FE217B9
:10534000F307D1F708959C01FC0132969FEF80E0AE
:105350004191461789F09F3F19F4411101C0982FE0
:105360008F5F8E31A9F79F3F39F0F901E90FF11DE9
:1053700097FDFA95628308950895FC013296809610
:105380002081261301C010823196E817F907C1F772
:105390000895262F2695269526952F3168F4FC0131
:1053A000E20FF11D677021E030E001C0220F6A9525
:1053B000EAF78181282B21830895262F26952695AB
:1053C00026952F3170F4FC01E20FF11D677021E08A
:1053D00030E001C0220F6A95EAF7209581812823E9
:1053E0002183089520912101222329F02091C606CE
:1053F00027FD0C94C9290C94A32920912101222373
:1054000029F02091C60627FD0C94DD290C94BD29B6
:10541000FC01319680961192E817F907E1F708959B
:1054200008950C94102A0E94112A8091CC06843091
:1054300049F11092260520E488E190E00FB6F89437
:10544000A895809360000FBE2093600080E00E94CA
:1054500036060E94112A83B7817F846083BF83B799
:10546000816083BF7894889583B78E7F83BF0FB6A2
:10547000F894A895809160008861809360001092F4
:1054800060000FBE08950895CF930E9425040E94E6
:1054900075040E94432AC0E08C2F0E94E30481110E
:1054A00004C0CF5FCE30C1F701C081E0CF91089535
:1054B00008950C94582A0E9495220E94741C0E9400
:1054C00036060C94592A1F920F920FB60F92112490
:1054D0008F939F93AF93BF9380912605811113C043
:1054E0008091C2069091C306A091C406B091C506F2
:1054F0004196A11DB11D8093C2069093C306A0934F
:10550000C406B093C506BF91AF919F918F910F9044
:105510000FBE0F901F90189582E084BD93E095BD5B
:105520009AEF97BD80936E0008952FB7F8948091FD
:10553000C2069091C306A091C406B091C5062FBFC4
:105540000895CF92DF92EF92FF920F931F932FB7A0
:10555000F8944091C2065091C3066091C4067091C0
:10556000C5062FBF6A017B01EE24FF248C0120E0D9
:1055700030E0C016D106E206F30610F4415051099E
:105580009A01281B390BC9011F910F91FF90EF90D1
:10559000DF90CF90089578941F920F920FB60F92DC
:1055A00011248F939F93AF93BF938091C2069091E4
:1055B000C306A091C406B091C5060196A11DB11DF8
:1055C0008093C2069093C306A093C406B093C50609
:1055D000BF91AF919F918F910F900FBE0F901F9031
:1055E0001895F89481E08093E00080E28093D800E1
:1055F000E9ECF0E010828FE19EE40197F1F700C042
:1056000000001DBA109268001CBC10BE1FBA109298
:105610007A0010926E0010926F001092710010923A
:1056200072001082ECEBF0E0108214B817B81AB8D0
:105630001DB810BA108215B818B81BB81EB811BA28
:105640000C94003F08950E942629811102C00E94F7
:1056500094290E943129809325050E94392990E0E0
:105660009093C7068093C6060E943529682F70E084
:1056700080E090E00C946D2680912A0580FF0BC09D
:105680006091150185E0689FB001112475956795BB
:10569000759567952BC081FF09C06091150185E064
:1056A000689FB00111247595679520C082FF07C0DF
:1056B0006091150185E0689FB001112417C0909199
:1056C0002B059923D1F060911401961788F720914A
:1056D000150185E0289F90011124929FA001939FBE
:1056E000500D112470E0CA010E94BD396038710567
:1056F00040F46115710539F002C065E070E0862F55
:1057000008958FE7089581E0089580912A0580FF2C
:1057100008C06091130170E0759567957595679560
:1057200021C081FF06C06091130170E075956795F7
:1057300019C082FF04C06091130170E010C0909105
:105740002B059923C1F0609112019617A0F7809163
:105750001301899FC001112470E00E94BD39603897
:10576000710528F46115710521F0862F08958FE7E2
:10577000089581E0089561E070E0F4CF803F21F466
:105780000E943C2B819504C0813F29F40E943C2B50
:1057900080932E050895823F21F40E943C2B819531
:1057A00004C0833F29F40E943C2B80932D0508956B
:1057B000893F19F40E94852B05C08A3F31F40E946D
:1057C000852B819580932F0508958B3F21F40E94AE
:1057D000852B819504C08C3F29F40E94852B8093F2
:1057E00030050895843F21F480912C05816017C015
:1057F000853F21F480912C05826011C0863F21F401
:1058000080912C0584600BC0873F21F480912C058A
:10581000886005C0883F31F480912C0580618093B9
:105820002C0508958D3F21F480912A0581600BC0DD
:105830008E3F21F480912A05826005C08F3F29F4B4
:1058400080912A05846080932A050895803F39F469
:1058500080912E0587FF6CC010922E0569C0813F94
:1058600029F480912E051816BCF362C090912D0585
:10587000823F29F497FF5CC010922D0559C0833FE9
:1058800019F41916CCF354C0893F41F480912F05C7
:1058900018160CF04DC010922F054AC08A3F29F40B
:1058A00080912F0587FF44C0F6CF8B3F39F480915C
:1058B000300587FF3DC0109230053AC08C3F29F477
:1058C000809130051816BCF333C0843F21F48091D9
:1058D0002C058E7F17C0853F21F480912C058D7F8C
:1058E00011C0863F21F480912C058B7F0BC0873F30
:1058F00021F480912C05877F05C0883F31F4809189
:105900002C058F7E80932C0513C08D3F21F4809150
:105910002A058E7F0BC08E3F21F480912A058D7F52
:1059200005C08F3F29F480912A058B7F80932A053B
:1059300080912D0581110EC080912E0581110AC024
:1059400080912F05811106C080913005811102C020
:1059500010922B0508958CE295E00E948B1C0E940A
:10596000952A909328058093270508951F93CF9338
:10597000DF9380912705909128050E94A12AAC0110
:1059800090912B05992321F02091160130E006C05B
:10599000209129058AE0289F90011124421753077E
:1059A00008F47BC080912D05C0912E05D0912F0564
:1059B00010913005811107C0C1116BC0D11169C0B0
:1059C000111167C06AC09F3F19F09F5F90932B052C
:1059D000181624F40E943C2B80932D0580912D05F0
:1059E00087FF05C00E943C2B819580932D051C16D6
:1059F00024F40E943C2B80932E0580912E0587FF76
:105A000005C00E943C2B819580932E0530912D0579
:105A10003323E1F020912E052223C1F045EB34031E
:105A2000C0011124892F990F990B009709F481E087
:105A300080932D0535EB2303C0011124892F990F85
:105A4000990B009709F481E080932E051D1624F42C
:105A50000E94852B80932F0580912F0587FF05C01D
:105A60000E94852B819580932F05111624F40E94A6
:105A7000852B809330058091300587FF05C00E94FB
:105A8000852B819580933005DF91CF911F910C94E8
:105A9000AB2C9F3F09F099CFA1CFDF91CF911F9100
:105AA0000895ECE2F5E085E0DF011D928A95E9F7C3
:105AB00010922B0510922A050895833081F128F465
:105AC000813059F08230D1F00895853009F449C011
:105AD000B8F1863009F456C0089580912905262F23
