:100000000C947A030C9497030C9497030C94970325
:100010000C9497030C9497030C9497030C949703F8
:100020000C9497030C9497030C943D350C940F3665
:100030000C94752B0C9497030C9497030C949703D2
:100040000C9497030C9497030C9497030C949703C8
:100050000C9497030C94DD2B0C9497030C9497034A
:100060000C9497030C9497030C9497030C949703A8
:100070000C9497030C9497030C9497030C94970398
:100080000C9497030C9497030C9497030C94970388
:100090000C9497030C9497030C9497030C94970378
:1000A0000C9497030C9497030C949703EF03F203BB
:1000B000F503F803FB03FD0300043D073F074A0770
:1000C000410743074507470749074C074E075007B5
:1000D0005B0752075407560758075A075D07FF1773
:1000E0000218051808180B180E18111814181718EC
:1000F0001A181D1820182318261829182C182F181C
:1001000032183020302062206220AB20CB205022D9
:10011000AE220D21AE22BA21BA214722AE22AE2252
:10012000A822C721C721C721C721C721C721C721AD
:10013000C721C721C721C721C721C721C721C7217F
:10014000C721D821E521EC21F321FD213F233F23C5
:100150005123512348235123512351233F233F232C
:100160004D23512351234D237C36A3369537A33697
:100170009537EF36123795376837773705A84CCD66
:10018000B2D44EB93836A9020C50B9918688083CD1
:10019000A6AAAA2ABE000000803F0000F0A22E00FE
:1001A000210225020255015500001E001400040022
:1001B0001D6134004C001F001A0015001B003500A3
:1001C0002A00200009001600060050002C00210023
:1001D0001300170019004F004D0022000A0007000D
:1001E000050000006561F15B01530000025300004F
:1001F0004A00F15B0153000002530000E3002300BA
:100200000D000B000E000000296224000F001100F9
:10021000100052004B002500180008003600510065
:10022000286426001C000C0037002F002B0027003C
:1002300033001200380030004E002D003100340031
:100240001255115500002E021F022002010001006C
:1002500000001E02140204021D02010001001F0220
:100260001A0215021B0235020100200209021602C1
:100270000602010001002102130217021902010007
:10028000010022020A02070205020000010001002B
:100290000100000001000000010001000100000059
:1002A00001000000010023020D020B020E020000FB
:1002B000010024020F0211021002010001002502B8
:1002C0001802080236020100010026021C020C027C
:1002D00037022F02010027023302120238023002D5
:1002E00001002D023102340201000100000057001C
:1002F000240221021E02670000003A0025022202A9
:100300001F02360206013B0031022302200237029F
:1003100001003C002F0226022F00010001003D00D9
:10032000300227023000010019013E00F200F30004
:10033000F40000001B0101000100000001000000AA
:1003400003530100010000000100000003533F00BF
:10035000F000F100370000001601400024002100E9
:100360001E0001001C014100250022001F000100A9
:100370000100420026002300200027000100430066
:1003800055005700540067001D0144004500560009
:10039000380231000000C55CC65CC75CC85CC25C4A
:1003A0000000010001000100010001000100010046
:1003B0000100F2000100010001000100F000F10065
:1003C0000100F400010001000100F3000100F5004C
:1003D0000100010001000100010000000100010016
:1003E0000100000001000000010001000100000008
:1003F00001000000010001000100010001000000F7
:1004000001000100010001000100A900010001003C
:1004100001000100AC00AA00010001000100010080
:10042000AB00A80001000100010001000100010073
:10043000010001000100C95CCA5CC35C000000004F
:10044000000000010101010101010101020202029B
:10045000020202020203030303030303030404046E
:100460000404040505050505060606060607070734
:1004700007080808080909090A0A0A0A0B0B0B0CE5
:100480000C0C0D0D0D0E0E0F0F0F1010111111127F
:100490001213131414151516161717181819191AFC
:1004A0001A1B1C1C1D1D1E1F1F202021222223245D
:1004B000252526272728292A2B2B2C2D2E2F2F3098
:1004C000313233343536363738393A3B3C3D3E3FAE
:1004D0004041424344464748494A4B4C4D4F505196
:1004E0005253555657585A5B5C5E5F606263646650
:1004F00067696A6C6D6E707173747678797B7C7ED7
:100500008081838486888A8B8D8F91929496989A25
:100510009B9D9FA1A3A5A7A9ABADAFB1B3B5B7B93B
:10052000BBBDBFC1C4C6C8CACCCFD1D3D6D8DADC14
:10053000DFE1E4E6E8EBEDF0F2F5F7FAFCFF0403A7
:100540003000000016034500720067006F00440091
:100550006F007800200045005A0000001603450097
:10056000720067006F0044006F00780020004500B3
:100570005A0000000403090409026D00040100A0F0
:10058000FA09040000010301010009211101000121
:100590002240000705810308000A09040100010345
:1005A000010200092111010001224D00070582030B
:1005B00008000A09040200010300000009211101DA
:1005C00000012236000705830308000A090403001E
:1005D0000103000000092111010001223900070573
:1005E00084032000011201100100000008EDFE0745
:1005F0001301000102030105010906A10105071904
:10060000E029E71500250195087501810205081903
:100610000129059505750191029501750391010563
:1006200007190029F71500250195F875018102C009
:1006300005010980A10185021601002603001A8127
:10064000002A8300751095018100C0050C0901A1E5
:10065000018503160100269C021A01002A9C0275DE
:100660001095018100C005010902A1010901A10045
:100670000509190129051500250195057501810256
:100680009501750381010501093009311581257F27
:1006900095027508810609381581257F9501750831
:1006A0008106050C0A38021581257F9501750881A0
:1006B00006C0C005010906A101050719E029E715D3
:1006C00000250195087501810295017508810105D4
:1006D0000819012905950575019102950175039188
:1006E000010507190029FF150026FF00950675086A
:1006F0008100C00011241FBECFEFDAE0DEBFCDBF06
:1007000013E0A0E0B1E0E4EEF7E702C005900D923F
:10071000A037B107D9F726E0A0E7B3E001C01D92EA
:10072000AA3DB207E1F70E9464320C94F03B0C94AE
:10073000000080B38C7080BB81B3836F81BB089550
:1007400084B1807F84B985B1807F85B98AB1837F88
:100750008AB98BB1837F8BB93E9846980895CF9321
:10076000E82F873090F58091040190910501892B45
:1007700009F048C0CE2F64E670E080E40E94C11BFF
:100780009093050180930401892BD1F464E670E015
:1007900082E10E94181C9093050180930401892B2B
:1007A00079F481E090E001C0880FCA95EAF764E629
:1007B00070E080950E94181C9093050180930401BD
:1007C00084E690E0CF910C946D1C90E0FC0137978B
:1007D000E730F105B8F4EA5AFF4F0C94E33A209A57
:1007E000289810C0219A29980DC0229A2A980AC0E8
:1007F000239A2B9807C0529A01C0539A5B9802C063
:100800003E9A4698CF910895CF93873008F041C023
:100810008091040190910501892B09F043C064E6A1
:1008200070E080E40E94C11B909305018093040155
:10083000892B11F0C0E027C064E670E083E10E94DC
:10084000181C9093050180930401892B99F764E6A5
:1008500070E081E40E94C11B909305018093040124
:10086000892B41F784E690E00E94481C97FF05C061
:100870009093050180930401DDCFC82FC09510929D
:1008800005011092040184E690E00E946D1C8C2FFB
:100890000AC09FB18FB1807F869586959370892B12
:1008A000809501C080E0CF9108950C9438060E9495
:1008B000AC0590E090930501809304010E94A00391
:1008C0000E94990321E733E0E5ECF3E04EE04E0FA0
:1008D000119280E090E0D901A80FB91F1C920196F7
:1008E00086309105C1F72A5F3F4F4E13F1CF0C942C
:1008F0005D060E94AC0590E0909305018093040191
:100900000E94A0030E949903E5ECF3E08EE08E0FB5
:1009100011928E13FDCF089526E0829FC00111240D
:10092000FC01EF58FC4F20E030E080E041E050E077
:100930009081992319F09150908307C0BA01022E3B
:1009400001C0660F0A94EAF7862B2F5F3F4F31965E
:100950002630310569F7089596E0699FB0011124AA
:1009600020E030E090E04FE0FC01022E02C0F5955F
:10097000E7950A94E2F7E0FF06C0F901E60FF71FDA
:10098000EF58FC4F40832F5F3F4F2630310561F712
:100990000895CF92DF92EF92FF920F931F93CF9320
:1009A000DF938091040190910501892B91F0809152
:1009B00070038F5F8093700381110BC00E94AC05A0
:1009C00090E09093050180930401892B11F40E941B
:1009D0003E0585ECC82E83E0D82E9CECE92E93E0F2
:1009E000F92EC0E08C2F0E94AF0307E00C0F802F80
:1009F0000E94AF038C2F0E948C04182F8C2F0E9412
:100A00000404F6019081D12FD095D9238123D82BCE
:100A10006C2F8D2F89270E94AC04F601D1936F01B2
:100A2000802F0E948C04182F802F0E940404F7014D
:100A30009081D12FD095D9238123D82B602F8D2F52
:100A400089270E94AC04F701D1937F010E94A00383
:100A5000CF5FC73039F60E94670681E0DF91CF9102
:100A60001F910F91FF90EF90DF90CF900895E82FA6
:100A7000F0E0EB53FC4F80810895089556985E98FE
:100A800025982D9826982E9827982F988FEF90E0EC
:100A9000909389008093880090938B0080938A00C4
:100AA00090938D0080938C00259A2D9A2FEF80E7EC
:100AB00092E0215080409040E1F700C00000269A6B
:100AC0002E9A2FEF80E792E0215080409040E1F78E
:100AD00000C00000279A2F9A2FEF80E792E0215064
:100AE00080409040E1F700C0000025982D982FEF3E
:100AF00080E792E0215080409040E1F700C0000084
:100B000026982E982FEF80E792E021508040904069
:100B1000E1F700C0000027982F9856985E98259816
:100B20002D9826982E9827982F98089589EA8093D3
:100B3000800089E08093810024982C983F988AB1A6
:100B40008F7C8AB96E98479A8BB180638BB9769AFD
:100B50000E943E050C94370680E290E090930501D8
:100B6000809304018091D30381110EC00E94BB1BAE
:100B700081E08093D3032FEF83ED90E321508040F9
:100B80009040E1F700C0000064E670E080E40E945D
:100B9000C11B9093050180930401892B09F050C07B
:100BA00064E670E080E00E94181C90930501809339
:100BB0000401892B09F044C064E670E080E00E94E3
:100BC000181C9093050180930401892BC9F564E6F4
:100BD00070E08FE30E94181C90930501809304013C
:100BE000892B71F584E690E00E946D1C64E670E04C
:100BF00080E40E94C11B9093050180930401892B1E
:100C0000F9F464E670E08CE00E94181C90930501F2
:100C100080930401892BA1F464E670E080E00E94D7
:100C2000181C9093050180930401892B49F464E614
:100C300070E08FE30E94181C9093050180930401DB
:100C400084E690E00E946D1C80910401089561117A
:100C50000BC0FC018281882321F085EE0E946B1E6F
:100C600003C085EE0E94841F80E090E008950895FF
:100C70006091F8047091F9048091FA049091FB045A
:100C80000E94E82956985E9825982D9826982E98C7
:100C900027982F9881FF02C0259A2D9A80FF02C0C5
:100CA000269A2E9A837011F0279A2F9A089581E040
:100CB000089581E008950C9459060E94382A811104
:100CC00002C00E94A62A0E9436180C9496050E9423
:100CD00083178091D403811102C00E94B10D8091CD
:100CE000D40390E001966BE070E00E94CF3A8093CD
:100CF000D4030C945504282F2F7041F0822F90E0DC
:100D00002A3010F44D9608950697089587E290E0F2
:100D1000089508950C9489060C948A0608950E94FB
:100D20002D230E948E062FEF84E39CE0215080400B
:100D30009040E1F700C000000C94032CFF920F9349
:100D40001F93CF93DF938C01FC01C081D1818091EF
:100D50008604811113C08281882349F0CE010E944C
:100D60006128F82E682FCE010E94042804C0CE010D
:100D70000E943428F82EBE018F2D04C0CE010E949F
:100D80006128BE010E946409EC01B8010E945B0663
:100D9000882309F491C2B801CE010E94C00D8823B6
:100DA00009F48AC2B801CE010E94CD0B882309F450
:100DB00083C2CC3CFCE5DF0741F4F8018281882343
:100DC00009F47AC20E94771977C2CD3C8CE5D80726
:100DD00008F01EC1C43C9CE5D90761F4F80182818A
:100DE000882309F469C20E9468298272E1F40E9492
:100DF0008C1862C2C53CECE5DE0708F0C7C0C531FF
:100E0000FCE5DF0798F0C23CFCE5DF0709F48CC085
:100E100008F492C0F8018281882309F44DC20E942F
:100E20006829827221F70E94721846C2C2308CE58E
:100E3000D80708F452C0F8018281882309F459C008
:100E40000E94382A811102C00E94A62A0E944B2AC1
:100E500090E09093CC068093CB06FE01E350FC45D6
:100E6000E231F10530F4E35AFF4F8091CB060C9448
:100E7000E33A8091CB06816027C0826025C0846000
:100E800023C0806121C080621FC080641DC0806853
:100E90001BC08460886018C08E7F16C08D7F14C010
:100EA0008B7F12C08F7E10C08F7D0EC08F7B0CC0D9
:100EB0008F770AC08B7F877F07C087FB222720F9A7
:100EC00091E0922790FB87F98093CB068091CB0627
:100ED0000E944F2A0E942D23EFC1C1159CE5D9071E
:100EE00081F0C130DC45A9F081E08093DA03809382
:100EF000DB03C801DF91CF911F910F91FF900C94FC
:100F00005706F8018281882309F4D6C10E948F0612
:100F1000D3C1F8018281882309F4CEC180912A05CA
:100F2000816080932A05C8C1F8018281882309F471
:100F3000C3C10E946418C0C1C631DC45A9F60E9435
:100F40006829282FF80182814091100150911101E8
:100F5000882379F02A7A91E009F490E09093D50300
:100F6000911102C069E201C065E3CA010E94042B2D
:100F70000AC08091D503811102C069E201C065E316
:100F8000CA010E940F2B0E94AB2996C1F8018281F1
:100F9000C83CFCE5DF0731F4882309F48DC10E94C9
:100FA00018198AC1C93C9CE5D907C8F4C63CECE5D0
:100FB000DE0731F4882309F47FC10E94D2187CC176
:100FC000C73CDC4530F4882309F476C10E94A6189A
:100FD00073C1882309F470C10E9402196DC1CA3C13
:100FE0009CE5D90731F4882309F466C10E944819A9
:100FF00063C1CB3CDC4530F4882309F45DC10E9419
:1010000032195AC1882309F457C10E94621954C188
:10101000C43DFCE5DF07C1F4F8018281882309F4AF
:101020004BC10E949F19693171058105910540F0FE
:101030000E949F19623271058105910508F4F3CE73
:1010400089E10E94901938C1C53D8CE5D80708F0A8
:1010500086C0F8018281C03DFCE5DF07A1F488234A
:1010600009F42AC10E949F19693071058105910513
:1010700040F00E949F196E3071058105910508F4BA
:10108000D2CE89E0DECFC13D9CE5D907A0F5CE3CAC
:10109000ECE5DE07A1F4882309F40EC10E949F1934
:1010A000623071058105910540F00E949F196530FD
:1010B00071058105910508F4B6CE82E0C2CFCF3C20
:1010C000DC4528F4882309F4F7C081E0BACF8823EF
:1010D00009F4F2C00E949F196630710581059105DF
:1010E00040F00E949F19683071058105910508F450
:1010F0009ACE86E0A6CFC23D9CE5D907A1F488230D
:1011000009F4DAC00E949F196531710581059105C6
:1011100040F00E949F19673171058105910508F41F
:1011200082CE85E18ECFC33DDC45A0F4882309F44F
:10113000C3C00E949F196F3071058105910540F071
:101140000E949F19643171058105910508F46BCEE9
:101150008FE077CF882309F4AFC088E172CFC83D14
:10116000FCE5DF0759F5F8018281882361F01092D0
:10117000DB030E94A72B9093D9038093D80380E2CE
:101180000E94EC1F99C08091DB03882321F080E24C
:101190000E94F31F91C08091D8039091D9030E94BF
:1011A000B32B883C910598F780E20E94F31F88E2F8
:1011B0000E946B1E88E20E94841F7EC0C93D8CE5A0
:1011C000D80708F058C0F8018281C63DFCE5DF076A
:1011D00051F5882351F01092DA030E94A72B9093C7
:1011E000D7038093D60382E0CBCF0E94682985FF86
:1011F00005C081E08093DA038093DB038091DA03FA
:1012000081110FC08091D6039091D7030E94B32B18
:10121000883C910530F486E20E946B1E86E20E94B3
:10122000841F82E0B5CFC73DDC4528F4882309F44C
:1012300043C083E206CF81119ACF0E94682981FFC3
:1012400005C081E08093DA038093DB038091DB03A8
:1012500081119DCF8091D8039091D9030E94B32B27
:10126000883C910508F093CF87E20E946B1E87E2CD
:101270000E94841F8CCFCC3DECE5DE0741F4F801E1
:1012800082818823C9F082E00E94003315C0CD3DE1
:10129000FCE5DF0739F4F8018281882369F00E94B8
:1012A000A62A0AC0CB3DDC4509F01ECEF80182819A
:1012B000882311F080E0E8CF80E0DF91CF911F918B
:1012C0000F91FF900895089596E0799FF001112401
:1012D00094E5899FE00DF11D1124E60FF11DEE0F3D
:1012E000FF1FE256FE4F859194910895880F991F34
:1012F000FC01E656FE4F859194910895CF93DF93BC
:101300000E9464090E942D0BEC01811520E59207D3
:10131000F0F5811530E4930708F021C1883E91056E
:1013200000F5803E910508F094C1883A910570F46B
:10133000853A910508F0A3C08130910509F489C16F
:1013400008F440C1049708F084C13CC18D3B91056D
:1013500008F4A0C0803C910508F434C1805C910978
:10136000F0C08115904258F4C11581E0D80708F00B
:1013700070C1C03FD10508F425C1D0656AC1C1154F
:1013800090E3D90708F0E1C0CE019F70DAC0811563
:1013900025E5920708F043C0811534E5930708F06E
:1013A000F5C0811542E5940708F5C11581E5D80718
:1013B00008F0D8C02C2F237081E090E002C0880F85
:1013C000991F2A95E2F79C689E0174E0369527954F
:1013D0007A95E1F72370922BCF70C695C69540E2BF
:1013E000C49FE0011124C82BD92B33C18695869563
:1013F0009E0123703327C115D34508F0B8C040E2E1
:10140000849FC0011124C1E0D0E002C0CC0FDD1FD9
:101410002A95E2F78C2B9D2BEC01DC681AC1811513
:101420002AE5920798F4811539E5930708F0B9C0C9
:101430008115964508F4AFC0C11588E5D80708F4B2
:10144000C1C0DC2FCC27C06FD06A03C1C1159BE59A
:10145000D90708F4B7C0C1152CE5D20708F4AFC00E
:10146000CE0190568115904208F0ACC08D2F8F713F
:101470000E94AA0BDD27D0628F71D82BEAC0853A73
:10148000910509F4A2C0863A910509F0A1C0C2E80D
:10149000D0E4DFC0883A910509F49DC0893A9105EE
:1014A00009F49CC08A3A910509F49BC08B3A9105D6
:1014B00009F49AC08C3A910509F499C08B3B9105C7
:1014C00009F498C08C3B910509F497C08D3A9105B9
:1014D00009F496C0803B910509F495C08E3A9105B8
:1014E00009F494C08F3A910509F493C0813B9105AA
:1014F00009F492C0823B910509F491C0833B9105A8
:1015000009F490C0843B910509F48FC0853B910597
:1015100009F48EC0863B910509F48DC0873B910587
:1015200009F48CC0883B910509F48BC0893B910577
:1015300009F48AC08A3B910509F489C0C0E0D4E46B
:1015400088C00E947609EC0184C0CE019927D3FFA0
:1015500003C0EC01D86C7DC0EC01D06C7AC0DF70A8
:10156000D06A77C0DC2FCC27C16FD06A72C040E24E
:10157000849FC0011124C1E0D0E002C0CC0FDD1F68
:101580002A95E2F7C82BD92BDA6863C0D82FCC276D
:10159000C46FD06A5EC0CF71DD27DC2FCC27D0624C
:1015A00058C08F70806E90E0906A24E0D695C79501
:1015B0002A95E1F7CF709C013C2BE9014AC0DD2759
:1015C000D06647C0C0E0D0E044C0C1E8D0E441C02C
:1015D000C3E8D0E43EC0C2EED4E43BC0C9EED4E4DC
:1015E00038C0CAEED4E435C0C5EBD4E432C0C6EB93
:1015F000D4E42FC0C3EBD4E42CC0C4EBD4E429C0A2
:10160000C7EBD4E426C0CCECD4E423C0CDECD4E4C6
:1016100020C0C3E8D5E41DC0CAE8D5E41AC0C2E9B9
:10162000D5E417C0C4E9D5E414C0C1E2D6E411C0C2
:10163000C3E2D6E40EC0C4E2D6E40BC0C5E2D6E4F1
:1016400008C0C6E2D6E405C0C7E2D6E402C0CAE2DA
:10165000D6E4CE01DF91CF9108958238910549F10A
:10166000B0F48133910509F458C048F489329105EA
:1016700009F44EC08A32910509F454C008958533A7
:10168000910509F440C08933910599F00895833E8E
:10169000910529F138F4803E910591F0823E910543
:1016A000A1F00895863E9105F9F0873E910531F14C
:1016B00008952091CB0620FD3AC021FD38C0089541
:1016C0008091CB0680FD35C032C08091CB0682FF71
:1016D00032C08091CB0684FD30C083EE39C080914A
:1016E000CB0682FD28C0F5CF8091CB0683FF27C0B3
:1016F0008091CB0684FD21C087EE2AC08091CB0665
:1017000083FD1DC0F5CF8091CB0685FD1AC01BC09F
:101710008091CB0685FD17C014C08091CB0686FD55
:1017200014C015C08091CB0686FD11C00EC080EE9E
:101730000FC089E30DC082EE0BC080E009C086EEC9
:1017400007C089E205C085E303C08AE201C081E3E6
:1017500090E008959091CB0692FF0DC0282F28713C
:10176000283019F4877F846006C0282F2471243024
:1017700011F48B7F886093FF0DC0282F28712831CA
:1017800019F4877E846106C0282F2471243111F456
:101790008B7E886194FD877E0895CF93DF9381309F
:1017A00020E8920778F0FB012281222359F0EC0116
:1017B0000E94E60B0E94F40BCE019F770E94BC0CA6
:1017C0000E94700C81E0DF91CF9108958091DC033D
:1017D000811109C08CE090E00E94453B8093DD03BD
:1017E00081E08093DC030895E0911001F0911101F4
:1017F000808180935B0581FF03C081EE0E94841F7E
:1018000080915B0585FF03C085EE0E94841F809157
:101810005B0580FF03C080EE0E94841F80915B0502
:1018200084FF03C084EE0E94841F80915B0582FFC9
:1018300003C082EE0E94841F80915B0586FF03C077
:1018400086EE0E94841F80915B0583FF03C083EEB8
:101850000E94841F80915B0587FF03C087EE0E9472
:10186000841F8091DD03823001F1A8F48823C9F040
:10187000813079F580EE0E946B1E81EE0E946B1E16
:1018800088E10E946B1E88E10E94841F81EE0E9405
:10189000841F80EE1CC0843081F08530D1F486EE48
:1018A00001C082EE0E946B1E14C082EE0E946B1E6D
:1018B00087E50E946B1E87E50AC086EE0E946B1EBC
:1018C00086EE0E94841F88E10E946B1E88E10E94C0
:1018D000841F8FE39CE90197F1F700C00000089591
:1018E0008091DD03813049F030F0823021F0853085
:1018F00051F486EE06C082EE04C08CE20E946B1E9C
:101900008CE20E94841F80915B0581FF03C081EE01
:101910000E946B1E80915B0585FF03C085EE0E94CF
:101920006B1E80915B0580FF03C080EE0E946B1EE2
:1019300080915B0584FF03C084EE0E946B1E809142
:101940005B0582FF03C082EE0E946B1E80915B05E7
:1019500086FF03C086EE0E946B1E80915B0583FFAD
:1019600003C083EE0E946B1E80915B0587FF03C05E
:1019700087EE0C946B1E0895EF92FF921F93CF9306
:10198000DF937C01CCE0D0E097010C2E02C03695AD
:1019900027950A94E2F7122F1F70812F0E947B0671
:1019A0000E946B1E812F0E947B060E94841F249739
:1019B000CC3F8FEFD80741F7DF91CF911F91FF9078
:1019C000EF900895CF92DF92EF92FF920F931F93C3
:1019D000CF93DF93E82FF82F711103C0682F782F72
:1019E0007EC0062F10E0C72FD0E0E82EF12CC801F2
:1019F0006BE270E00E94BB3A9B0145ED4203B001EF
:101A0000439F700D1124060F171F86E0809FB001C1
:101A1000819F700D11244FEF50E0CA018C1B9D0B6C
:101A20008E9DD0018F9DB00D9E9DB00D11248B2FEA
:101A30006C9F80016D9F100D7C9F100D1124012F54
:101A400011276A01C01AD10ACE9C8001CF9C100DCB
:101A5000DE9C100D11246A01C61AD70ACC9EB00173
:101A6000CD9E700DDC9E700D1124672F7727461BCD
:101A7000570B4E9DE0014F9DD00D5E9DD00D112462
:101A80007D2F2230310599F04CF421153105C9F034
:101A900021303105A1F47E2FE12F13C02330310511
:101AA00051F02430310559F4ED2F7B2F06C0EB2F78
:101AB0008D2F7F2F06C0712FEB2F8F2F02C07B2F12
:101AC000812FF0E0E25CFB4F6491E72FF0E0E25CF5
:101AD000FB4F7491E82FF0E0E25CFB4F8491DF91C3
:101AE000CF911F910F91FF90EF90DF90CF900895CD
:101AF00088E090E00C944D3BAB01BC0188E090E0A5
:101B00000C946B3BECE5F5E08FE0808310925D0573
:101B10008FEF8283838314826081718182819381BC
:101B20000C947C0DCF93DF93F9011082A2E2B1E017
:101B300090E02C91322F32953F702F7082130AC0A3
:101B4000631308C02081EA01C20FD11D9883208150
:101B50002F5F20839F5F1496903359F7DF91CF91C9
:101B60000895E0915003F09151030994E0914C03E2
:101B7000F0914D030994E0914E03F0914F030994C5
:101B80000F931F93CF93DF93CDB7DEB729970FB68F
:101B9000F894DEBF0FBECDBFFB0182818823D1F157
:101BA0009E01275F3F4F8E010F5F1F4FA80160818D
:101BB00081810E94920D99859923C9F0EFE0F1E0AF
:101BC000A0E1B1E082918E9381E0E830F807D1F78F
:101BD00089818093080180913404282F30E02830D7
:101BE000310514F48F5F01C088E080933404D8017C
:101BF0008A2F801B891730F4ED91F0E0EF59FA4FEE
:101C00001082F6CF109235041092360410923704E9
:101C10001092380481E029960FB6F894DEBF0FBE0B
:101C2000CDBFDF91CF911F910F91089540E060E00B
:101C300080E00C94BB0DECE5F5E06081862F881FF9
:101C40008827881F60915D05660F682B72818381EC
:101C50000E94E20C962F672F482F892F0C94BB0D02
:101C6000EF92FF920F931F93CF93DF9301E615E05E
:101C7000C0E0D0E082E8E82EF12CF80181918F01DC
:101C8000F4E08F9FC0011124833891052CF4970153
:101C9000281B390BC90102C080E090E090915C05DF
:101CA000991F9927991F60915D05660F692B680F31
:101CB0007FEF80915F050E94E20C472F282FCE0115
:101CC0000E94B60D2196C033D105B9F6DF91CF91B0
:101CD0001F910F91FF90EF900895AF92BF92CF9216
:101CE000DF92EF92FF920F931F93CF93DF93609158
:101CF0005C05862F881F8827881F60915D05660F09
:101D0000682B70915E0580915F050E94E20CF62EB3
:101D1000E72ED82E90915C05991F9927991F309135
:101D20005D05832F880FE82FE92B37FBFF27F0F99C
:101D3000CF018C549F4F68E671E00E94CF3A7091BA
:101D40005E05682F80915F050E94E20CC62EB72EBB
:101D5000A82E02E211E0C0E0D0E0F801838190817A
:101D60009F3F61F080FF04C02A2D4B2D6C2D03C0D6
:101D70002D2D4E2D6F2DCE010E94B60D21960C5F9C
:101D80001F4FC033D10549F7DF91CF911F910F91BC
:101D9000FF90EF90DF90CF90BF90AF900895DF92CB
:101DA000EF92FF920F931F93CF93DF9380915C0587
:101DB000881F8827881F90915D05492F440F242F85
:101DC000282B97FB332730F9C9018C549F4F68E6C5
:101DD00071E00E94CF3A821B930B8038910514F07A
:101DE0009A9505C081384FEF94070CF4939597FDB1
:101DF00003969595879595958795C82F80915E0553
:101E0000281B310937FF02C02D5F3F4F35952795BD
:101E100035952795D22FD0905F0594E2E92E91E079
:101E2000F92E00E010E0F701208122952F706091DB
:101E30005C05962F991F9927991F60915D05660F84
:101E4000692B2C9F600D112470915E052D9F700DE4
:101E500011248D2D0E94E20C472F282FC8010E94CB
:101E6000B60D0F5F1F4FF4E0EF0EF11C00331105AC
:101E7000D1F6DF91CF911F910F91FF90EF90DF90FE
:101E80000895AF92BF92CF92DF92EF92FF920F939D
:101E90001F93CF93DF931F92CDB7DEB7D82E20913B
:101EA0005C05221F2227221F80915D05982F990F24
:101EB000B22EB92A87FB882780F9EB2DF82FCF01A6
:101EC0008C549F4F68E671E00E94CF3A9C012E1B14
:101ED0003F0B37FF02C02D5F3F4F35952795359556
:101EE0002795A22EC0905E050091390410913A0406
:101EF00020913B0430913C0490916005992359F066
:101F0000692F70E08AE090E00E94CF3ACB01770F12
:101F1000AA0BBB0B04C08AE090E0A0E0B0E08023F5
:101F20009123A223B323892B8A2B8B2B41F40E946C
:101F3000353B60E370E00E94CF3A082F01C00FEFFD
:101F4000E12CF12C10E0D11003C0E016F106A9F449
:101F50000E94353B83706B2D8A9D600D112469832F
:101F60000E94353B69817C2D80915F050E94E20CC7
:101F7000472F282FC7010E94B60D8FEFE81AF80AE5
:101F800080E3E816F104F9F60F90DF91CF911F91ED
:101F90000F91FF90EF90DF90CF90BF90AF9008959A
:101FA000CF92DF92EF92FF921F93CF93DF938091B6
:101FB000390490913A04A0913B04B0913C04009004
:101FC000600504C0880F991FAA1FBB1F0A94D2F78F
:101FD000182F82E2C82E81E0D82EC0E0D0E09FE327
:101FE000E92EF12CF60180818F3FE1F0FE01EF59DF
:101FF000FA4F8081F4E08F9FC00111248034910555
:1020000024F4B701681B790B02C060E070E0610F37
:102010007FEF80915F050E94E20C472F282FCE01B1
:102020000E94B60D219624E0C20ED11CC033D1050A
:10203000C9F6DF91CF911F91FF90EF90DF90CF9085
:102040000895CF92DF92EF92FF920F931F93CF9359
:10205000DF938091390490913A04A0913B04B091B0
:102060003C040090600504C0880F991FAA1FBB1F85
:102070000A94D2F7D82EC0905F0502E211E0C0E0CA
:10208000D0E08FE3E82EF12CF80180818F3FF9F04A
:10209000FE01EF59FA4F2081F4E02F9F90011124A7
:1020A000203431052CF4C701821B930B9C0102C024
:1020B00020E030E0F80161816D0D620F7FEF8C2D23
:1020C0000E94E20C472F282FCE010E94B60D2196C8
:1020D0000C5F1F4FC033D105B9F6DF91CF911F912F
:1020E0000F91FF90EF90DF90CF900895CF92DF9205
:1020F000EF92FF920F931F93CF93DF938091390458
:1021000090913A04A0913B04B0913C04009060058A
:1021100004C0880F991FAA1FBB1F0A94D2F7D82E9C
:10212000C0905F0502E211E0C0E0D0E08FE3E82E4E
:10213000F12CF80180818F3FF9F0FE01EF59FA4F41
:102140002081F4E02F9F90011124203431052CF4DC
:10215000C701821B930B9C0102C020E030E0F80114
:1021600062816D0D620F7FEF8C2D0E94E20C472F74
:10217000282FCE010E94B60D21960C5F1F4FC03351
:10218000D105B9F6DF91CF911F910F91FF90EF909C
:10219000DF90CF9008952F923F924F925F926F926F
:1021A0007F928F929F92AF92BF92CF92DF92EF92E7
:1021B000FF920F931F93CF93DF9330905E05209093
:1021C0005F056091390470913A0480913B049091CD
:1021D0003C040E94E3382BED3FE049E450E40E94C8
:1021E000B03920E030E040E05CE30E94B0396B01A0
:1021F0007C010E94363820E030E040E05DE30E9440
:10220000B0392B013C01C701B6010E941D3A20E004
:1022100030E040EE52E40E943B384B015C01C4E2E6
:10222000D1E000E010E0688170E080E090E00E9482
:10223000E53820E030E040E052E40E94C937A301D5
:1022400092010E94B0396B017C01FE0131976081DF
:1022500070E080E090E00E94E53820E030E040EE61
:1022600052E40E94C937A50194010E94B0399B0134
:10227000AC01C701B6010E94CA3720E030E044E358
:1022800053E40E94B0396B017C0180915C05881F8A
:102290008827881F90915D05292F220F622F682BB8
:1022A00097FB772770F9072E000C880B990B0E947B
:1022B000E5389B01AC01C701B6010E94CA370E94F4
:1022C000B438732D822D0E94E20C472F282FC801AD
:1022D0000E94B60D0F5F1F4F24960033110509F0C1
:1022E000A2CFDF91CF911F910F91FF90EF90DF90E0
:1022F000CF90BF90AF909F908F907F906F905F90A6
:102300004F903F902F9008952F923F924F925F925F
:102310006F927F928F929F92AF92BF92CF92DF92F5
:10232000EF92FF920F931F93CF93DF93CDB7DEB75A
:1023300028970FB6F894DEBF0FBECDBF80915E0523
:102340008D8390915F059E836091390470913A046A
:1023500080913B0490913C040E94E3382BED3FE0D8
:1023600049E450E40E94B03920E030E040E05CE312
:102370000E94B0396B017C010E9436382B013C0170
:10238000C701B6010E941D3A69837A838B839C83BF
:10239000E4E2F1E0F887EF8300E010E0EF81F885F8
:1023A00031972080EF81F885B08030906005332030
:1023B00079F0632D70E080E090E00E94E53820E045
:1023C00030E040EC5FE30E94B0396B017C0106C055
:1023D000C12CD12C90ECE92E9FE3F92E6B2D70E0EF
:1023E00080E090E00E94E53820E030E040E052E4F8
:1023F0000E94C9379B01AC01C701B6010E94B039E8
:10240000A30192010E94B0394B015C01332079F0A5
:10241000632D70E080E090E00E94E53820E030E03D
:1024200040EC5FE30E94B0396B017C0106C0C12C17
:10243000D12C80ECE82E8FE3F82E622D70E080E046
:1024400090E00E94E53820E030E040EE52E40E9447
:10245000C9379B01AC01C701B6010E94B03929817F
:102460003A814B815C810E94B0399B01AC01C5016E
:10247000B4010E94CA376B017C0180915C05881F02
:102480008827881F90915D05292F220F622F682BC6
:1024900097FB772770F9072E000C880B990B0E9489
:1024A000E5389B01AC01C701B6010E94CA370E9402
:1024B000B4387D818E810E94E20C472F282FC801FD
:1024C0000E94B60D0F5F1F4F8F81988504969887E5
:1024D0008F830033110509F061CF28960FB6F89469
:1024E000DEBF0FBECDBFDF91CF911F910F91FF9047
:1024F000EF90DF90CF90BF90AF909F908F907F90A4
:102500006F905F904F903F902F9008952F923F9241
:102510004F925F926F927F928F929F92AF92BF92F3
:10252000CF92DF92EF92FF920F931F93CF93DF939F
:1025300000D000D01F92CDB7DEB720915E052A8370
:1025400080915F058B836091390470913A0480918A
:102550003B0490913C040E94E3382BED3FE049E4BA
:1025600050E40E94B03920E030E040E05CE30E949B
:10257000B0396B017C010E9436382B013C01C70148
:10258000B6010E941D3A4B015C01A4E2B1E0BD839B
:10259000AC8300E010E0EC81FD813197B081B9831C
:1025A000EC81FD81308020906005222069F0622D51
:1025B00070E0660F771F072E000C880B990B0E94A6
:1025C000E5386B017C0105C0C12CD12CE12C20E445
:1025D000F22E632D70E080E090E00E94E53820E06C
:1025E00030E040E052E40E94C9379B01AC01C701D2
:1025F000B6010E94B039A30192010E94B0396B016B
:102600007C01222021F0312C220C331C03C082E0FB
:10261000282E312CF9816F2F70E080E090E00E942D
:10262000E53820E030E040EE52E40E94C9370E94D5
:10263000AD389B0177FF04C022273327261B370BB9
:1026400082E490E0821B930B289EB001299E700DBE
:10265000389E700D1124072E000C880B990B0E94D8
:10266000E538A50194010E94B0399B01AC01C70176
:10267000B6010E94CA376B017C0180915C05881FFE
:102680008827881F90915D05292F220F622F682BC4
:1026900097FB772770F9072E000C880B990B0E9487
:1026A000E5389B01AC01C701B6010E94CA370E9400
:1026B000B4387A818B810E94E20C472F282FC80101
:1026C0000E94B60D0F5F1F4F8C819D8104969D83E4
:1026D0008C830033110509F05ECF0F900F900F909F
:1026E0000F900F90DF91CF911F910F91FF90EF907E
:1026F000DF90CF90BF90AF909F908F907F906F9022
:102700005F904F903F902F9008952F923F924F925D
:102710005F926F927F928F929F92AF92BF92CF9271
:10272000DF92EF92FF920F931F93CF93DF9300D02E
:102730001F92CDB7DEB720905E0580915F0589833B
:102740006091390470913A0480913B0490913C046B
:102750000E94E33820E030E040E85BE30E94B039BB
:1027600020E030E040E653E40E94B0392B013C0108
:10277000E4E2F1E0FB83EA8300E010E0EA81FB8120
:1027800031973080EA81FB81E080F0906005FF2086
:1027900079F06F2D70E080E090E00E94E53820E055
:1027A00030E040EC5FE30E94B0394B015C0106C0B1
:1027B000812C912C90ECA92E9FE3B92E6E2D70E008
:1027C00080E090E00E94E53820E030E040E052E414
:1027D0000E94C9370E94AD389B0177FF04C02227B1
:1027E0003327261B370BB901330F880B990B0E9437
:1027F000E5389B01AC01C501B4010E94B0392EE25D
:102800003DEB4BEB53EB0E94B0394B015C01FF20D9
:1028100079F06F2D70E080E090E00E94E53820E0D4
:1028200030E040EC5FE30E94B0396B017C0106C0F0
:10283000C12CD12C80ECE82E8FE3F82E632D70E0B4
:1028400080E090E00E94E538A30192010E94C93720
:102850009B01AC01C701B6010E94B0399B01AC01DC
:10286000C501B4010E94C9376B017C0180915C05F0
:10287000881F8827881F90915D05292F220F622FBE
:10288000682B97FB772770F9072E000C880B990BA4
:102890000E94E5389B01AC01C701B6010E94CA370E
:1028A0000E94B438722D89810E94E20C472F282F94
:1028B000C8010E94B60D0F5F1F4F8A819B8104964D
:1028C0009B838A830033110509F058CF0F900F9036
:1028D0000F90DF91CF911F910F91FF90EF90DF90BC
:1028E000CF90BF90AF909F908F907F906F905F90B0
:1028F0004F903F902F900895CF92DF92FF920F93C9
:102900001F93CF93DF931F92CDB7DEB7F82E0091C0
:10291000390410913A0420913B0430913C04909189
:102920006005992359F0692F70E08AE090E00E94D9
:10293000CF3AAB01770F660B770B04C04AE050E04B
:1029400060E070E04023512362237323452B462B24
:10295000472B39F40E94353B60E370E00E94CF3A88
:1029600001C08FEF00E010E0C82ED12CF11003C0A1
:102970000C151D0581F40E94353B89830E94353B6F
:10298000782F698180915F050E94E20C472F282FE4
:10299000C8010E94B60D0F5F1F4F0033110531F7BC
:1029A0000F90DF91CF911F910F91FF90DF90CF900B
:1029B00008954F925F926F927F928F929F92AF9203
:1029C000BF92CF92DF92EF92FF920F931F93CF931C
:1029D000DF9300D0CDB7DEB7882371F040E060E030
:1029E00080E00E94BB0D84E5E0EEF3E0DF011D9284
:1029F0008A95E9F71092DF0380EEC82E83E0D82E87
:102A0000F12CEE24EA9490EDA92EB12C20EC522E5C
:102A10003FE2832E912C00E010E0402E3601600E44
:102A2000711E0115110561F48091DF03811108C049
:102A30000E94353B853595401CF4F601E08206C0C6
:102A4000D3019C9191509E3F08F49C939E012F5F6F
:102A50003F4FAE014E5F5F4F6F2D842D0E94920D50
:102A6000F3012081EA81213D70F030E0205D3109E1
:102A7000529EC001539E900D1124B4010E94BB3A96
:102A8000262F4FEF0AC0FFEF2F9FC0011124B50181
:102A90000E94BB3A462F20E060E08E2F90E00E941B
:102AA000B60D0F5F1F4F0E30110509F0B6CFF3942E
:102AB0002EE0C20ED11C36E0F312ADCF8091DF03C1
:102AC0008F5F8D3158F11092DF0380E090E00DE0D0
:102AD00010E04EEFF801E81BF90BDF01A052BC4FEC
:102AE0007D01ADEEB3E0682F611104C02C912F3F42
:102AF00009F44C93F70152915F3F19F44083F701B9
:102B00005083FEE0EF0EF11C1E9624E0A134B207C4
:102B100059F701968D309105E9F602C08093DF03E5
:102B20000F900F90DF91CF911F910F91FF90EF9039
:102B3000DF90CF90BF90AF909F908F907F906F90DD
:102B40005F904F9008952F923F924F925F926F92B5
:102B50007F928F929F92AF92BF92CF92DF92EF922D
:102B6000FF920F931F93CF93DF93CDB7DEB72A97D2
:102B70000FB6F894DEBF0FBECDBF20915E052C834B
:102B800034E2E32E31E0F32E00E010E0F70131975C
:102B90009081F7018081F0913404FB8328E031E0DB
:102BA0003A8329831A861986212C312CE92FF0E0EB
:102BB000FE83ED83282F30E038872F83898128E03A
:102BC00031E0821B3B81831708F062C0E981FA8102
:102BD0008191FA83E983C82ED12CC601880F991FF1
:102BE000880F991F9C012E5D3E4F3901F9018181AB
:102BF0006D817E81681B7109072E000C880B990B73
:102C00000E94E5384B015C01F30182816F81788578
:102C1000681B7109072E000C880B990B0E94E53880
:102C20002B013C01A5019401C501B4010E94B039FA
:102C30004B015C01A3019201C301B2010E94B039B2
:102C40009B01AC01C501B4010E94CA370E942B3A16
:102C5000F601EF59FA4FC080F4E0CF9E60011124D5
:102C60000E94B438C601861B970B8F3F910519F05F
:102C700010F08FEF90E0280E391E2FEF30E0281B68
:102C8000390BE985FA85E20FF31FFA87E98796CFBA
:102C900060915C05862F881F8827881F60915D05DD
:102CA000660F682B620D89859A85009739F08F3FF2
:102CB000910529F020F08FEF90E001C080E07C8149
:102CC0000E94E20C472F282FC8010E94B60D0F5F0B
:102CD0001F4F94E0E90EF11C0033110509F056CFA7
:102CE0002A960FB6F894DEBF0FBECDBFDF91CF910D
:102CF0001F910F91FF90EF90DF90CF90BF90AF901A
:102D00009F908F907F906F905F904F903F902F900B
:102D1000089581E090913404911101C080E0809386
:102D200034040C94A3152F923F924F925F926F92AE
:102D30007F928F929F92AF92BF92CF92DF92EF924B
:102D4000FF920F931F93CF93DF93CDB7DEB72997F1
:102D50000FB6F894DEBF0FBECDBF20905C05822D6C
:102D6000881F8827881F20905D05220C282A209123
:102D70005E052B8334E2E32E31E0F32E00E010E019
:102D8000F70131979081F70180813090340428E079
:102D900031E03A83298319861886E92FF0E0FD8314
:102DA000EC83282F30E03F832E83898128E031E0B7
:102DB000821B831508F060C0E981FA818191FA8352
:102DC000E983C82ED12CC601880F991F880F991F3F
:102DD0009C012E5D3E4F3901F90181816C817D811D
:102DE000681B7109072E000C880B990B0E94E538AF
:102DF0004B015C01F30182816E817F81681B710947
:102E0000072E000C880B990B0E94E5382B013C0122
:102E1000A5019401C501B4010E94B0394B015C01C8
:102E2000A3019201C301B2010E94B0399B01AC0120
:102E3000C501B4010E94CA370E942B3AF601EF592E
:102E4000FA4FC080F4E0CF9E600111240E94B43894
:102E5000C601861B970B8F3F910519F010F08FEF7D
:102E600090E02FEF30E0281B390BE885F985E20F61
:102E7000F31FF987E88799CF88859985009739F0FE
:102E80008F3F910529F020F08FEF90E001C080E0A6
:102E9000622D7B810E94E20C472F282FC8010E94DF
:102EA000B60D0F5F1F4F94E0E90EF11C00331105C2
:102EB00009F066CF29960FB6F894DEBF0FBECDBFDE
:102EC000DF91CF911F910F91FF90EF90DF90CF9006
:102ED000BF90AF909F908F907F906F905F904F903A
:102EE0003F902F90089581E090913404911101C09A
:102EF00080E0809334040C949316089508950E9402
:102F00007D170C947E1740915C0540FD0AC00E941D
:102F1000160E0E947F1780915C05817080930701D7
:102F200008958091DE03843120F48F5F8093DE0367
:102F300008958091390490913A04A0913B04B09196
:102F40003C040196A11DB11D8093390490933A046D
:102F5000A0933B04B0933C048091350490913604D7
:102F6000A0913704B09138048F3F2FEF9207A2074A
:102F7000B20759F00196A11DB11D809335049093BD
:102F80003604A0933704B093380480913404E1E60A
:102F9000F5E090819F3F61F09E3F41F4282F30E0A3
:102FA0002230310514F0815001C080E09F5F908392
:102FB000319695E0E139F90761F780933404E42F05
:102FC000E695EF7380910601E81307C081E09091C8
:102FD0000701913019F480E001C081E08170E09335
:102FE000060191E0909307014E2F50E0FA013197CE
:102FF000E231F105C8F5E159FF4F0C94E33A0E9424
:103000001B0E32C00E946D0E2FC00E94CB102CC030
:103010000E94CF0E29C00E94410F26C00E94D00FEF
:1030200023C00E94211020C00E9476101DC00E9463
:1030300084111AC00E94861217C00E94851314C002
:103040000E947C1411C00E94D9140EC00E94300E40
:103050000BC00E94891608C00E94A31505C00E94DB
:10306000731702C00E9493160C947F17E0914A03D5
:10307000F0914B030995E1E6F5E08FEF819395E040
:10308000E139F907D9F70E94382A811104C00E945A
:10309000A62A0E94820D0E94780D60935C057093B1
:1030A0005D0580935E0590935F056E7761F40E94E5
:1030B000820D0E94780D60935C0570935D0580938E
:1030C0005E0590935F050895ECE5F5E08081982F0B
:1030D000909590FB80F980836081718182819381DA
:1030E0000C947C0D90915C05892F86958F5F8F7372
:1030F0009178833118F4880F892B02C0892F826060
:1031000080935C0560915C0570915D0580915E0522
:1031100090915F050C947C0D90915C05892F8695AC
:10312000815C8F739178882319F0880F892B02C0F6
:10313000892F846280935C0560915C0570915D05C8
:1031400080915E0590915F050C947C0D80915C05EB
:10315000982F991F9927991F80915D05880F892BBA
:1031600090E008968F3F910519F014F08FEF90E0F2
:1031700020915C0580FB27F920935C05282F26957C
:1031800080915D058078822B90FB87F980935D05A7
:1031900060915C0570915D0580915E0590915F0581
:1031A0000C947C0D80915C05982F991F9927991F8D
:1031B00080915D05880F892B90E0089797FF02C0EA
:1031C00080E090E08F3F910519F014F08FEF90E0D0
:1031D00020915C0580FB27F920935C05282F26951C
:1031E00080915D058078822B90FB87F980935D0547
:1031F00060915C0570915D0580915E0590915F0521
:103200000C947C0D80915E0590E008968F3F9105AF
:1032100019F014F08FEF90E080935E0560915C05EB
:1032200070915D0580915E0590915F050C947C0D19
:1032300080915E0590E0089797FF02C080E090E0E3
:103240008F3F910519F014F08FEF90E080935E05A9
:1032500060915C0570915D0580915E0590915F05C0
:103260000C947C0D80915F0590E008968F3F91054E
:1032700019F014F08FEF90E080935F0560915C058A
:1032800070915D0580915E0590915F050C947C0DB9
:1032900080915F0590E0089797FF02C080E090E082
:1032A0008F3F910519F014F08FEF90E080935F0548
:1032B00060915C0570915D0580915E0590915F0560
:1032C0000C947C0D8091600590E00196843091050E
:1032D00014F083E090E08093600560915C0570914C
:1032E0005D0580915E0590915F050C947C0D809149
:1032F000600590E0019797FF02C080E090E0843085
:10330000910514F083E090E08093600560915C0586
:1033100070915D0580915E0590915F050C947C0D28
:10332000ECE5F5E08F73982F990F80818178892BD8
:10333000808360817181828193810C947C0D609186
:103340005C0566956F7370E080E090E0089567E734
:1033500084E70C947C1BCF930E94BB1B84E70E94E4
:10336000011A87E70E94011AC0E021E041E061E014
:103370008C2F0E94931ACF5FC033B9F767E784E7B9
:10338000CF910C948F1BE1EBF6E06083418324E640
:1033900030E042E050E0BF01880F0C94911CEF92A6
:1033A000FF921F93CF93DF937B01182F110FC0E083
:1033B000D0E08C2F8C5D8093B10620E030E0F901E5
:1033C000EC0FFD1FEE0DFF1D8081F901EF54F94F49
:1033D00081832F5F3F4F2031310589F724E630E0AC
:1033E00041E150E061EB76E0812F0E94911C6096F4
:1033F000C039D105F1F6DF91CF911F91FF90EF9089
:103400000895CF93DF93C82F4BE06DEF0E94C3194F
:1034100040E06AE08C2F0E94C3198FE39CE901977A
:10342000F1F700C0000040E060E08C2F0E94C3195B
:1034300040E061E08C2F0E94C31940E066E08C2FD1
:103440000E94C31940E06DEF8C2F0E94C319D0E099
:1034500040E06D2F8C2F0E94C319DF5FD231C1F77E
:1034600040E06D2F8C2F0E94C319DF5FD432C1F76B
:1034700040E06D2F8C2F0E94C319DF5FD43BC1F752
:103480004BE06DEF8C2F0E94C31941E06AE08C2F56
:103490000E94C31940E06DEF8C2FDF91CF910C9407
:1034A000C3198033910520F5880F991F880F991F44
:1034B000FC01EE51FE4F5281338180818370718116
:1034C000E0E98E9FC00111248F569A4FFC01E70F4F
:1034D000F11DB4976083FC01E50FF11DB4974083A3
:1034E000830F911DFC01B497208381E080936204D7
:1034F0000895FF920F931F93CF93DF93182F062FFA
:10350000F42EC0E0D0E02F2D402F612FCE010E947D
:10351000511A2196C033D105B1F7DF91CF911F9198
:103520000F91FF9008954F925F927F928F929F929A
:10353000AF92BF92CF92DF92EF92FF920F931F93C1
:10354000CF93DF93362F54E0859FC0011124FC01F7
:10355000EE51FE4FA081A3707A2E618170E0CB0105
:1035600084978C0197FF02C0095F1F4FA3E0159558
:103570000795AA95E1F7628170E07B0154E2E51AB4
:10358000F108E701F7FC279673E0D595C7957A9582
:10359000E1F7638170E04B01E4E28E1A9108F401D7
:1035A00097FC37962F0153E0559447945A95E1F7CD
:1035B00068E0A62EB12CB5010E94CF3A6C01C7017C
:1035C000B5010E94CF3A7C01C401B5010E94CF3AF7
:1035D000A72DB0E01127DD243323A1F032E13A9F7B
:1035E000B0013B9F700D1124060F171F025C1B4F8B
:1035F00061E070E001C0660FCA94EAF7F80130811B
:10360000632B14C032E13A9FB0013B9F700D11242F
:10361000060F171F025C1B4F61E070E001C0660FD0
:10362000CA94EAF76095F801308163236083DD274F
:10363000FF2432E1442391F03A9FA0013B9F500DBB
:103640001124C40FD51FC25CDB4F41E050E001C024
:10365000440FEA94EAF73881432B12C03A9FA00145
:103660003B9F500D1124C40FD51FC25CDB4F41E0BE
:1036700050E001C0440FEA94EAF7409538814323B3
:103680004883A2015527992792E19A9FF0019B9FB9
:10369000F00D1124E40FF51FE25CFB4F222361F0D3
:1036A00021E030E0A90102C0440F551F8A95E2F7DE
:1036B000CA019081892B0CC021E030E0A90102C031
:1036C000440F551F8A95E2F7CA018095908189239E
:1036D000808381E080933D04DF91CF911F910F9112
:1036E000FF90EF90DF90CF90BF90AF909F908F9022
:1036F0007F905F904F900895CF93909162049923AB
:1037000051F0C62F61E975E00E94CF1961E276E0C1
:103710008C2F0E94CF1910926204CF910895EF92DE
:10372000FF920F931F93CF93DF9390913D049923C2
:10373000D9F0162F082F8EE3E82E84E0F82EC0E093
:10374000D0E0F70141917F016C2F802F0E94C319B7
:10375000FE01E25CFB4F42896C2F812F0E94C3194E
:103760002196C231D10569F7DF91CF911F910F9159
:10377000FF90EF9008951092B9008CE08093B8000C
:103780000895EF92FF920F931F93CF93DF93182F1B
:10379000EB011092BC0084EA8093BC000E94A72B2E
:1037A0007C019091BC0097FD0EC0CF3F8FEFD807F2
:1037B000C1F30E94A72B8E199F098C179D0788F3D0
:1037C0008EEF9FEF2EC09091B900987F983041F016
:1037D0009091B900987F903119F08FEF9FEF21C041
:1037E0001093BB0084E88093BC000E94A72B8C013F
:1037F0009091BC0097FD0CC0CF3F8FEFD807C1F36D
:103800000E94A72B801B910B8C179D0788F3D8CFA4
:103810008091B900887F883111F08034F1F680E022
:1038200090E0DF91CF911F910F91FF90EF9008955D
:103830000F931F93CF93DF93EB018093BB0084E83A
:103840008093BC000E94A72B8C019091BC0097FD37
:103850000EC0CF3F8FEFD807C1F30E94A72B801B6C
:10386000910B8C179D0788F38EEF9FEF0CC0209172
:10387000B900287F81E090E0283211F480E090E0E8
:10388000919581959109DF91CF911F910F910895A5
:103890000F931F93CF93DF93EC0184E88093BC00D8
:1038A0000E94A72B8C019091BC0097FD0EC0CF3FCA
:1038B0008FEFD807C1F30E94A72B801B910B8C17A9
:1038C0009D0788F38EEF9FEF03C08091BB0090E0CF
:1038D000DF91CF911F910F9108950F931F93CF9375
:1038E000DF93EC0184E98093BC000E94A72B8C013C
:1038F0009091BC0094FF0EC0CF3F8FEFD807C1F36B
:103900000E94A72B801B910B8C179D0788F38EEFCD
:103910009FEF02C080E090E0DF91CF911F910F9167
:103920000895CF92DF92EF92FF920F931F93CF9360
:10393000DF936B017A018901B9010E94C11BFC016F
:10394000892BC9F4E601EC0CFD1CCE15DF0541F016
:10395000B80189910E94181CFC01892BB1F30BC09E
:10396000C801DF91CF911F910F91FF90EF90DF90F1
:10397000CF900C946D1CCF01DF91CF911F910F91CF
:10398000FF90EF90DF90CF9008959093680480931C
:1039900067040895E0916704F0916804309721F07E
:1039A0000190F081E02D099480E00895E091670492
:1039B000F0916804309721F00280F381E02D0994A2
:1039C0000895E0916704F0916804309721F0048035
:1039D000F581E02D099408952091650430916604E5
:1039E0008217930771F09093660480936504E091C9
:1039F0006704F0916804309721F00680F781E02D8C
:103A00000994089520916304309164048217930708
:103A100071F09093640480936304E0916704F091E3
:103A20006804309721F00084F185E02D0994089511
:103A300085B7806885BF85B7806885BF089508957C
:103A40000E94181D0C941F1D81E008950E949E2B5A
:103A50000E9457040C94352CCF92DF92EF92FF9284
:103A60000F931F93CF93DF93CDB7DEB72B970FB68E
:103A7000F894DEBF0FBECDBF0E94C9040E94241D72
:103A8000811111C08FEF89838A831B820E94A72B2B
:103A90008160782F9D838C8349815A816B818D81D0
:103AA0000E94101E56C08AE6C82E84E0D82E00E080
:103AB00010E0E02E802F0E943705F60141916F0142
:103AC000F42EF82631F40F5F1F4F0E30110589F7E1
:103AD000D9CF90912A0591FF04C08B870E943D05A4
:103AE0008B8520E030E04F2D50E0922FBA01022E5E
:103AF00002C0759567950A94E2F760FF24C02E8393
:103B0000EF8221E030E0690102C0CC0CDD1C9A9507
:103B1000E2F790E08C219D21892B09F420E0288791
:103B20000E94A72B8160782F9A8789874E815F81B9
:103B300068858A850E94101EF801E659FB4F808136
:103B4000C826C08206C02F5F3F4F2630310569F678
:103B5000BACF0E94C82D109169040E94CA1C181780
:103B6000A1F00E94CA1C809369042B960FB6F894AA
:103B7000DEBF0FBECDBFDF91CF911F910F91FF90A0
:103B8000EF90DF90CF900C948C062B960FB6F894A4
:103B9000DEBF0FBECDBFDF91CF911F910F91FF9080
:103BA000EF90DF90CF900895DC0111962C91119742
:103BB0008C91682F70E041E050E001C0440F8A957D
:103BC000EAF712968C91129730E0882329F08091C1
:103BD00088048823E9F006C0F901E858FB4F90817A
:103BE0009423B1F086E0829FF001839FF00D1124B1
:103BF000E60FF71FEE0FFF1FEE55FD4F80819181FD
:103C00008D939C93F901E858FB4F8081482B06C0A7
:103C1000F901E858FB4F409580814823408308957F
:103C2000CF93DF93CDB7DEB72B970FB6F894DEBFF7
:103C30000FBECDBF942F4F83252F588769877A8772
:103C40008B874A855B85452B21F02F3F69F59F3F88
:103C500059F5DE01119686E0FD0111928A95E9F78A
:103C600085E0FE01379601900D928A95E1F70E945A
:103C70000429882319F082E00E9446290E94D7284F
:103C800081110E94A42949815A816B817C818D8197
:103C90009E810E94D4252B960FB6F894DEBF0FBEEE
:103CA000CDBFDF91CF910895CE0107960E94D41D1C
:103CB000D0CFFC01808191810E94A02892959F70B5
:103CC000963041F48091880491E08927809388049C
:103CD000909387040895CF93DF931F92CDB7DEB7FB
:103CE000882309F40DC1682F8238C1F40E94CA1CD0
:103CF00081FD06C169E380911001909111010E943C
:103D0000042B0E94AB292FEF81EE94E021508040DC
:103D10009040E1F700C0000069E319C0833811F555
:103D20000E94CA1C80FDECC063E580911001909157
:103D300011010E94042B0E94AB292FEF81EE94E029
:103D4000215080409040E1F700C0000063E5809181
:103D50001001909111010E940F2B0F90DF91CF91D4
:103D60000C94AB298438C1F40E94CA1C82FDC8C0DF
:103D700067E480911001909111010E94042B0E9430
:103D8000AB292FEF81EE94E0215080409040E1F785
:103D900000C0000067E4DBCF8CEF860F813A70F43F
:103DA000862F69830E94FE2F69818111A9C08091AD
:103DB0001001909111010E94042BCFCF80E2860F59
:103DC000883048F4677081E001C0880F6A95EAF78F
:103DD0000E946B29C2CF8BE5860F833088F4653A49
:103DE00029F0663A31F083E890E005C081E890E080
:103DF00002C082E890E00F90DF91CF910C94EC1C10
:103E000088E5860F853108F071C0683A61F1693A3A
:103E100069F16A3A71F16B3A79F16C3A81F16B3B75
:103E200089F16C3B91F16D3A99F1603BA1F16E3AE9
:103E3000A9F16F3AB1F1613BB9F1623BC1F1633B6A
:103E4000C9F1643BD1F1653BD9F1663BE1F1673BD8
:103E5000E9F1683BF1F1693BF9F16A3B09F43FC0D4
:103E600080E090E03EC082EE90E03BC089EE90E0C2
:103E700038C08AEE90E035C085EB90E032C086EB2A
:103E800090E02FC083EB90E02CC084EB90E029C041
:103E900087EB90E026C08CEC90E023C08DEC90E0A6
:103EA00020C083E891E01DC08AE891E01AC082E951
:103EB00091E017C084E991E014C081E292E011C062
:103EC00083E292E00EC084E292E00BC085E292E0D1
:103ED00008C086E292E005C087E292E002C08AE272
:103EE00092E00F90DF91CF910C94021D603F40F063
:103EF000862F0E94D02C0F90DF91CF910C94BD2D76
:103F00000F90DF91CF910895882309F464C082381F
:103F100079F40E94CA1C81FF5EC069E380911001A0
:103F2000909111010E94042B0E94AB2969E310C0FB
:103F30008338B1F40E94CA1C80FF4DC063E58091B4
:103F40001001909111010E94042B0E94AB2963E59E
:103F500080911001909111010E940F2B0C94AB29BC
:103F6000843879F40E94CA1C82FF35C067E48091CE
:103F70001001909111010E94042B0E94AB2967E46B
:103F8000E7CF9CEF980F913A10F4682FE1CF90E2C1
:103F9000980F983050F4877091E001C0990F8A957E
:103FA000EAF7892F0E947129D9CF9BE5980F9330AA
:103FB00020F480E090E00C94EC1C98E5980F95318B
:103FC00020F480E090E00C94021D803F20F00E94DD
:103FD000382D0C94BD2D0895882321F00E946B2963
:103FE0000C94AB290895882321F00E9471290C9428
:103FF000AB2908954F925F926F927F92BF92CF92BA
:10400000DF92EF92FF920F931F93CF93DF937C0188
:10401000D62FC72FFC01058102950F701281111157
:104020000E9488290E946129882379F0112369F070
:1040300080E28D0F883048F082E00E9446290E947D
:10404000612991E0B82EB92601C0B12CCC2EC294C2
:104050008FE0C822D12CF601EF57FF4F0C94E33AC2
:104060008C2F807FCF70882311F0C295C07F1123E1
:1040700099F0CC2309F4F5C180E28D0F883010F05F
:10408000D11104C08C2F0E946B2903C08C2F0E9479
:104090007B290E94AB29E5C18D2F0E94841FCC2370
:1040A00009F45CC280E28D0F883010F0D11104C099
:1040B0008C2F0E94712903C08C2F0E9481290E949D
:1040C000AB294CC28C2F807FCF70803211F0C2950B
:1040D000C07FDD2319F0D13059F133C01123B1F085
:1040E000002381F0013031F40E94E5298C2B0E94DD
:1040F0009B2934C2023031F40E94A4298C2F0E94E3
:10410000D12823C00E94E5298C2B49C1002369F0E6
:10411000013041F40E9468298C2309F41FC20E94D7
:10412000D42803C0023009F419C20E94A42911C086
:10413000112321F0023008F011C207C001110EC294
:1041400008C0112321F001118CC18C2F28C101114D
:104150009AC18C2F2AC18C2F86958695837090E00A
:10416000009719F0019761F0F9C1112321F08D2F0B
:104170009C2F937002C080E090E00E94EC1CFEC176
:10418000112321F08D2F9C2F937002C080E090E0CE
:104190000E94021DF3C11123F9F0D53F51F0D63F23
:1041A00071F0D43FA9F48091C5069091C606816054
:1041B0000BC08091C5069091C606826005C08091B3
:1041C000C5069091C60684609093C6068093C50686
:1041D0008D2F0E94D02C1EC0D53F51F0D63F71F0DC
:1041E000D43FA9F48091C5069091C6068E7F0BC07E
:1041F0008091C5069091C6068D7F05C08091C50649
:104200009091C6068B7F9093C6068093C5068D2F2E
:104210000E94382D0E94BD2DB1C18C2F837009F0F2
:1042200050C01111A7C18D2F829586958770880F78
:10423000880F9D2F9F70492E512C612C712C082EB8
:1042400004C0440C551C661C771C0A94D2F7D4FF9A
:1042500014C00FE010E020E030E0B901A80104C074
:10426000440F551F661F771F8A95D2F7CB01BA01FD
:10427000609570958095909503C060E070E0CB01EB
:10428000C695C695C370D0E0C230D10561F0C33089
:10429000D10581F06429752986299729219771F024
:1042A0000E94192767C164297529862997290E94C8
:1042B0002B2760C10E941927C301B2010E94072762
:1042C00059C1112319F08C2F817001C08695882364
:1042D00009F450C18D2F829586958770880F880FBD
:1042E0009D2F9F70492E512C612C712C082E04C0DB
:1042F000440C551C661C771C0A94D2F7D4FF14C0DA
:104300000FE010E020E030E0B901A80104C0440F44
:10431000551F661F771F8A95D2F7CB01BA016095AA
:1043200070958095909503C060E070E0CB01C695D4
:10433000C695C3704C2F50E04230510569F04330B0
:10434000510589F06429752986299729413051053D
:1043500071F00E94DF270EC16429752986299729EB
:104360000E94F12707C10E94DF27C301B2010E940A
:10437000CD2700C18D2F90E0FC01E05EF109E53111
:10438000F10508F069C0EF56FF4F0C94E33ADF7077
:104390008C2F8F71112331F00E9466278D2F0E9480
:1043A000EC1FDCC00E9487278D2F0E94F31FD6C010
:1043B000112339F00111D2C08C2F8F710E94AC27CC
:1043C000CDC0023008F0CAC0F7CF112339F08C2FCE
:1043D0008F710E946627C2C01123C9F38C2F8F7181
:1043E0000E948727BBC0112329F08C2F8F710E9458
:1043F0005127B4C00E944C27B1C01123C9F00E94BC
:10440000CE280E9471290E940029843039F40E942C
:104410003F298C2F8F710E948727D0C0023008F06F
:10442000CDC0CF718C2F0E94662763E08C2F0DC00A
:104430000E94CE280E946B29023050F00E943F2932
:104440000E94D42864E08C2F8F710E942F29B6C05F
:1044500081E00E944629B2C0112339F0002309F4FB
:10446000B6CF8D2F0E946B1E79C0002309F4B6CF02
:10447000D93349F45FEF67EE73E05150604070400C
:10448000E1F700C000008D2F0E94841F67C04C2FF1
:104490004F706D2FC7010E9427060E9478266EC0BC
:1044A000D23FB1F028F4D03F49F0D13FF9F028C015
:1044B000D43FB9F058F0D53F71F022C0112309F470
:1044C00047C09091880481E0892708C081E01827BF
:1044D000109388043DC011113BC081E08093880493
:1044E00037C0111135C01092880432C0112329F051
:1044F00080918704882329F329C0002311F328C061
:10450000809187040023C1F0882341F090918804B2
:1045100081E0892780938804109287048D2F1123CE
:1045200019F00E946B1E14C00E94841F86E0F701E0
:1045300011928A95E9F70CC0882351F0111108C037
:104540009091880481E089278093880410928704E1
:104550004C2F4F706D2FC7010E946309F8E0CF16F2
:10456000D10441F05CF04AE0C41AD10852E0C5160B
:10457000D10420F40E94CA1C0E948C06BB2001F1C9
:104580000E94002980FD1CC0F70112820E94FA28B7
:104590000E946627C7010E94EE220E94FA28DF913E
:1045A000CF911F910F91FF90EF90DF90CF90BF9030
:1045B0007F906F905F904F900C948727B12CDACF4B
:1045C000DF91CF911F910F91FF90EF90DF90CF90EF
:1045D000BF907F906F905F904F9008950F931F93BF
:1045E000CF93DF93EC01888199812B813C81232B30
:1045F000B9F09F3F11F48F3F99F0CE010E949E06C3
:10460000882371F0688179818A810E94AB288C01AE
:104610000E9403280E940427B801CE010E94FA1FBD
:10462000DF91CF911F910F9108950E9488290E94D8
:10463000982980911001909111010E941A2B0E94DB
:10464000AB290E94632E0E94BD2D80E090E00E9465
:10465000EC1C80E090E00C94021D0E9478290C94E0
:1046600015230E94A028E92FE295EF70F0E0329721
:10467000EE30F105B0F4EA55FF4F0C94E33A803F79
:1046800091F018F4803E68F40EC0843F51F40BC0E2
:10469000803E48F0813F29F406C093FB882780F9CB
:1046A000089580E0089581E00895CF93DF9300D0CE
:1046B00000D01F92CDB7DEB70F900F900F900F90E4
:1046C0000F90DF91CF910895CF93DF9300D000D06A
:1046D00000D0CDB7DEB726960FB6F894DEBF0FBE7A
:1046E000CDBFDF91CF9108951F93CF93DF93C091FA
:1046F000890416E080918A04C81799F0D0E01C9FC5
:10470000F0011D9FF00D1124E557FB4F40815181B1
:1047100062817381848195810E9464232196C77090
:10472000E9CFDF91CF911F9108954091BB04509143
:10473000BC046091BD047091BE048091BF0490914F
:10474000C0040C9464238091C00482958F7009F09A
:1047500054C08091BD04882309F44FC0809189041E
:10476000A0918A046091BB047091BC044091BE0486
:104770005091BF04B6E08A1709F43FC090E041159C
:104780005105C1F17F3F11F46F3FA1F1B89FF001D6
:10479000B99FF00D1124E557FB4F218172132AC0F8
:1047A0002081621327C02281211124C023813481FA
:1047B0002417350710F421503109241B350B283CF0
:1047C0003105C0F42091C0042F7020612093C004F3
:1047D00026E0289FF001299FF00D1124E057FB4FA0
:1047E00080818F70806180838BEB94E00E94EE2249
:1047F0000C94742301968770BECF0895CF92DF92F8
:10480000EF92FF920F931F93CF93DF93CDB7DEB755
:1048100062970FB6F894DEBF0FBECDBF8C0185E066
:10482000F801DE011D9601900D928A95E1F7D801FD
:104830004C9111965C91119712966C911297139668
:10484000CD90DC9014973091BB047091BC048091A2
:10485000BE049091BF04009709F46BC17F3F19F427
:104860003F3F09F466C1E090BD04EE2009F4C0C0EA
:104870002091C004C816D90628F0F601E81BF90BF0
:10488000CF0104C0809590958C0D9D1DFF24F3945D
:10489000883C910578F0F12C207F09F0C6C07C2D72
:1048A000D98AC88A89890E9455238BEB94E00E949B
:1048B000EE22B1C0822F807F09F046C0751314C06C
:1048C000341312C0611110C02F7020612093C004F6
:1048D0000E9495238BEB94E00E94EE228091C0040D
:1048E000D80115968C932EC0CD2819F15F3F11F495
:1048F0004F3FF9F0F62E61111CC080918904209180
:104900008A0436E0821709F45AC090E0389FF0011B
:10491000399FF00D1124E557FB4F7181571306C0E5
:104920007081471303C07281711103C001968770B3
:10493000E9CFF62E662309F427C18091C004816077
:104940008093C004F12C20C1751308C0341306C035
:10495000611104C08091C004D801C3C04D875E8737
:104960008D859E856A8B0E9431236A898823E1F1B7
:104970006623D1F12091C004822F82958F7090E040
:10498000029774F08091BB049091BC0498878F8348
:104990001986DB86CA862C87CE0107960E94EE22F6
:1049A00086E0F801ABEBB4E001900D928A95E1F757
:1049B0000E94A3230E949523FF24F394E5C04D8712
:1049C0005E878D859E850E94A028292F22952F70B5
:1049D00030E0223031050CF0CBC09F7009F0C5C02B
:1049E000805E883008F4D0C0C8010E94EE22E4CF77
:1049F000C816D90608F453C0F601E81BF90BCF011D
:104A0000883C910508F450C0F12C7C2DD98AC88AC5
:104A100089890E945523EBEBF4E086E0DF011D92CB
:104A20008A95E9F70E949523AFC0751314C034131B
:104A300012C0611110C08091C004F8018583C801C3
:104A40000E94EE2286E0EBEBF4E0DF011D928A95F6
:104A5000E9F7FE2C99C04D875E878D859E856A8B10
:104A60000E9431236A89882309F4BECF662309F4A2
:104A7000BBCF2091C004822F82958F7090E0029767
:104A80000CF48ECF8091BB049091BC049A838983EF
:104A90001B82DD82CC822E83CE0101967FCF809552
:104AA00090958C0D9D1DACCFF62E662309F49CCFFE
:104AB00075132EC034132CC02091C00420FD1FC0DC
:104AC000822F82958F70D9F0D80115962C93159767
:104AD0008F3049F08F5F982F9295907F822F8F7043
:104AE000892B15968C93C8010E94EE2286E0F8016E
:104AF000ABEBB4E001900D928A95E1F793CF86E09D
:104B0000F801ABEBB4E001900D928A95E1F73CC05F
:104B10004D875E878D859E850E943123811140CF10
:104B20008091C00481608093C004C8010E94EE227D
:104B30002BC0662309F458CF4D875E878D859E85EF
:104B40000E943123F82E882309F44ECF86E0F80125
:104B5000ABEBB4E001900D928A95E1F78BEB94E01A
:104B60000E94591E0E94A3235DCF811139CF0CC032
:104B7000243031050CF038CF9F7009F431CFF801A3
:104B80009581907F09F02CCF8F2D62960FB6F89407
:104B9000DEBF0FBECDBFDF91CF911F910F91FF9070
:104BA000EF90DF90CF9008951F93CF93DF93CDB711
:104BB000DEB72C970FB6F894DEBF0FBECDBF4F8384
:104BC000588769877A878B879C87CE0107960E94D2
:104BD000FE23882369F08F8198852A853B85232BC6
:104BE000F1F19F3F09F063C08F3F09F060C037C00B
:104BF00086E0FE013796DE01119601900D928A95AE
:104C0000E1F76F817885EA85FB85309741F17F3F39
:104C100011F46F3F21F120918A0430E0C90101961F
:104C2000877099274091890450E08417950709F40B
:104C300047C069837A83FD83EC8396E0929FD0011D
:104C4000939FB00D1124A557BB4FFE0131960190E3
:104C50000D929A95E1F780938A040E94742316E0DE
:104C60008091890490918A048917C1F1189FC0012D
:104C7000112485579B4F0E94FE23882379F1E091F0
:104C800089041E9FF0011124E557FB4F408151819B
:104C900062817381848195810E946423809189045B
:104CA00090E001968770992780938904D9CF4F812E
:104CB000588569857A858B859C850E946423CFCF32
:104CC0000E942D2310928A0410928904EBEBF4E0E9
:104CD00086E0DF011D928A95E9F7C1CF2C960FB6C9
:104CE000F894DEBF0FBECDBFDF91CF911F91089525
:104CF000EF92FF920F931F93CF93DF938C01892B39
:104D000009F46CC0F12CEE24E394E8012196F8013B
:104D10008491843740F4843008F051C0813081F0B0
:104D2000823019F15BC0853709F444C0A8F19CE7D3
:104D3000980F903708F052C08F770E94841F41C0AF
:104D40000E5F1F4FFE01C49180E28C0F883048F443
:104D5000C7708E2D01C0880FCA95EAF70E948B2973
:104D600014C08C2F0E946B1E2DC00E5F1F4FFE01C2
:104D7000C49180E28C0F883058F4C7708E2D01C02A
:104D8000880FCA95EAF70E9491290E94AB291AC0A0
:104D90008C2F0E94841F16C00E5F1F4FFE01C4910E
:104DA000CC2381F08FE99FE00197F1F700C000006C
:104DB000C150F6CF0E5F1F4FFE01F49003C00E945A
:104DC0006B1E8E018F2D882309F49FCFEFE9FFE042
:104DD0003197F1F700C000008150F5CFDF91CF91FE
:104DE0001F910F91FF90EF90089508950C94F52670
:104DF0000E94F6266093FC047093FD048093FE04E9
:104E00009093FF040C94152308950C94F8260F93A7
:104E10001F930091FC041091FD042091FE04309139
:104E2000FF04602B712B822B932B1F910F910C94FD
:104E3000F8260F931F930091FC041091FD0420911C
:104E4000FE043091FF0460237123822393231F917A
:104E50000F910C94F8260F931F930091FC0410916E
:104E6000FD042091FE043091FF0460277127822702
:104E700093271F910F910C94F82608950C943D27C9
:104E80000E943E276093F8047093F9048093FA041B
:104E90009093FB040C94152360E070E0CB010C941C
:104EA00040270F931F9341E050E060E070E08A01DB
:104EB0009B0104C0000F111F221F331F8A95D2F7D8
:104EC000C901B8011F910F910C9440270F931F93B4
:104ED00041E050E060E070E004C0440F551F661FE1
:104EE000771F8A95D2F78091F8049091F904A091E8
:104EF000FA04B091FB048A019B01082B192B2A2B81
:104F00003B2BC901B8011F910F910C9440270F93BF
:104F10001F9341E050E060E070E004C0440F551F73
:104F2000661F771F8A95D2F74095509560957095CA
:104F30008091F8049091F904A091FA04B091FB04D7
:104F40008A019B01082319232A233B23C901B801A5
:104F50001F910F910C9440270F931F9341E050E055
:104F600060E070E004C0440F551F661F771F8A95EC
:104F7000D2F78091F8049091F904A091FA04B091CD
:104F8000FB048A019B01082719272A273B27C9010F
:104F9000B8011F910F910C9440270F931F9300911C
:104FA000F8041091F9042091FA043091FB04602B6D
:104FB000712B822B932B1F910F910C9440270F93F1
:104FC0001F930091F8041091F9042091FA04309194
:104FD000FB0460237123822393231F910F910C9470
:104FE00040270F931F930091F8041091F90420912A
:104FF000FA043091FB0460277127822793271F91C1
:105000000F910C9440270895292F220F920F990F8A
:10501000890FA82FA695A695A695877051E001C087
:10502000550F8A95EAF785E0A89FD001112420E06A
:1050300030E070E0F901EA0FFB1FEF53FB4F4081B6
:10504000CB01022E02C0969587950A94E2F78170F3
:105050009927819584278523842780832F5F3F4F5D
:105060002530310539F70895292F220F920F990F16
:10507000890F682F669566956695982F977085E0DD
:10508000689FB001112440E050E080E0FA01E60F93
:10509000F71FEF53FB4F208130E0092E02C03695F9
:1050A00027950A94E2F721703327042E01C0220FBE
:1050B0000A94EAF7822B4F5F5F4F4530510531F775
:1050C0000895CF92DF92EF92FF920F931F93CF93A9
:1050D000DF938C01C090FC04D090FD04E090FE04AE
:1050E000F090FF048091F8049091F904A091FA04E3
:1050F000B091FB04C82AD92AEA2AFB2ACFE1D0E0E2
:10510000D701C6010C2E04C0B695A7959795879533
:105110000A94D2F780FF06C0B8018C2F0E947E0946
:10512000019721F4219760F780E001C08C2FDF9177
:10513000CF911F910F91FF90EF90DF90CF90089546
:10514000CF93DF93EC010E946128BE010E947E098B
:10515000DF91CF9108951F93CF93DF93EB0190914F
:105160008604992321F0CB010E94A02813C0882334
:1051700049F0CB010E946128182F682FCE010E94B0
:10518000042804C0CB010E943428182FBE01812FAF
:105190000E947E09DF91CF911F91089580910505AE
:1051A00008958093050508951092050508950E94BD
:1051B000A72B20910305309104058217930750F027
:1051C0000E94A72B2091030530910405821B930BAD
:1051D0009C010AC00E94A72B209103053091040571
:1051E00020953095280F391F81E02033354708F48A
:1051F00080E00895809102058595859585950895AF
:1052000080910205877008950E94A72B20910005C8
:105210003091010582179307A8F00E94A72B2091D7
:10522000000530910105821B930B8033954710F4E4
:1052300080E013C08091020582FB882780F991E00D
:1052400089270BC00E94A72B2091000530910105F2
:1052500020953095820F931FE8CF8170089598E0D4
:10526000899F90011124262B209302050E94662716
:105270000E94A72B9093010580930005089510923A
:105280000205109201051092000508952091020573
:105290008095822380930205982F977089F430E0DF
:1052A000482F082E000C550B2417350749F085951B
:1052B000859585950E94872710920105109200051B
:1052C000089590910205977081E009F480E00895B7
:1052D00080912905089590912905892B80932905AE
:1052E0000895809590912905892380932905089533
:1052F00010922905089590912805892B80932805FF
:105300000895809590912805892380932805089514
:1053100010922805089590912705892B80932705E1
:1053200008958095909127058923809327050895F6
:10533000109227050895809306050E94A72B90934D
:105340000405809303050895109206051092040544
:10535000109203050895E0911001F09111018091E0
:1053600029058083E0911001F091110190818091D5
:105370002805892B8083E0911001F0911101908123
:1053800080912705892B8083809106058823B9F0B9
:105390000E94D72881110E94A429E0911001F09168
:1053A0001101908180910605892B808380911001E5
:1053B000909111010E94A82A81110E94A429809134
:1053C0001001909111010C94D61C8091060508954E
:1053D000CF92DF92EF92FF926C01EE24FF24C11472
:1053E000D104E104F10421F0C701B60120E101C0BC
:1053F00020E0C72ED82EE92EFF24C114D104E104E9
:10540000F10419F0285FC701B6016B017C0154E07B
:10541000F694E794D794C7945A95D1F7C114D10460
:10542000E104F10419F02C5FC701B6016B017C01A6
:1054300042E0F694E794D794C7944A95D1F7C11403
:10544000D104E104F10419F02E5FC701B601DC01BB
:10545000CB01B695A79597958795892B8A2B8B2B92
:1054600009F02F5F822FFF90EF90DF90CF9008958B
:1054700080E090E00E94533B21E08D3E9E4F09F07A
:1054800020E0822F089582E090E00C94453B83E079
:1054900090E00C94453B84E090E00C94453B682FF1
:1054A00084E090E00C94593BAB01BC018FE090E0AC
:1054B0000C946B3BAB01BC0183E190E00C946B3B23
:1054C00060E070E0CB010C945A2A60E070E0CB0100
:1054D0000E94542A0C94602A6DEE7EEF80E090E0EA
:1054E0000E94773B60E082E090E00E94593B60E0E0
:1054F00083E090E00E94593B1092FC041092FD045E
:105500001092FE041092FF0460E084E090E00E949C
:10551000593B60E085E090E00E94593B60E086E006
:1055200090E00E94593B6FEF87E090E00E94593B6A
:1055300040E050E0BA0188E090E00E946B3B60E000
:105540008DE090E00E94593B0C94652A0C946C2AE3
:10555000FC0131969C01205E3F4F80E091919111BA
:105560008F5FE217F307D1F708959C01FC01329693
:105570009FEF80E04191461789F09F3F19F4411158
:1055800001C0982F8F5F8E31A9F79F3F39F0F90145
:10559000E90FF11D97FDFA95628308950895FC01C6
:1055A000329680962081261301C010823196E8172A
:1055B000F907C1F70895262F2695269526952F31B0
:1055C00068F4FC01E20FF11D677021E030E001C0DA
:1055D000220F6A95EAF78181282B21830895262FCF
:1055E0002695269526952F3170F4FC01E20FF11DCA
:1055F000677021E030E001C0220F6A95EAF720953C
:10560000818128232183089520912101222329F0DB
:105610002091CB0627FD0C94DB2A0C94B52A20910F
:105620002101222329F02091CB0627FD0C94EF2A9B
:105630000C94CF2AFC01319680961192E817F90755
:10564000E1F7089508950C94222B0E94232B80915A
:10565000D106843049F110922B0520E488E190E0D6
:105660000FB6F894A895809360000FBE2093600059
:1056700080E00E948C060E94232B83B7817F846088
:1056800083BF83B7816083BF7894889583B78E7F0B
:1056900083BF0FB6F894A8958091600088618093CD
:1056A0006000109260000FBE08950895CF930E948D
:1056B00079040E94C9040E94552BC0E08C2F0E94DF
:1056C0003705811104C0CF5FCE30C1F701C081E042
:1056D000CF91089508950C946A2B0E942D230E9467
:1056E000CA1C0E948C060C946B2B1F920F920FB653
:1056F0000F9211248F939F93AF93BF9380912B05AB
:10570000811113C08091C7069091C806A091C90667
:10571000B091CA064196A11DB11D8093C706909312
:10572000C806A093C906B093CA06BF91AF919F91D6
:105730008F910F900FBE0F901F90189582E084BD3F
:1057400093E095BD9AEF97BD80936E0008952FB7B3
:10575000F8948091C7069091C806A091C906B091AF
:10576000CA062FBF0895CF92DF92EF92FF920F9358
:105770001F932FB7F8944091C7065091C8066091C7
:10578000C9067091CA062FBF6A017B01EE24FF246F
:105790008C0120E030E0C016D106E206F30610F4DA
:1057A000415051099A01281B390BC9011F910F91D2
:1057B000FF90EF90DF90CF90089578941F920F9212
:1057C0000FB60F9211248F939F93AF93BF93809145
:1057D000C7069091C806A091C906B091CA06019665
:1057E000A11DB11D8093C7069093C806A093C9065A
:1057F000B093CA06BF91AF919F918F910F900FBE4A
:105800000F901F901895F89481E08093E00080E25B
:105810008093D800E9ECF0E010828FE19EE40197DC
:10582000F1F700C000001DBA109268001CBC10BE49
:105830001FBA10927A0010926E0010926F001092B0
:105840007100109272001082ECEBF0E0108214B83C
:1058500017B81AB81DB810BA108215B818B81BB806
:105860001EB811BA0C94003F08950E94382A811185
:1058700002C00E94A62A0E94432A80932A050E9401
:105880004B2A90E09093CC068093CB060E94472A47
:10589000682F70E080E090E00C94052780912F0540
:1058A00080FF0BC06091150185E0689FB001112455
:1058B00075956795759567952BC081FF09C06091B7
:1058C000150185E0689FB00111247595679520C08A
:1058D00082FF07C06091150185E0689FB001112427
:1058E00017C0909130059923D1F06091140196175B
:1058F00088F72091150185E0289F90011124929F3F
:10590000A001939F500D112470E0CA010E94CF3A6C
:105910006038710540F46115710539F002C065E029
:1059200070E0862F08958FE7089581E008958091B3
:105930002F0580FF08C06091130170E07595679591
:105940007595679521C081FF06C06091130170E0D5
:105950007595679519C082FF04C06091130170E0CE
:1059600010C0909130059923C1F0609112019617F3
:10597000A0F780911301899FC001112470E00E945B
:10598000CF3A6038710528F46115710521F0862F32
:1059900008958FE7089581E0089561E070E0F4CF05
:1059A000803F21F40E944E2C819504C0813F29F450
:1059B0000E944E2C809333050895823F21F40E946B
:1059C0004E2C819504C0833F29F40E944E2C809375
:1059D00032050895893F19F40E94972C05C08A3F2B
:1059E00031F40E94972C81958093340508958B3F64
:1059F00021F40E94972C819504C08C3F29F40E94C9
:105A0000972C809335050895843F21F480913105CA
:105A1000816017C0853F21F480913105826011C0FB
:105A2000863F21F48091310584600BC0873F21F4CB
:105A300080913105886005C0883F31F4809131053F
:105A400080618093310508958D3F21F480912F0569
:105A500081600BC08E3F21F480912F05826005C0CC
:105A60008F3F29F480912F05846080932F0508953E
:105A7000803F39F48091330587FF6CC01092330565
:105A800069C0813F29F4809133051816BCF362C0C8
:105A900090913205823F29F497FF5CC01092320545
:105AA00059C0833F19F41916CCF354C0893F41F40F
:105AB0008091340518160CF04DC0109234054AC080
:105AC0008A3F29F48091340587FF44C0F6CF8B3F8D
:105AD00039F48091350587FF3DC0109235053AC0F5
